:100000000C94A4010C94D5010C94D5010C94D50149
:100010000C94D5010C94D5010C94D5010C94D50108
:100020000C94D5010C94D5010C94D5010C94D501F8
:100030000C94D5010C94D5010C94D5010C94D501E8
:100040000C94D5010C94D5010C94D5010C94D501D8
:100050000C94D5010C94D5010C94D5010C94531D2E
:100060000C94D5010C94271E0C94FD1D0C94D50105
:100070000C94D5010C94D5010C94D5010C94D501A8
:100080000C94D5010C94D5010C94D5010C94D50198
:100090000C94C71D0C949D1D0C94D5010C942F1C21
:1000A0000C94D5010C94D5010C94D5010C94D50178
:1000B0000C94D5010C94D5010C94D5010C94D50168
:1000C0000C94D5010C94D5010C94D5010C94D50158
:1000D0000C94D5010C94D5010C94D5010C94D50148
:1000E0000C94D5010C9431030C94CE040C944B0663
:1000F0000C9456180C94AE100C9481050C9480024C
:100100000C945A1B0C947F020C9409060C9448031F
:100110000C9483040C9456030C9442030C94D8243E
:100120000C9463030C9498060C94D6020C94C404AB
:100130000C9468030C94A6040C948F020C943E0358
:100140000C947F050C942D030C94A9020C94DD10E3
:100150000C947D020C944B040C94CB180C945E030D
:100160000C94BA040C94A2020C9479040C946704C5
:100170000C9434040C94CF070C945D1E0C9464030F
:100180000C9438030C945A030C941B0D0C948D049E
:100190000C947E020C949C040C9441040C94AE05C7
:1001A0000C94070B0C9455040C94BD050C94B004EE
:1001B0000C9435030C944C030C9423030C94FB0512
:1001C0000C9450030C9429030C94CC070C94851ABE
:1001D0000C946F040C945F040C943C040000803F6A
:1001E000CDCCCC3D6F12833A95BFD6337D1D902682
:1001F000B3CE010C000020002300260029002C00B3
:100200002F00320000010000030106010901000077
:100210000A0B02090C0D0E08070304010000000080
:1002200000000000000000000000000000000000CE
:10023000000000000000000000001211100000008B
:1002400000000000000000000000000000000000AE
:100250000000000000002200250028002B002E00D6
:100260003100340002010000050108010B0100000B
:100270002100240027002A002D0030003300010156
:100280000000040107010A01050505050705080826
:100290000808020202020A0A080804040404010110
:1002A0000101010101010303030303030303040725
:1002B00007070C0C0C0C0C0C0C0C020202020606BC
:1002C0000606060606060B0B0B0B0B0B0B0B0102AF
:1002D0001020200808102040102040800201020158
:1002E0000804020101020408102040808040201010
:1002F0000804020180040201804020100804020169
:1003000008040201010204081020408001020408D0
:1003100010204080000020410000C84200401C46E0
:1003200020BCBE4CCA1B0E5AAEC59D74CDCCCC3D74
:100330000AD7233C17B7D13877CC2B329595E624D2
:100340001FB14F0A5D1ED82411241FBECFEFD1E28A
:10035000DEBFCDBF00E00CBF26E0AEE1B4E001C0DF
:100360001D92AA37B207E1F714E0A0E0B2E0E2E1A3
:10037000F3E500E00BBF02C007900D92AE31B1076C
:10038000D9F711E0C3EAD1E000E006C021970109E6
:10039000802FFE010E94AA26C23AD10780E00807FA
:1003A000A9F70E94AD1F0C9477290C940000CF92FE
:1003B000DF92EF92FF92CF93DF93EC016A017B0112
:1003C000E889F98982E08083C11481EED806E104CE
:1003D000F104A1F060E079E08DE390E0A7019601DF
:1003E0000E948826215031094109510956954795A7
:1003F00037952795211580E1380798F0E889F98924
:10040000108260E874E88EE190E0A70196010E94F6
:10041000882621503109410951095695479537954C
:100420002795EC85FD853083EE85FF852083188E2A
:10043000EC89FD8986E08083EA89FB89808180617F
:100440008083EA89FB89808188608083EA89FB89CF
:10045000808180688083EA89FB8980818F7D8083A9
:10046000DF91CF91FF90EF90DF90CF90089590E0D3
:10047000FC01E253FD4F249188579D4FFC0184916C
:10048000882399F090E0880F991FFC01E259FD4FF5
:10049000A591B491FC01EC5AFD4F859194918FB7D1
:1004A000F894EC91E22BEC938FBF0895209198047F
:1004B000260F3327331F21323105ECF42091BE047F
:1004C000FC0190E080E0243069F082E00895A09182
:1004D00098042191AC014A585B4FA40FB52FB11D70
:1004E0002C930196861798F380919804680F609377
:1004F000980480E0089581E008950895089508958E
:10050000E0916D0480916C04E81730F4F0E0E45B56
:10051000FB4F808190E008958FEF9FEF08959091B9
:100520006D0480916C042FEF3FEF981748F4E92F8A
:10053000F0E0E45BFB4F208130E09F5F90936D041F
:10054000C901089580916C0490916D04891B990BE9
:100550000895CF92DF92EF92FF920F931F93CF9364
:10056000DF937C01CB018A0120914B04222389F087
:10057000EB016B01C40ED51ECC15DD0569F0699148
:10058000D701ED91FC910190F081E02DC701199503
:10059000F3CF642F0E945602C801DF91CF911F91C3
:1005A0000F91FF90EF90DF90CF900895CF93DF935E
:1005B0001F92CDB7DEB7698320914B042223F9F057
:1005C00020916E04203258F021E030E0FC013383AA
:1005D000228390E080E00F90DF91CF910895809189
:1005E0006F04E82FF0E0E55DFB4F998190838F5F0A
:1005F00080936F0480936E0481E090E0ECCF61E023
:10060000CE0101960E945602F7CF8150823108F048
:100610005AC0E82FF0E08827EF5EFC4F8F4F0C9414
:10062000AA2631033503230329032D03630338036B
:100630003E03420348034C03500356035A0363032B
:100640005E0364036803809180008F77809380004D
:100650000895809180008F7DF9CF80918000877F01
:10066000F5CF84B58F7784BD089584B58F7DFBCF9A
:100670008091B0008F778093B00008958091B00092
:100680008F7DF9CF809190008F77809390000895AF
:10069000809190008F7DF9CF80919000877FF5CF7A
:1006A0008091A0008F778093A00008958091A00092
:1006B0008F7DF9CF8091A000877FF5CF80912001B9
:1006C0008F77809320010895809120018F7DF9CF4D
:1006D00080912001877FF5CFCF93DF93282F30E0E3
:1006E000F901E25FFD4F8491F901E253FD4FD4918E
:1006F000F901E857FD4FC491CC23A1F081110E946C
:100700000503EC2FF0E0EE0FFF1FEC50FE4FA5911C
:10071000B491EC91ED2381E090E009F480E0DF9169
:10072000CF91089580E090E0FACF1F93CF93DF93AD
:10073000282F30E0F901E25FFD4F8491F901E25387
:10074000FD4FD491F901E857FD4FC491CC23A9F096
:10075000162F81110E940503EC2FF0E0EE0FFF1F12
:10076000EC5AFD4FA591B4918FB7F894EC9111110B
:1007700008C0D095DE23DC938FBFDF91CF911F910E
:100780000895DE2BF8CF1092BE0481E08093C00460
:100790001092BF0461E084E10E94950361E085E16D
:1007A0000E949503E9EBF0E080818E7F8083808159
:1007B0008D7F808388E48093B80085E48093BC00BB
:1007C0000895CF93DF9391E0909375048823B9F057
:1007D000C091B800D091BA008091BC008A7B809310
:1007E000BC0060E084E10E94950360E085E10E9426
:1007F00095030E94C303D093BA00C093B800DF9161
:10080000CF9108951F93CF93DF93182FEB010E9490
:100810003702209739F460E0812FDF91CF911F914B
:100820000C949503E12FF0E0E25FFD4FE491E1507D
:10083000E23108F0B3C0F0E08827EE5DFB4F8F4F48
:100840000C94AA2634043C0441044B045504CE0401
:100850005F0467046F04790483048D049C04A60478
:10086000CE04B004BA04C40484B5806884BDC7BD96
:10087000DF91CF911F91089584B5806284BDC8BD7A
:10088000F7CF80918000806880938000D0938900AA
:10089000C0938800EDCF80918000806280938000BB
:1008A000D0938B00C0938A00E3CF80918000886052
:1008B00080938000D0938D00C0938C00D9CF80911D
:1008C000B00080688093B000C093B300D1CF809116
:1008D000B00080628093B000C093B400C9CF809113
:1008E0009000806880939000D0939900C093980006
:1008F000BFCF80919000806280939000D0939B0046
:10090000C0939A00B5CF809190008860809390004A
:10091000D0939D00C0939C00ABCF8091A0008068D5
:100920008093A0008091A0008F7B8093A000D09343
:10093000A900C093A8009CCF8091A0008062809302
:10094000A000D093AB00C093AA0092CF8091A000EA
:1009500088608093A000D093AD00C093AC0088CF96
:1009600080912001806880932001D0932901C09359
:1009700028017ECF80912001806280932001D09356
:100980002B01C0932A0174CF80912001886080934D
:100990002001D0932D01C0932C016ACFC038D1051E
:1009A0000CF439CF61E038CF863308F086532091BC
:1009B0007B00982F9870277F922B90937B008770F5
:1009C000806480937C0080917A00806480937A00B8
:1009D00080917A0086FDFCCF80917800909179001B
:1009E00008950F931F93CF93DF93C4E9D2E002E5FC
:1009F00016E0888122960E94D404F8018193919395
:100A00008F01F2E0CE39DF07A1F7DF91CF911F917F
:100A10000F9108953FB7F89480912704909128048E
:100A2000A0912904B0912A0426B5A89B05C02F3FA8
:100A300019F00196A11DB11D3FBFBA2FA92F982F04
:100A40008827BC01CD01620F711D811D911D42E0FF
:100A5000660F771F881F991F4A95D1F708958F92C7
:100A60009F92AF92BF92CF92DF92EF92FF924B0193
:100A70005C010E940A056B017C010E940A056C1949
:100A80007D098E099F09683E734081059105A8F391
:100A900021E0821A9108A108B10888EEC80E83E00F
:100AA000D81EE11CF11C81149104A104B10429F7A2
:100AB000FF90EF90DF90CF90BF90AF909F908F907E
:100AC00008952FB7F89460912304709124048091C5
:100AD0002504909126042FBF0895FC0124813581BF
:100AE0006217730720F480819181009729F4109296
:100AF0001F048FE194E00895860F971F08950895CD
:100B00000895AF92BF92CF92DF92EF92FF920F9330
:100B10001F93CF93DF936C017B018B01040F151F93
:100B2000EB015E01AE18BF08C017D10759F06991FB
:100B3000D601ED91FC910190F081E02DC60119954F
:100B4000892B79F7C501DF91CF911F910F91FF900C
:100B5000EF90DF90CF90BF90AF900895FC01538D40
:100B6000448D252F30E0842F90E0821B930B541787
:100B700010F0CF96089501970895FC01918D828D14
:100B8000981761F0A28DAE0FBF2FB11D5D968C91AD
:100B9000928D9F5F9F73928F90E008958FEF9FEFEC
:100BA00008950F931F93CF93DF93EC010E9461058B
:100BB000688779878A879B87CE010E94BD0597FF4A
:100BC00015C00E946105088519852A853B85601B33
:100BD000710B820B930B0C811D812E813F8160175D
:100BE00071078207930740F38FEF9FEFDF91CF915B
:100BF0001F910F910895FC01918D828D981731F00E
:100C0000828DE80FF11D858D90E008958FEF9FEFA5
:100C10000895FC01918D228D892F90E0805C9F4F7B
:100C2000821B91098F739927089580EF94E00E94A9
:100C3000090621E0892B09F420E0822F08958DE830
:100C400095E00E94090621E0892B09F420E0822F1B
:100C50000895FC01A48DA80FB92FB11DA35ABF4F51
:100C60002C91848D90E001968F739927848FA689AB
:100C7000B7892C93A089B1898C91837080648C93FF
:100C8000938D848D981306C00288F389E02D8081AE
:100C90008F7D80830895EF92FF920F931F93CF93E0
:100CA000DF93EC0181E0888F9B8D8C8D98131AC0A7
:100CB000E889F989808185FF15C09FB7F894EE898E
:100CC000FF896083E889F9898081837080648083EB
:100CD0009FBF81E090E0DF91CF911F910F91FF9036
:100CE000EF900895F62E0B8D10E00F5F1F4F0F73DE
:100CF0001127E02E8C8D8E110CC00FB607FCFACF99
:100D0000E889F989808185FFF5CFCE010E94290607
:100D1000F1CFEB8DEC0FFD2FF11DE35AFF4FF08269
:100D20009FB7F8940B8FEA89FB8980818062CFCFCF
:100D3000CF93DF93EC01888D8823B9F0AA89BB8912
:100D4000E889F9898C9185FD03C0808186FD0DC0FD
:100D50000FB607FCF7CF8C9185FFF2CF808185FF1E
:100D6000EDCFCE010E942906E9CFDF91CF91089502
:100D700080E090E0892B29F00E941F0681110E94DB
:100D8000000080E090E0892B29F00E941506811177
:100D90000E94000080E090E0892B49F080E090E024
:100DA000892B29F00E94000081110E94000080E040
:100DB00090E0892B49F080E090E0892B29F00E9497
:100DC000000081110C9400000895CF92DF92EF9201
:100DD000FF920F931F93CF93DF93FC01C48121E017
:100DE00020934B04C0931E0410926F0410926E0463
:100DF0008485682B84EE94E00E94D602D0916E0424
:100E0000D13208F092C00E940A056B017C018091EA
:100E1000BE04811165C082E08093BE0481E08093AE
:100E2000C0048FEF8093BD041092E204D093E104DC
:100E3000ABE2B4E0E1ECF4E080E0D81385C01092BE
:100E4000E3048091E304CC0FC82BC093E3048091AA
:100E5000BF04813009F07CC01092BF040E940A05D3
:100E60006B017C018091E3048093BB00809171044D
:100E700090917204A0917304B0917404892B8A2B11
:100E80008B2B99F00E940A05009171041091720455
:100E900020917304309174046C197D098E099F09A7
:100EA0000617170728073907E0F18091BC0083FD7A
:100EB000D9CF85EC8093BC000E940A056B017C01B0
:100EC0008091BE04823009F445C08091BD048F3FFB
:100ED00061F18091BD04803241F18091BD0425C053
:100EE0008091710490917204A0917304B091740484
:100EF000892B8A2B8B2B09F48ACF0E940A0500913B
:100F000071041091720420917304309174046C196F
:100F10007D098E099F09061717072807390708F06A
:100F200076CF809170040E94E10310926F041092BA
:100F30006E0410924B04DF91CF911F910F91FF909F
:100F4000EF90DF90CF9008959D9191938F5F75CF33
:100F500085EEB0CF8091710490917204A0917304DA
:100F6000B0917404892B8A2B8B2B09F4A9CF0E9492
:100F70000A0500917104109172042091730430915C
:100F800074046C197D098E099F0906171707280735
:100F9000390708F095CFC5CF90E080E00895089517
:100FA000CF93DF93EC0188819981DC01ED91FC9175
:100FB0000190F081E02D19952A813B81820F931FCA
:100FC0009B838A83DF91CF910895CF93DF93EC01C8
:100FD00088819981DC01ED91FC910280F381E02D03
:100FE00019952A813B81820F931F9B838A83DF910E
:100FF000CF9108958F929F92AF92BF92CF92DF923E
:10100000EF92FF920F931F93CF93DF93CDB7DEB78D
:1010100066970FB6F894DEBF0FBECDBF6C018E0190
:10102000095E1F4F78018AE0882E912CA12CB12CEB
:10103000CB01BA01A50194010E948826942F852F27
:10104000605DF80162938F01A901692F782F411526
:1010500051056105710561F7A7014E1B5F0BBF01CB
:10106000C6010E94E50766960FB6F894DEBF0FBE74
:10107000CDBFDF91CF911F910F91FF90EF90DF9047
:10108000CF90BF90AF909F908F9008952F923F92F6
:101090004F925F926F927F928F929F92AF92BF9288
:1010A000CF92DF92EF92FF920F931F93CF93DF9334
:1010B00000D000D0CDB7DEB71C014A015B0186E04D
:1010C000D1011A968C9320E836E948E15BE4CB0124
:1010D000B4010E944E2787FD7DC004E110E060E26C
:1010E000462E512C1E821D82F801EC5EFC4F25918C
:1010F000359145915491C501B4010E944E2787FD59
:1011000013C0F801E45DFC4F259135914591549150
:10111000C501B4010E949C254B015C01ED81FE815B
:10112000E40DF51DFE83ED83559447940450110999
:101130000C3FFFEF1F07C1F677247A9420E030E0E0
:10114000A901C501B4010E944E2718160CF04AC02F
:101150002CEA35EC47E257E3C501B4010E9436257D
:1011600018160CF43FC0272D34E02302800111240F
:10117000F12CE12CC80184529E4F6C010C5E1C4F77
:101180009FEF791679F1F601EE0DFF1D259135914E
:1011900045915491C501B4010E94362587FF13C0C3
:1011A000F801EE0DFF1D2591359145915491C50132
:1011B000B4010E949C254B015C01AD81BE81A41944
:1011C000B509BE83AD83559447947A94B4E0EB1A85
:1011D000F108D6CF30E2432E512C45E0742E1E820A
:1011E0001D82ACCF2D813E81F10131872087C50161
:1011F000B4010E941F2769837A838B839C83D1016A
:101200006D937D938D939C9313972B013C0190E4F8
:10121000C92E92E4D92E9FE0E92EF12CBAE04B16AC
:10122000510461047104C8F0C701B6012AE030E03E
:1012300040E050E00E94882669017A01F101828530
:1012400081508287C301B2012AE030E040E050E0E3
:101250000E94882629013A01E1CF69817A818B8138
:101260009C810E943B259B01AC01C501B4010E94F9
:10127000B2264B015C01C701B6010E943B259B01D0
:10128000AC01C501B4010E949C252B013C010E94C8
:101290001F274B015C010E943B259B01AC01C30150
:1012A000B2010E94B2269B01AC010E94B3260E94AB
:1012B0001F27860E971EA81EB91E8C149D04AE040F
:1012C000BF0430F5D10114968D929D92AD92BC92DF
:1012D00017978AE0C82ED12CE12CF12CD10114965D
:1012E0006D917D918D919C911797A70196010E9418
:1012F0008826672B682B692B89F5F10182851816E2
:101300006CF5248335834683578381508287E6CFEB
:10131000F101148215821682178289819A81AB812C
:10132000BC810196A11DB11D80839183A283B383EB
:101330002D813E812115310561F20A97A105B10584
:1013400040F2C90101969187808781E090E0A0E09A
:10135000B0E080839183A283B383BBCF26960FB680
:10136000F894DEBF0FBECDBFDF91CF911F910F91DB
:10137000FF90EF90DF90CF90BF90AF909F908F90B5
:101380007F906F905F904F903F902F9008958033A3
:101390009CF08A3324F08F3524F08B3724F481E0DD
:1013A000089581344CF08B35D4F393ED980F81E0A0
:1013B0009230B0F380E008958B32B9F7F0CFFC01A2
:1013C0008685811114C0A185B285838594852FEF10
:1013D0003FEFA817B90730F4CD01019692878187B6
:1013E0002C9130E037FD20E0258781E086878585D8
:1013F00008951F93CF93DF93EC01162F0E94DF090E
:10140000811306C01E8681E0DF91CF911F91089560
:1014100080E0FACFCF93DF93EC01CE010E94DF0989
:101420008B303CF489304CF4882349F081E0888784
:1014300010C08D3011F08032C9F71E86EECF88853E
:1014400081110AC081E090E0CF5ADF4F99838883F1
:1014500080E0DF91CF91089582E090E0F5CF08958C
:10146000FC0185859F01275F3F4F85FD02C030E06D
:1014700020E0B901CF010895FC010E96918380838D
:10148000938382838C509E4F958384839783868336
:101490001086158608950F931F93CF93DF93DB017A
:1014A00012962D913C91EC01E881F9818A819B8112
:1014B000DF01A20FB31FA817B907A8F44C9141117F
:1014C0000EC0EB01A881B981EF018D01020F131F3E
:1014D000A017B10751F05D9149915417C9F341919B
:1014E0004111FDCFE5CFF0E0E0E0CF01DF91CF91FA
:1014F0001F910F910895EF92FF920F931F93CF9337
:10150000DF9300D01F92CDB7DEB749835A836B8338
:101510007C83042F152F0115110569F490E080E0FC
:101520000F900F900F900F90DF91CF911F910F911F
:10153000FF90EF9008957C01BE016F5F7F4F0E9486
:101540004B0A009769F72B813C81F70182819381D7
:10155000A9014F5F5F4F480F591F64817581641760
:10156000750718F481E08087D9CF538342830097B1
:10157000A9F2F801DC01BF01620F731F6E177F072C
:1015800019F041914D93FACF280F391FF9011082BC
:10159000C7CFCF92DF92EF92FF920F931F93CF931B
:1015A000DF93EA01209751F1FC012081318121155F
:1015B000310569F48C8180788C8381E0DF91CF9153
:1015C0001F910F91FF90EF90DF90CF9008957B01D6
:1015D00004811581A901B801C7010E947B0A9C0101
:1015E00050E040E0892B11F04FE755E09C81907866
:1015F000452B31F49C8381E0232B01F780E0DECF83
:1016000095609C83398328831B830A83F4CF20E869
:1016100032E0FC013183208380EF94E00E94980641
:10162000E0EFF4E0A289B3898C918F7E8C93A2893C
:10163000B3898C91877F8C93A289B3898C918F77A2
:101640008C93A289B3898C918F7D8C93828D818FAD
:101650000895FC0124813581A9014F5F5F4F868188
:1016600097814817590748F48281938155834483B1
:10167000FC01E20FF31F608308950190F081E02DDB
:1016800081E0808708959F92AF92BF92CF92DF92C0
:10169000EF92FF920F931F93CF93DF9300D01F928F
:1016A0001F92CDB7DEB78C010E94DF09D82ED8017A
:1016B0001E961C92F12CE12C60EFC62EC8010E94F0
:1016C000DF09F8011686D81609F4BDC0811119C0CA
:1016D000F801EF5AFF4F82E090E09183808380E031
:1016E0000F900F900F900F900F90DF91CF911F915F
:1016F0000F91FF90EF90DF90CF90BF90AF909F90B1
:1017000008958C3509F09DC0C8010E94DF09882327
:10171000F9F2EAEBF2E0853709F087C0D8011E96AE
:101720001C9254E0952EB12CA12CC8010E94DF0917
:10173000882371F281344CF48053803148F0F801F1
:10174000EF5AFF4F83E090E0C8CF8F7D8753F5CFEE
:1017500044E0AA0CBB1C4A95E1F7A82AF8011686BA
:101760009A949110E2CFC501985D8115944020F4C0
:10177000750123E0F222A2CFC5019C5D8115944042
:10178000A8F4B3E0BB22B701762F6627770F770F57
:101790006A297B2990E080E0019660387105810517
:1017A000910540F4C8010E94290B88CFB50190E053
:1017B00080E0F3CF1982262F2F7320682A8326E03A
:1017C00096958795779567952A95D1F7603271053B
:1017D00080F4606C6B835E01E4E0AE0EB11CD50159
:1017E0006E915D01662309F469CFC8010E94290B3F
:1017F000F6CF262F2F7320682B8386E0769567958A
:101800008A95E1F76031710538F4606E6C835E0192
:10181000F5E0AF0EB11CE3CF60686C83CD825E0152
:1018200026E0A20EB11CDBCF32969081992309F4F9
:1018300086CF8913F9CF8181882309F480CFF801FD
:101840001686682FAFCF0190F081E02D8085882328
:1018500031F0F801EF5AFF4F84E090E03ECF81E095
:101860003FCFCF93DF93DC01EB01EC81FD818A81D7
:101870009B810896E817F90740F481E08887F0E03B
:10188000E0E0CF01DF91CF9108953897FD83EC839D
:101890003097B9F31296CD91DC911397209791F080
:1018A000CF018C1B9D0B23E0959587952A95E1F739
:1018B0008D831396FC93EE931297158214821782F0
:1018C0001682DFCF1196FC93EE93F3CFCF92DF9287
:1018D000EF92FF920F931F93CF93DF9300D01F924D
:1018E000CDB7DEB76C018B01DC011296ED90FC9058
:1018F000FA82E9827C836B83BE016F5F7F4F0E9417
:101900004B0A009761F4F701E00FF11FCF01019638
:10191000D60113969C938E9312971082C7010F9055
:101920000F900F900F90DF91CF911F910F91FF902B
:10193000EF90DF90CF900895FC012581222339F0AC
:10194000F8E02F0290011124820F931F089590E078
:1019500080E008950F931F93CF938C01C62F0E94B0
:10196000E5066C2F6460C8010E94E5066C2F6B7F52
:10197000C8010E94E50683EC90E00197F1F7CF9152
:101980001F910F9108950F931F93CF93DF938C01B5
:10199000D62FC42F607F642B0E94AA0C80E1D89FB1
:1019A000B00111246C2BC801DF91CF911F910F91D1
:1019B0000C94AA0CCF93DF9300D000D01F921F92FB
:1019C000CDB7DEB798E0E6E0F2E0DE0111960190D7
:1019D0000D929A95E1F790917106981708F48FEFA0
:1019E00090E0880F991F21E030E02C0F3D1F820FFF
:1019F000931FFC016081606840E089E696E02896CC
:101A00000FB6F894DEBF0FBECDBFDF91CF910C941F
:101A1000C30C40E061E089E696E00E94C30C8BE3D2
:101A20009FE10197F1F780917206882319F080E019
:101A30000C94DA0C089541E00E94C30C81E090E020
:101A400008954F925F926F927F92BF92CF92DF92F2
:101A5000EF92FF920F931F93CF93DF93EC018B01D3
:101A6000E42E0E940A0AF82E811110C0F12C8F2D4D
:101A7000DF91CF911F910F91FF90EF90DF90CF906A
:101A8000BF907F906F905F904F900895CE010E941D
:101A9000DF09873209F43EC10CF5823209F43AC1FC
:101AA000CE010E94DF09B82E6E01F1E1CF0ED11CEC
:101AB000E12C36018B2D0E94C709882309F456C1F9
:101AC0002FE3E21609F452C11E86E394F601B192A7
:101AD0006F01CE010E94DF09B82EECCF8B3509F4DF
:101AE0004CC08B37E9F6F80184818078806284836A
:101AF0001182108213821282EE2009F449C01E86E0
:101B0000CE010E940A0A882309F4B0CF6DE7CE0106
:101B10000E94F909C82E8111AACFBB24B394DD24F9
:101B2000DA94DE0CE881F981828193819B838A8338
:101B30008481958122813381821B930B9F838E83C5
:101B40001D821C82892B09F4B086CE010E94DF0918
:101B5000873209F45DC0823209F45AC0CE010E9476
:101B6000DF09F82E0E94C709811159C0CF5ADF4FF3
:101B700083E090E09983888350C0F8018481807865
:101B8000806484831182108213821282E11007C064
:101B9000CF5ADF4F85E090E09983888367CF1E8618
:101BA000CE010E940A0A882309F460CF6DE5CE01B8
:101BB0000E94F90981115BCFEA946F857889C80189
:101BC0000E94310C009729F4CF5ADF4F84E090E057
:101BD000E3CF4E2DBC01CE010E94210D882309F4D4
:101BE00045CFCE010E940A0A882309F43FCF6DE554
:101BF000CE010E94F90981113ACF6CE2CE010E9418
:101C0000F9098111DACFCF5ADF4F83E090E0C4CFDA
:101C1000CE010E94430B811119C0FC2C28CF1E86D7
:101C20006F2DCE010E94290BCE010E94DF09F82EF4
:101C30000E94C7098111F3CFE881F981808588234B
:101C400029F0CF5ADF4F84E090E094CFCE010E947C
:101C50000A0A882311F36AE3CE010E94F909882356
:101C600009F484CFEA81FB818C819D81E80FF91F03
:101C700010826A807B8061147104A1F0F801E08019
:101C8000F180E114F10471F0F70166817781C301FD
:101C90000E946729892B09F4E3C1C7010E949C0CAB
:101CA0007C01EFCF6C817D81888199810E94660CD7
:101CB0007C016F857889C8010E94310CFC01892B59
:101CC00009F4BFCF848180688483F782E682BF01F4
:101CD0004D2DCE010E94210D882309F49ECFCE0107
:101CE0000E940A0A882309F498CF6DE7CE010E946A
:101CF000F90981110DC06CE2CE010E94F909882317
:101D000009F434CFCE010E940A0A81110BCF85CF8E
:101D1000C82E83CFE881F981828193819B838A8356
:101D20008481958122813381821B930B9F838E83D3
:101D30001D821C82892B11F481E08087CE010E94D4
:101D4000430BF82E882309F491CECC80DD80B601B8
:101D5000888199810E94660CF80124812078256091
:101D6000248391838083D382C28281CEFE01EE0DD3
:101D7000F11D118A8989843781F4F8018481807882
:101D80008660848381E08083F4E0EF1609F46FCEEF
:101D9000CF5ADF4F82E090E0FFCE863641F4F80163
:101DA00084818078866084831082F5E0EECF8E3661
:101DB00021F424E0E212ECCF5ACE8B32D9F1F301B8
:101DC0008D32D1F5FE017296BF2C808190ED980F77
:101DD0009A3018F08E3209F016CF6F0160E070E093
:101DE000CB01F6012191A0ED4A2E420E39E03415C7
:101DF00028F16A3949E97407840749E1940740F5F5
:101E0000AAE0B0E09B01AC010E945A26512C712C33
:101E1000612CA3019201209530954095509526178D
:101E2000370748075907A0F0640D751D861D971DDB
:101E30006F01D7CFFE017296B12CC7CF211108C018
:101E4000BB2071F161307105810550E89507A0F064
:101E5000E12CEAE04E2E512C612C712C611571059C
:101E6000F0E88F07910530F1A30192010E948826C6
:101E7000CA01B901E394F2CFF801248120782A60E5
:101E800024839B01AC0188279927DC01821B930BDB
:101E9000A40BB50B80839183A283B383FB2CE7CD86
:101EA000F8012481207828602483608371838283F1
:101EB0009383DDCDD601F60121916F0130ED320F14
:101EC0003A3010F4E394F6CF2E32F1F4FD0131965E
:101ED000DF0131962C9150EDD52ED20E29E02D1533
:101EE00098F06C3C3CEC73073CE08307910580F76D
:101EF000AAE0B0E09B01AC010E945A266D0D711D55
:101F0000811D911DEA94E4CF2C912F7D253409F099
:101F10008CC011962C9111972D32D9F512967F2CE9
:101F2000FD0130E020E0CE2C0E2C000CDD084AE054
:101F3000542EDF01619040ED460D4A3008F043C059
:101F4000529EA001539E500D1124262D660C330B7A
:101F500020533109240F351FA601420F531F47326A
:101F600051053CF3F80184817720D1F040E050E046
:101F700060E070E8B11003C040E050E0BA01807842
:101F80008C60F80184834083518362837383F72CD0
:101F90006ECD2B3219F01196712CC2CF1296FCCF58
:101FA00040E050E060E87FEFB11004C040E050E056
:101FB00060E87FE780788C60F801848340835183F8
:101FC0006283738354CD772019F0319521953109BF
:101FD0004C91411118CEE901CE0DD11DE7FCDA95E7
:101FE0000E943B251C161D061CF5E12CC0FF0CC0F1
:101FF00024E0E29EF0011124EC5EFC4F2591359126
:10200000459154910E949C25D595C795E3942097BE
:1020100069F7B1109058F801248120782C6024834E
:10202000608371838283938322CD30E020E0D0CF20
:10203000D195C195D109E12C209759F3C0FF0CC06F
:1020400044E0E49EF0011124E45DFC4F25913591BC
:10205000459154910E949C25D595C795E394ECCF6A
:10206000B70136CE0F931F93CF93DF93CDB7DEB773
:10207000C356D1090FB6F894DEBF0FBECDBF8C0199
:10208000FB012081318184819581820F931FF801AA
:1020900060817181738362836681778175836483D4
:1020A000108615866E961FAF0EAF6E9758E0FE0134
:1020B000E45AFF4FDE01AC5ABF4F01900D925A9582
:1020C000E1F758E0FE01EC5AFF4FDE011196019056
:1020D0000D925A95E1F719863B872A879D878C8751
:1020E0001F86198B088B64961FAE1EAE6497B801CD
:1020F000675F7F4FCE0101960E94210D64968EADE1
:102100009FAD6497009749F42E85222331F0F801A2
:10211000258523FF02C083E090E0CD59DF4F0FB645
:10212000F894DEBF0FBECDBFDF91CF911F910F910D
:102130000895FC0124813581232B39F421E0FB0132
:102140008081882349F020E007C0808191810E942E
:10215000672921E0892BB9F7822F0895CF93DF9368
:10216000EC010E94070BCE01DF91CF910C94EF2779
:10217000CF93DF93EC0188819981009711F00E9441
:10218000EF27198218821D821C821B821A82DF911E
:10219000CF910895FC0180819181009711F00C94FA
:1021A000EF270895CF93DF93EC0106960E94CA10A3
:1021B000CE01DF91CF910C94CA100C94EF27FB0154
:1021C00001900020E9F73197AF01461B570BDC0166
:1021D000ED91FC910280F381E02D19940F931F93F0
:1021E000CF93DF938C01D0E0C0E06115710519F049
:1021F0000E94DF10EC016BEC72E0C8010E94DF105E
:102200008C0F9D1FDF91CF911F910F9108956F92B9
:102210007F928F929F92AF92BF92CF92DF92EF9276
:10222000FF920F931F93CF93DF93EC018C81982F34
:102230009F7739F4807880628C83198218821B82A0
:102240001A828C8185FD03C080E090E042C07A0153
:1022500041155105C9F389014A015B0188819981C2
:102260006B013501640E751E0097E9F0DC011696CE
:10227000ED91FC91B0E0A0E0309739F0DF010D90D6
:102280000020E9F71197AE1BBF0BAC15BD0541F45B
:10229000D701A615B705E9F03D9121913217C9F391
:1022A0000E949C0CE1CFB801CE010E94310C7C0150
:1022B000892B51F2B501A401C8010E947B0A9C013F
:1022C000892BE9F1F7019481906894833783268301
:1022D000C701DF91CF911F910F91FF90EF90DF9099
:1022E000CF90BF90AF909F908F907F906F90089508
:1022F0008C010115110531F0C8010E949C0CE816F3
:10230000F906B1F7C7010E949C0C01151105A1F057
:1023100020E0009741F09C01201B310B43E03595F4
:1023200027954A95E1F7D80115962C93892B09F04A
:102330008BCF1B830A8388CF99838883F7CF08814B
:102340001981D7CFFB0101900020E9F73197AF0148
:10235000461B570B0C94E5071F93CF93DF93EAEBD3
:10236000F2E01281112379F0329621816213F9CFC4
:10237000EC016CE50E94D007612FCE01DF91CF9177
:102380001F910C94D0076111F9CF6EEC72E0DF91D0
:10239000CF911F910C94A2114F925F926F927F92F6
:1023A0008F929F92AF92BF92CF92DF92EF92FF9265
:1023B0000F931F93CF93DF93CDB7DEB7A1970FB6DF
:1023C000F894DEBF0FBECDBF7C018B01FC01848180
:1023D0008F77863009F45CC160F4823098F0C28057
:1023E000D380A080B180843008F023C1A601B5015C
:1023F000CAC08C3051F148F4883009F444C18A30A5
:1024000009F42AC165ED72E04AC1803209F4DDC0E9
:102410008034C1F76BE5C8010E94D007F701E08066
:10242000F180E114F10409F4B2C0B801C7010E94BF
:10243000CC11C7010E949C0C7C01892B09F4A7C018
:102440006CE2C8010E94D007ECCF80809180A2800E
:10245000B380A5019401C501B4010E943625811104
:10246000D1CF20E030E0A901C501B4010E9436259A
:10247000882379F0A5019401C501B4010E94B32617
:102480009B01AC01C501B4010E943625882309F4E3
:10249000B9CF20E030E0A901C501B4010E94362582
:1024A00087FF08C06DE2C8010E94D007B7FAB09458
:1024B000B7F8B0946E01F7E1CF0ED11CB501A401BD
:1024C000C6010E9446084F89588D698D7A8DC801D2
:1024D0000E94FA07F9A0FF2091F16B8D7C8D8D8D04
:1024E0009E8D4E0121E1820E911CEF2C54012AE0B9
:1024F000422E512C612C712CEA94EFEFEE1659F01C
:10250000A30192010E948826605DF40162934F014D
:10251000B901CA01F1CF8F2D90E0BC016095709593
:10252000F501E81BF90B31978EE28083442755278C
:10253000461B570B6A0D7B1DC8010E94E5078F8D56
:1025400098A1892B41F165E6C8010E94D007EF8C64
:10255000F8A0C701F7FE08C06DE2C8010E94D007CD
:10256000882799278E199F09F6012AE030E0B901E2
:102570000E947426805D8293CB010097C1F7A6016B
:102580004E1B5F0BBF01C8010E94E50704C06DE54B
:10259000C8010E94D007F80182819381A1960FB6ED
:1025A000F894DEBF0FBECDBFDF91CF911F910F9189
:1025B000FF90EF90DF90CF90BF90AF909F908F9063
:1025C0007F906F905F904F9008956BE7C8010E94D5
:1025D000D007F701E080F180E114F10441F1F70147
:1025E000A680B78062E2C8010E94D0076501F601AB
:1025F00061916F01662321F0C8010E94AC11F7CFF1
:1026000062E2C8010E94D0076AE3C8010E94D007B5
:10261000B801C7010E94CC11C7010E949C0C7C012B
:10262000892B29F06CE2C8010E94D007D5CF6DE755
:10263000AFCF62E2C8010E94D0077501CE0CDF1C4B
:10264000CE14DF0439F0F70161917F01C8010E94C7
:10265000AC11F6CF62E29CCFC080D180E280F380E3
:10266000B701A601F7FE0BC06DE2C8010E94D007BA
:1026700044275527BA014C195D096E097F09C80125
:102680000E94FA0788CF4081518162817381F7CF20
:1026900080816AED72E0811102C06FED72E0C801C5
:1026A0000E94A21178CFCF93DF9300D01F92CDB7B5
:1026B000DEB77A8369831C821B82BE016F5F7F4F06
:1026C00009960E94CC110F900F900F900F90DF9100
:1026D000CF910895CF93DF93FC0111821082138272
:1026E000128281E08483168215821086178241153A
:1026F0005105F9F0DA0114968C9114978095881F92
:102700008827881F1696CD91DC91B0E0A0E0209735
:1027100039F0DE010D900020E9F71197AC1BBD0BDD
:10272000D183C083B383A283848356834583708718
:102730006783DF91CF91089585ED8093BC008091F0
:10274000710490917204A0917304B091740407967F
:10275000A11DB11D23E0B695A795979587952A955C
:10276000D1F72091BC0024FD03C01092BE0408954F
:1027700040917104509172046091730470917404DB
:10278000452B462B472B69F30097A105B10541F076
:102790002AE22A95F1F700C00197A109B109E1CF1A
:1027A000809170040C94E1030E9459290F931F93A8
:1027B000CF93DF938C01EB01FC0180819181009725
:1027C000E1F06881798161157105A9F04281538139
:1027D0002C813D814217530770F00E9470298C8133
:1027E0009D81F801958384831D821C82DF91CF91A6
:1027F0001F910F9108950E94EF2788819981F80118
:10280000918380838A819B81938382838C819D8144
:1028100095838483198218821B821A82E5CF0F93D5
:102820001F93CF93DF93EC0188819981009759F032
:102830002A813B812617370730F081E0DF91CF9165
:102840001F910F9108958B016F5F7F4F0E94782831
:10285000009759F0998388831B830A832C813D81DB
:10286000232B59F7FC011082E8CF80E0E7CFEF92ED
:10287000FF920F931F93CF93DF936115710541F47E
:1028800080E0DF91CF911F910F91FF90EF9008951D
:1028900041155105B1F07B01EC010C811D81040F44
:1028A000151FB8010E940F14882351F32881398124
:1028B0008C819D81B701820F931F0E9470291D8317
:1028C0000C8381E0DECFCF93DF93EC01FB014481E9
:1028D0005581608171810E943714811103C0CE013E
:1028E0000E94B810CE01DF91CF910895CF93DF936E
:1028F000EC01EAA1FBA1E80FF91F1282BC016E5F97
:102900007F4F81F0FB0101900020E9F73197AF0183
:10291000461B570B888199810E943714882311F038
:102920001BA21AA28AA19BA1DF91CF9108951F93A8
:10293000CF93DF93EC01162F8AA19BA1019680977C
:10294000B8F48AA19BA19C012F5F3F4F3BA32AA310
:102950008C0F9D1FFC01128321E030E08CA19DA112
:10296000820F931F9DA38CA3DF91CF911F91089598
:10297000CE010E947614892B21F330E020E0EECFC7
:10298000BF92CF92DF92EF92FF920F931F93CF935C
:10299000DF93EC016A018B017B01E40EF51EE0166A
:1029A000F106D1F0F801B1908F018AA19BA10196A7
:1029B000809760F48AA19BA19C012F5F3F4F3BA3AE
:1029C0002AA38C0F9D1FFC01B282E9CFCE010E9489
:1029D0007614892B79F3E3CF4CA15DA14C0D5D1DDD
:1029E0005DA34CA3DF91CF911F910F91FF90EF90CA
:1029F000DF90CF90BF9008958F929F92AF92BF9239
:102A0000CF92DF92EF92FF920F931F93CF93DF93BA
:102A1000CDB7DEB766970FB6F894DEBF0FBECDBF59
:102A20006C018E01095E1F4F78018AE0882E912C7F
:102A3000A12CB12CCB01BA01A50194010E948826DA
:102A4000942F852F605DF80162938F01A901692F92
:102A5000782F411551056105710561F7A7014E1BDE
:102A60005F0BBF01C6010E94C01466960FB6F894B2
:102A7000DEBF0FBECDBFDF91CF911F910F91FF90B1
:102A8000EF90DF90CF90BF90AF909F908F90089580
:102A9000FB0101900020E9F73197AF01461B570B6E
:102AA0000C94C0141F93CF93DF93EAEBF2E01281F2
:102AB000112379F0329621816213F9CFEC016CE594
:102AC0000E949714612FCE01DF91CF911F910C943A
:102AD00097146111F9CF6EEC72E0DF91CF911F91E5
:102AE0000C9448154F925F926F927F928F929F92B3
:102AF000AF92BF92CF92DF92EF92FF920F931F930C
:102B0000CF93DF93CDB7DEB7A1970FB6F894DEBFB2
:102B10000FBECDBF7C018B01FC0184818F77863095
:102B200009F45CC160F4823098F0C280D380A08048
:102B3000B180843008F023C1A601B501CAC08C3031
:102B400051F148F4883009F444C18A3009F42AC1AB
:102B500065ED72E04AC1803209F4DDC08034C1F70E
:102B60006BE5C8010E949714F701E080F180E11441
:102B7000F10409F4B2C0B801C7010E947215C7017F
:102B80000E949C0C7C01892B09F4A7C06CE2C8014F
:102B90000E949714ECCF80809180A280B380A50121
:102BA0009401C501B4010E9436258111D1CF20E0E6
:102BB00030E0A901C501B4010E943625882379F0CF
:102BC000A5019401C501B4010E94B3269B01AC018B
:102BD000C501B4010E943625882309F4B9CF20E04D
:102BE00030E0A901C501B4010E94362587FF08C065
:102BF0006DE2C8010E949714B7FAB094B7F8B09488
:102C00006E01F7E1CF0ED11CB501A401C6010E94EF
:102C100046084F89588D698D7A8DC8010E94FC1431
:102C2000F9A0FF2091F16B8D7C8D8D8D9E8D4E01D5
:102C300021E1820E911CEF2C54012AE0422E512CEE
:102C4000612C712CEA94EFEFEE1659F0A30192017A
:102C50000E948826605DF40162934F01B901CA01A8
:102C6000F1CF8F2D90E0BC0160957095F501E81BC8
:102C7000F90B31978EE2808344275527461B570B6B
:102C80006A0D7B1DC8010E94C0148F8D98A1892BED
:102C900041F165E6C8010E949714EF8CF8A0C701C6
:102CA000F7FE08C06DE2C8010E9497148827992793
:102CB0008E199F09F6012AE030E0B9010E947426BE
:102CC000805D8293CB010097C1F7A6014E1B5F0B7D
:102CD000BF01C8010E94C01404C06DE5C8010E9474
:102CE0009714F80184A195A1A1960FB6F894DEBFC0
:102CF0000FBECDBFDF91CF911F910F91FF90EF904D
:102D0000DF90CF90BF90AF909F908F907F906F900B
:102D10005F904F9008956BE7C8010E949714F701E8
:102D2000E080F180E114F10441F1F701A680B78061
:102D300062E2C8010E9497146501F60161916F017A
:102D4000662321F0C8010E945215F7CF62E2C80144
:102D50000E9497146AE3C8010E949714B801C70142
:102D60000E947215C7010E949C0C7C01892B29F0DE
:102D70006CE2C8010E949714D5CF6DE7AFCF62E235
:102D8000C8010E9497147501CE0CDF1CCE14DF041D
:102D900039F0F70161917F01C8010E945215F6CF09
:102DA00062E29CCFC080D180E280F380B701A601AF
:102DB000F7FE0BC06DE2C8010E9497144427552707
:102DC000BA014C195D096E097F09C8010E94FC1403
:102DD00088CF4081518162817381F7CF80816AED14
:102DE00072E0811102C06FED72E0C8010E944815C7
:102DF00078CFEF92FF920F931F93CF93DF93EC0165
:102E00007B018A01BA010E940F1481110BC0CE010F
:102E10000E94B810CE01DF91CF911F910F91FF90CA
:102E2000EF9008951D830C83B701888199810E94DA
:102E30007029F0CFEF92FF920F931F93CF93DF9300
:102E4000CDB7DEB762970FB6F894DEBF0FBECDBF29
:102E50008C01CB01F801118210821382128215823B
:102E600014824AE09E012F5F3F4F7901B9010E9411
:102E70000125F70101900020E9F73197AF014E19C4
:102E80005F09B701C8010E94F91662960FB6F8945F
:102E9000DEBF0FBECDBFDF91CF911F910F91FF908D
:102EA000EF900895CF93DF93EC016115710571F0F8
:102EB000FB0101900020E9F73197AF01461B570B4A
:102EC0000E94F916CE01DF91CF9108950E94B810AB
:102ED000F9CF0F931F93CF93DF93CDB7DEB7C65BC8
:102EE000D1090FB6F894DEBF0FBECDBF8C01CB0168
:102EF0000115110509F45AC0F80124812F772430F7
:102F000009F44AC0253009F447C0CD56DF4F9983F4
:102F10008883C359D040CB54DF4F19821882C55BD8
:102F2000D04084E2FE01ED56FF4FDE01A159BF4FB4
:102F300001900D928A95E1F784E2FE01E159FF4F7D
:102F4000DE01A55BBF4F01900D928A95E1F784E207
:102F5000FE01E55BFF4FDE01979601900D928A9589
:102F6000E1F784E2FE01B796DE01119601900D9221
:102F70008A95E1F71EA21DA2CE0187960E947614C3
:102F8000CE01855B9F4F0E947614BE016F5F7F4F1D
:102F9000C8010E94721550C0F801608171816115ED
:102FA000710509F4B2CF0E94521754C0CD56DF4FBD
:102FB00079836883C359D040CB54DF4F198218827C
:102FC000C55BD04084E2FE01ED56FF4FDE01A15902
:102FD000BF4F01900D928A95E1F784E2FE01E1591D
:102FE000FF4FDE01A55BBF4F01900D928A95E1F77F
:102FF00084E2FE01E55BFF4FDE01979601900D92A2
:103000008A95E1F784E2FE01B796DE011196019000
:103010000D928A95E1F71EA21DA2CE0187960E940D
:103020007614CE01855B9F4F0E94761465ED72E0A9
:10303000CE0101960E944815CE0101960E94761499
:10304000CE0181599F4F0E947614CE018D569F4F1D
:103050000E947614CA54DF4F0FB6F894DEBF0FBE3D
:10306000CDBFDF91CF911F910F910895CF93DF9343
:10307000EC01FB018617970749F0608171816115AA
:10308000710541F0448155810E94F916CE01DF910E
:10309000CF9108950E94B810F9CFFC0111821082DF
:1030A00013821282158214820C943618AF92BF924A
:1030B000CF92DF92EF92FF920F931F93CF93DF9304
:1030C000CDB7DEB7C051D2400FB6F894DEBF0FBE09
:1030D000CDBF5B01CE0101967C010E943C0AB50187
:1030E000CE01855F9D4F0E944D188E010D5F1D4FD3
:1030F000F801E192F1928F01BE01655F7D4FCF0132
:103100000E944D18CE01855F9D4F0E94CA10CD5F71
:10311000DD4FC880D980C350D240CB5FDD4F48819E
:103120005981C550D240C75FDD4F68817981C95050
:10313000D2409601C60109960E940711AC01B60162
:10314000C50106960E94C90AC8010E94CA106DE80E
:1031500075E0C7010E9453136BEC72E08DE895E0B7
:103160000E94DF106AE070E080E090E00E942F058E
:1031700081E0C05FDD4F0FB6F894DEBF0FBECDBF5C
:10318000DF91CF911F910F91FF90EF90DF90CF9043
:10319000BF90AF900895AF92BF92CF92DF92EF921F
:1031A000FF920F931F93CF93DF93CDB7DEB7C0513C
:1031B000D2400FB6F894DEBF0FBECDBF5B01CE018B
:1031C00001967C010E943C0AB501CE01855F9D4FAE
:1031D0000E944D188E010D5F1D4FF801E192F19292
:1031E0008F01BE01655F7D4FCF010E944D18CE015A
:1031F000855F9D4F0E94CA10CD5FDD4FC880D9808A
:10320000C350D240CB5FDD4F48815981C550D24079
:10321000C75FDD4F68817981C950D2409601C601F0
:1032200009960E940711AC01B601C50106960E94DD
:10323000C90AC8010E94CA1060EF74E0C7010E9469
:1032400053136BEC72E080EF94E00E94DF106AE0B1
:1032500070E080E090E00E942F0581E0C05FDD4FCC
:103260000FB6F894DEBF0FBECDBFDF91CF911F9197
:103270000F91FF90EF90DF90CF90BF90AF900895A7
:103280000F931F93CF93DF93EC018A010E944D1897
:10329000B801CE010696DF91CF911F910F910C944A
:1032A0004D18FC0111821082138212821582148241
:1032B0006115710551F0FB0101900020E9F731978C
:1032C000AF01461B570B0C94F91608952F923F92AD
:1032D0004F925F926F927F928F929F92AF92BF9226
:1032E000CF92DF92EF92FF920F931F93CF93DF93D2
:1032F00000D000D01F921F92CDB7DEB72C011B016A
:10330000E0902E06F0902F0680912C0690912D06CD
:103310008E159F050CF47DC088E2E816F1040CF0D0
:1033200078C0EE0CFF1C99E2E916F1041CF058E29B
:10333000E52EF12C67018FEF9FEFE114E0E1FE062F
:1033400038F4C70143E0880F991F4A95E1F70296C8
:103350000E9453274C01F401E192F1923F018F0149
:10336000F1E0CF1AD108D7FE25C06401B12CA12C01
:1033700000912A0610912B0680912C0690912D0623
:10338000A816B906FCF4C60188199909080F191F77
:10339000B801C60102960E943618F801868197810D
:1033A000F60191878087FFEFAF1ABF0A88E0C80E49
:1033B000D11CDECF6AEC72E0C8010E945119085F8F
:1033C0001F4FCECF01151105E1F0F8013297808132
:1033D000918133E0880F991F3A95E1F7080F191F83
:1033E000980180912A0690912B06085011098217A6
:1033F000930721F0C8010E94CA10F2CF02970E94E1
:10340000EF2770922B0660922A06F0922F06E09228
:103410002E0620912C0630912D0680912E0690913B
:103420002F062817390774F5B201FE0131967F0186
:10343000CF010E944D1838862F8200912A061091E4
:103440002B0680912C0690912D069C012F5F3F4FFB
:1034500030932D0620932C0623E0880F991F2A9580
:10346000E1F7080F191FE016F10621F0B701C801B6
:103470000E94D6138F819885F80197838683C701B0
:103480000E94CA1028960FB6F894DEBF0FBECDBFBB
:10349000DF91CF911F910F91FF90EF90DF90CF9030
:1034A000BF90AF909F908F907F906F905F904F9064
:1034B0003F902F900895EF92FF920F931F93CF9319
:1034C000DF931F921F92CDB7DEB78C017B016AECB0
:1034D00072E00E945119C7010E94D10597FD0BC0EF
:1034E00089831A8241E050E0BE016F5F7F4FC801BF
:1034F0000E943714F0CFC8010F900F90DF91CF9149
:103500001F910F91FF90EF9008958F929F92AF922D
:10351000BF92EF92FF920F931F93CF93DF93CDB79C
:10352000DEB7CC51D2400FB6F894DEBF0FBECDBF90
:103530007C016AEC72E0CE018D5F9D4F0E945119B3
:103540006AEC72E0CE0101960E945119AE014D5F06
:103550005D4FBE016F5F7F4FC7010E944019CE01D2
:1035600001960E94CA10CE018D5F9D4F0E94CA1025
:10357000CE0101960E943C0A6AEC72E0CE018E5E9A
:103580009D4F0E9451198DE895E00E940906892BF4
:1035900031F16DE875E0CE018D5F9D4F0E945B1AA1
:1035A000BE016D5F7D4FCE018E5E9D4F0E94D61392
:1035B000CE018D5F9D4F0E94CA104AE0BE016E5E33
:1035C0007D4FCE0101960E9432108C01892BF9F4B7
:1035D000CE0101960E94300AFB01309751F5CE01D1
:1035E0008E5E9D4F0E94CA10C701C45EDD4F0FB6AC
:1035F000F894DEBF0FBECDBFDF91CF911F910F9129
:10360000FF90EF90BF90AF909F908F90089565EEE0
:1036100072E08DE895E00E94DF10000F111FF801A5
:10362000E85DFD4F608171818DE895E00E94EE10AC
:10363000D6CF408151814115510589F2BC01CE019F
:103640008D5F9D4F0E946A1385E0FE01ED5FFD4F87
:10365000DE01A85EBD4F01900D928A95E1F7C85E2C
:10366000DD4F68817981C851D240C7010E9452174D
:10367000C85FDD4F88809980AA80BB80C850D24047
:103680006AEC72E0CE01845F9D4F0E945119BE0129
:10369000645F7D4FC4010E946917BE01645F7D4F66
:1036A000C70106960E94D613CE01845F9D4F0E94EB
:1036B000CA1095CF8F929F92AF92BF92EF92FF92D6
:1036C0000F931F93CF93DF93CDB7DEB7CC51D2408A
:1036D0000FB6F894DEBF0FBECDBF7C016AEC72E07E
:1036E000CE018D5F9D4F0E9451196AEC72E0CE01B0
:1036F00001960E945119AE014D5F5D4FBE016F5F93
:103700007F4FC7010E944019CE0101960E94CA1046
:10371000CE018D5F9D4F0E94CA10CE0101960E947E
:103720003C0A6AEC72E0CE018E5E9D4F0E945119F8
:1037300080EF94E00E940906892B31F160EF74E07C
:10374000CE018D5F9D4F0E945B1ABE016D5F7D4F64
:10375000CE018E5E9D4F0E94D613CE018D5F9D4F90
:103760000E94CA104AE0BE016E5E7D4FCE010196F6
:103770000E9432108C01892BF9F4CE0101960E942F
:10378000300AFB01309751F5CE018E5E9D4F0E94AD
:10379000CA10C701C45EDD4F0FB6F894DEBF0FBE7E
:1037A000CDBFDF91CF911F910F91FF90EF90BF9010
:1037B000AF909F908F90089565EE72E080EF94E057
:1037C0000E94DF10000F111FF801E85DFD4F6081BE
:1037D000718180EF94E00E94EE10D6CF408151813C
:1037E0004115510589F2BC01CE018D5F9D4F0E94AC
:1037F0006A1385E0FE01ED5FFD4FDE01A85EBD4F5F
:1038000001900D928A95E1F7C85EDD4F688179815C
:10381000C851D240C7010E945217C85FDD4F88804F
:103820009980AA80BB80C850D2406AEC72E0CE0179
:10383000845F9D4F0E945119BE01645F7D4FC4019A
:103840000E946917BE01645F7D4FC70106960E9402
:10385000D613CE01845F9D4F0E94CA1095CF1F9250
:103860000F920FB60F9211240BB60F922F933F9326
:103870004F935F936F937F938F939F93AF93BF9378
:10388000EF93FF938091B900887F803609F44DC093
:1038900008F040C0883209F4A9C028F5803109F445
:1038A0009DC0C8F4882309F4FBC0883009F496C091
:1038B000FF91EF91BF91AF919F918F917F916F9108
:1038C0005F914F913F912F910F900BBE0F900FBEC4
:1038D0000F901F901895883109F488C0803241F705
:1038E0008093BD0414C0803409F49DC040F480333B
:1038F000B9F38833E9F68093BD0485ECB0C0803518
:1039000009F485C0883509F496C0883489F60E9488
:103910009C13CECF883909F48CC038F5883729F04C
:1039200050F4883611F0803719F683E08093BE0496
:103930001092BC0457C0883809F47BC0803919F054
:10394000803809F0B5CF8091BC04803208F071C096
:10395000E091BC0481E08E0F8093BC048091BB0099
:10396000F0E0E456FB4F80833DC0803B39F0E0F44B
:10397000803A09F479C0883A09F09ACF84E08093BC
:10398000BE041092990410929804E0919604F0916C
:10399000970419958091980481110FC081E080935C
:1039A00098041092760409C0803C09F4A6CF883CA4
:1039B00009F4A3CF883B09F07BCFE091990481E023
:1039C0008E0F80939904F0E0EA58FB4F808180933A
:1039D000BB00909199048091980429C08091E304E0
:1039E0008093BB0085EC8093BC0062CF9091E20491
:1039F0008091E104981758F5E091E20481E08E0F80
:103A00008093E204F0E0EF53FB4F8081E9CFE09137
:103A1000E20481E08E0F8093E2048091BB00F0E02D
:103A2000EF53FB4F80839091E2048091E10498175B
:103A3000C8F285E8D8CFE091E20481E08E0F809350
:103A4000E2048091BB00F0E0EF53FB4F8083809154
:103A5000C00481115CCF81E08093BF0484EA80932D
:103A6000BC001092BE0424CF85EC8093BC00109261
:103A7000BE048091BC04803230F4E091BC04F0E0DC
:103A8000E456FB4F10826091BC0470E0E0919A0410
:103A9000F0919B048CE994E019951092BC0408CF36
:103AA0001092BD0434CF1F920F920FB60F921124C3
:103AB0002F933F938F939F93AF93BF938091230452
:103AC00090912404A0912504B09126043091220401
:103AD00023E0230F2D3758F50196A11DB11D20932A
:103AE00022048093230490932404A0932504B0938C
:103AF00026048091270490912804A0912904B09174
:103B00002A040196A11DB11D8093270490932804D7
:103B1000A0932904B0932A04BF91AF919F918F91F4
:103B20003F912F910F900FBE0F901F90189526E890
:103B3000230F0296A11DB11DD2CF1F920F920FB677
:103B40000F9211240BB60F922F933F934F935F93D5
:103B50006F937F938F939F93AF93BF93EF93FF9355
:103B600080EF94E00E942906FF91EF91BF91AF9101
:103B70009F918F917F916F915F914F913F912F9185
:103B80000F900BBE0F900FBE0F901F9018951F92B5
:103B90000F920FB60F9211240BB60F922F938F93A3
:103BA0009F93EF93FF93E0910005F09101058081D1
:103BB000E0910605F091070582FD1DC0908180917E
:103BC00009058F5F8F7320910A05821741F0E091FC
:103BD0000905F0E0E051FB4F958F80930905FF91B7
:103BE000EF919F918F912F910F900BBE0F900FBE71
:103BF0000F901F9018958081F2CF1F920F920FB6F1
:103C00000F9211240BB60F922F933F934F935F9314
:103C10006F937F938F939F93AF93BF93EF93FF9394
:103C20008DE895E00E942906FF91EF91BF91AF9139
:103C30009F918F917F916F915F914F913F912F91C4
:103C40000F900BBE0F900FBE0F901F9018951F92F4
:103C50000F920FB60F9211240BB60F922F938F93E2
:103C60009F93EF93FF93E0919D05F0919E058081D6
:103C7000E091A305F091A40582FD1DC09081809183
:103C8000A6058F5F8F732091A705821741F0E09101
:103C9000A605F0E0E357FA4F958F8093A605FF91B4
:103CA000EF919F918F912F910F900BBE0F900FBEB0
:103CB0000F901F9018958081F2CFEF92FF920F9393
:103CC0001F93CF93DF931092E7041092E60488EEDF
:103CD00093E0A0E0B0E08093E8049093E904A0931F
:103CE000EA04B093EB042CE532E03093E504209332
:103CF000E4041092F3041092F2048093F40490937D
:103D0000F504A093F604B093F7042EE632E0309366
:103D1000F1042093F0044DEC50E05093FD044093E7
:103D2000FC044CEC50E05093FF044093FE0448EC3C
:103D300050E0509301054093000549EC50E050934A
:103D40000305409302054AEC50E05093050540936B
:103D500004054EEC50E05093070540930605109281
:103D6000090510920A0510920B0510920C0510928D
:103D7000900510928F058093910590939205A093E2
:103D80009305B093940530938E0520938D0585ECB3
:103D900090E090939A058093990584EC90E090933D
:103DA0009C0580939B0580EC90E090939E0580930A
:103DB0009D0581EC90E09093A00580939F0582EC97
:103DC00090E09093A2058093A10586EC90E09093FB
:103DD000A4058093A3051092A6051092A705109242
:103DE000A8051092A90580E1EEE0F2E0A8E3B6E0B4
:103DF00001900D928A95E1F78AE0EEE1F2E0A8E405
:103E0000B6E001900D928A95E1F70E9461056093FA
:103E10005C0670935D0680935E0690935F06109239
:103E2000600610926106109262061092630610926C
:103E3000640610926506109266061092670681E08D
:103E400080936806CEE9D2E008E316E07801888125
:103E500022960E946C03F701819391937F01F2E017
:103E6000CE3ADF07A1F7C4E9D2E0888122960E940A
:103E7000D404F801819391938F01F2E0CE39DF07EA
:103E8000A1F70E94F1048CE892E0909337068093AA
:103E9000360640E052EC61E070E08DE895E00E946B
:103EA000D70180E892E0909331068093300682E15A
:103EB00090E0909333068093320683E190E09093F4
:103EC00035068093340640E052EC61E070E080EF0C
:103ED00094E00E94D70110922D0610922C0605E066
:103EE00010E010932F0600932E068AE290E00E94C5
:103EF0005327EC01099319938E017C012AE2E20E0B
:103F0000F11C6AEC72E0C8010E945119085F1F4F52
:103F1000E016F106B1F7D0932B06C0932A06109253
:103F20006C0610926B0682EB92E090936A06809387
:103F300069061092720687E280936D0680E1809395
:103F4000730682E08093740610927506DF91CF911C
:103F50001F910F91FF90EF900895CF93DF93CDB70E
:103F6000DEB7E0970FB6F894DEBF0FBECDBF7894F2
:103F700084B5826084BD84B5816084BD85B582606E
:103F800085BD85B5816085BD80916E00816080931F
:103F90006E00109281008091810082608093810088
:103FA0008091810081608093810080918000816098
:103FB000809380008091B10084608093B1008091F3
:103FC000B00081608093B000809191008260809306
:103FD0009100809191008160809391008091900088
:103FE0008160809390008091A10082608093A10005
:103FF0008091A10081608093A1008091A0008160E8
:104000008093A000809121018260809321018091A2
:104010002101816080932101809120018160809342
:10402000200180917A00846080937A0080917A00E8
:10403000826080937A0080917A00816080937A0018
:1040400080917A00806880937A001092C10082E2A9
:104050000E94370284E20E9437028BE20E943702FC
:104060008CE20E9437028EE20E94370280E30E94B7
:10407000370282E30E94370284E30E9437028DE216
:104080000E9437028FE20E94370281E30E943702CA
:1040900083E30E94370285E30E94370240E052EC3E
:1040A00061E070E08DE895E00E94D70140E052ECBD
:1040B00061E070E080EF94E00E94D70160ED77E06E
:1040C00080E090E00E942F050E94F10410922104EC
:1040D0001092200410926D0410926C0410926F04E0
:1040E00010926E040E94C3038DE792E090939704B0
:1040F000809396048EE792E090939B0480939A04B9
:1041000010926E0680917406823018F098E09093B9
:104110006E068093710662E370E080E090E00E949A
:104120002F056091750689E696E00E94E50668EE27
:1041300073E080E090E00E942F0560E389E696E05E
:104140000E94AA0C7BE4E72E76E4F72EC7010197C4
:10415000F1F760E389E696E00E94AA0CC701019797
:10416000F1F760E389E696E00E94AA0C83E592E00D
:104170000197F1F760E289E696E00E94AA0C60914F
:104180006E06606240E089E696E00E94C30C84E01F
:1041900080936F0640E06CE089E696E00E94C30CD5
:1041A0000E94090D82E08093700640E066E089E697
:1041B00096E00E94C30C40E062E089E696E00E942F
:1041C000C30C8BE39FE10197F1F788E080937506BC
:1041D00060E089E696E00E94E5060E94090D80E015
:1041E0000E94DA0C63E073E089E696E00E94DF103B
:1041F0008091200490912104009709F02AC266E979
:1042000070E08CE20E94020470E060E08EE20E94A6
:10421000020406E316E080E190E00E9453273C018F
:104220006EE9E62E62E0F62E9AA789A76C0120E1DE
:10423000C20ED11C2C01D7018C91B2E0EB0EF11C07
:104240000E946C03F201819391932F01EC15FD05FF
:1042500091F78AE090E00E9453277C0154E9A52E53
:1042600052E0B52E98AB8FA74C01FAE08F0E911C4F
:104270006C01D5018C91B2E0AB0EB11C0E94D4044C
:10428000F601819391936F01E815F90591F70E946A
:104290006105AB01BC0180915C0690915D06A09127
:1042A0005E06B0915F068C599F4FAF4FBF4F84178A
:1042B0009507A607B70708F08FC10E9461056093B4
:1042C0005C0670935D0680935E0690935F0638E30C
:1042D000232E36E0332E44E3842E42E0942E3CA677
:1042E0002BA6ABA5BCA58D919D91BCA7ABA7E9A5BD
:1042F000FAA5C190D190FAA7E9A78C159D05F1F117
:10430000D801ED91FC91248135813EA72DA7D401E0
:10431000AD90BC9069E273E0009729F0019709F035
:10432000B8C16DE273E0CE0147960E945119B50104
:10433000CE010D960E945119AE01495E5F4FBE013C
:10434000635F7F4FCE0101960E944019BE016F5FEF
:104350007F4FC801EDA5FEA51995CE0101960E94DB
:10436000D210CE010D960E94CA10CE0147960E942F
:10437000CA10EBA5FCA53297D182C082F2E08F0E65
:10438000911C29A53AA52415350509F0AACF1DA62B
:1043900019A6512C412C8091520690915306D701B9
:1043A0002D913C911197AC014F5C5F4F4217530721
:1043B000C4F0C19728173907A4F080915406909152
:1043C000550612962D913C91AC014F5C5F4F421700
:1043D00053073CF0C197281739071CF0B1E0B093A0
:1043E0006806F10180899189AFA5B8A9CD90DD90CB
:1043F000B8ABAFA796012A563F4F2817390734F0BC
:104400002C523140821793070CF06DC0F101828D60
:10441000938D9C012A563F4F2C153D0534F086594B
:104420009109C816D9060CF05EC0F9A5F1115BC060
:10443000209168062BA7222309F455C032E04316C9
:1044400051040CF050C08090640690906506A090D6
:104450006606B090670684EF880E81E0981EA11C66
:10446000B11C0E946105681579058A059B05D8F184
:10447000D801ED91FC91A480B58062E573E0CE0196
:1044800047960E94511966E573E0CE010D960E9491
:104490005119AE01495E5F4FBE01635F7F4FCE0190
:1044A00001960E944019BE016F5F7F4FC801F50160
:1044B0001995CE0101960E94D210CE010D960E9450
:1044C000CA10CE0147960E94CA10109268060E9438
:1044D0006105609364067093650680936606909309
:1044E0006706FBA5F9A7D10150962D913C915197F4
:1044F0005A968D919C91AC014E5C5F4F42175307C9
:104500002CF0C297281739070CF056C0BDA5B11181
:1045100053C0E2E04E1651040CF44EC08090600689
:1045200090906106A0906206B0906306F4EF8F0E43
:10453000F1E09F1EA11CB11C0E9461056815790560
:104540008A059B05C8F1D801ED91FC91A480B58046
:1045500062E573E0CE0147960E9451196DE573E064
:10456000CE010D960E945119AE01495E5F4FBE010A
:10457000635F7F4FCE0101960E944019BE016F5FBD
:104580007F4FC801F5011995CE0101960E94D21006
:10459000CE010D960E94CA10CE0147960E94CA1005
:1045A0000E946105609360067093610680936206C5
:1045B00090936306F1E0FDA7D1015196DC92CE9273
:1045C0005097BFEF4B1A5B0AE2E02E0E311CF5E06C
:1045D0004F16510409F0DFCE6114710419F0C301C4
:1045E0000E94EF27E114F10419F0C7010E94EF27A0
:1045F000D801ED91FC910680F781E02DB801CE0144
:104600000196199561E673E0CE0101960E9499101A
:10461000882309F475C0BE01695F7F4FCE010D96F6
:104620000E944D180E94090D81E00E94DA0C498910
:104630005A896D857E8589E696E00E94810566E946
:1046400070E080E30E940204CE010D960E94CA1021
:1046500098C0019769F466E970E08EE20E94020456
:1046600070E060E08CE20E94020400E316E0D3CD2B
:1046700064E173E0CE0101960E94511961E070E09F
:10468000CE0101960E946619CE0101960E94CA10C1
:10469000C2CD61E373E0CE0147960E945119B50186
:1046A000CE010D960E945119AE01495E5F4FBE01C9
:1046B000635F7F4FCE0101960E944019BE016F5F7C
:1046C0007F4FC801EDA5FEA51995CE0101960E9468
:1046D000D210CE010D960E94CA10CE0147960E94BC
:1046E000CA1065E373E0CE0101960E94511962E0A1
:1046F00070E0CE0101960E946619CE01019637CE78
:1047000065E673E0CE0101960E949910882309F4B2
:1047100089C06E01BDE0CB0ED11C5601F12CE12CFD
:1047200077247394B701CE0107960E946D05FC01B2
:104730008081813369F5D5017C92FFEFEF1AFF0A82
:104740002FEFA21AB20A3AE0E316F10459F794E403
:10475000A92E92E0B92E76018AE0E80EF11C26E936
:10476000922ED6016D916D01F5018081F2E0AF0EC0
:10477000B11C969EB00111240E940204EC14FD04A9
:1047800081F7CE0101960E94D2100E94B80630CD6A
:10479000B701CE0107960E946D05FC018081803330
:1047A00019F4D5011C92C9CFB701CE014D960E94D4
:1047B0001A1768E673E0CE0147960E945119BE01B0
:1047C000695F7F4FCE0147960E9463144C0149E018
:1047D00050E069E773E00E943714811103C0C401FF
:1047E0000E94B810BE01635E7F4FC4010E94631433
:1047F000BC01CE0183960E944D1863E070E0CE01AB
:1048000083960E946619CE0183960E94CA10CE013B
:1048100047960E94CA10CE014D960E94CA10F5011B
:1048200010828BCF63E873E0CE0101960E9499104D
:10483000882309F470C06E0123E2C20ED11CF12C52
:10484000E12C99249394B701CE0107960E946D053F
:10485000DC018C918133A9F4F6019082BFEFCB1A71
:10486000DB0AEA94EF2821F0EE24E394F12CEBCF5D
:104870006BA18BE20E9495036CA182E20E949503DA
:1048800080CFB701CE0107960E946D05DC018C91A7
:10489000803319F4F6011082E1CFB701CE014796BB
:1048A0000E941A1768E673E0CE010D960E94511916
:1048B000BE01695F7F4FCE010D960E9463145C01BB
:1048C0004AE050E067E873E00E943714811103C0AA
:1048D000C5010E94B810BE01695E7F4FC5010E94EC
:1048E0006314BC01CE014D960E944D1863E070E048
:1048F000CE014D960E946619CE014D960E94CA10B7
:10490000CE010D960E94CA10CE0147960E94CA1091
:10491000D6011C92A3CF62E973E0CE0101960E94FA
:104920009910882321F1BE01695F7F4FCE010D965A
:104930000E944D1866E973E0CE010D960E94991011
:10494000882329F010922104109220047DCE6EE974
:1049500073E0CE010D960E949910882309F474CE5D
:1049600081E090E090932104809320046DCE68EA6A
:1049700073E0CE010D960E945119BE01695F7F4F11
:10498000CE010D960E946314BC01CE0147960E9491
:104990004D1863E070E0CE0147960E946619CE0183
:1049A00047960E94CA10CE010D960E94CA10E9CE09
:1049B000CF93DF93C0912A06D0912B062097D9F090
:1049C000FE0132978081918123E0880F991F2A95FB
:1049D000E1F7C80FD91F9E0180912A0690912B06FE
:1049E00028978217930721F0CE010E94CA10F3CFB7
:1049F00002970E94EF2780E396E0DF91CF910C941D
:104A0000070BBB274A3031F4992322F4BDE290957D
:104A100081959F4F0C940D25BB27FB015527AA2795
:104A2000880F991FAA1FA41710F0A41B839550513B
:104A3000B9F7A05DAA3308F0A95DA193009779F7B3
:104A4000B111B1931192CB010C942625DC01FC012C
:104A5000672F71917723E1F7329704C07C916D93B2
:104A600070836291AE17BF07C8F308950E9478253E
:104A700008F481E00895E89409C097FB3EF490950E
:104A80008095709561957F4F8F4F9F4F9923A9F027
:104A9000F92F96E9BB279395F695879577956795B6
:104AA000B795F111F8CFFAF4BB0F11F460FF1BC0FA
:104AB0006F5F7F4F8F4F9F4F16C0882311F096E98D
:104AC00011C0772321F09EE8872F762F05C066233B
:104AD00071F096E8862F70E060E02AF09A95660FF4
:104AE000771F881FDAF7880F9695879597F90895AD
:104AF000990F0008550FAA0BE0E8FEEF16161706EF
:104B0000E807F907C0F012161306E407F50798F056
:104B1000621B730B840B950B39F40A2661F0232B6F
:104B2000242B252B21F408950A2609F4A140A695EB
:104B30008FEF811D811D08950E94AF250C942026C2
:104B40000E94122638F00E94192620F0952311F0B9
:104B50000C9409260C940F2611240C9454260E94C0
:104B6000312670F3959FC1F3950F50E0551F629F5A
:104B7000F001729FBB27F00DB11D639FAA27F00DB6
:104B8000B11DAA1F649F6627B00DA11D661F829FDD
:104B90002227B00DA11D621F739FB00DA11D621FC2
:104BA000839FA00D611D221F749F3327A00D611DDF
:104BB000231F849F600D211D822F762F6A2F1124C1
:104BC0009F5750409AF0F1F088234AF0EE0FFF1FF4
:104BD000BB1F661F771F881F91505040A9F79E3F4B
:104BE000510580F00C9409260C9454265F3FE4F3A1
:104BF000983ED4F3869577956795B795F795E795A1
:104C00009F5FC1F7FE2B880F911D9695879597F9A9
:104C1000089597F99F6780E870E060E008959FEF3E
:104C200080EC089500240A94161617061806090643
:104C3000089500240A941216130614060506089512
:104C4000092E0394000C11F4882352F0BB0F40F49A
:104C5000BF2B11F460FF04C06F5F7F4F8F4F9F4FDA
:104C6000089557FD9058440F551F59F05F3F71F05C
:104C70004795880F97FB991F61F09F3F79F08795C3
:104C80000895121613061406551FF2CF4695F1DF4C
:104C900008C0161617061806991FF1CF86957105DC
:104CA000610508940895E894BB2766277727CB0110
:104CB00097F908950E946526A59F900DB49F900DC9
:104CC000A49F800D911D11240895A29FB001B39F50
:104CD000C001A39F700D811D1124911DB29F700D05
:104CE000811D1124911D0895AA1BBB1B51E107C012
:104CF000AA1FBB1FA617B70710F0A61BB70B881F6C
:104D0000991F5A95A9F780959095BC01CD010895FA
:104D1000A1E21A2EAA1BBB1BFD010DC0AA1FBB1FBF
:104D2000EE1FFF1FA217B307E407F50720F0A21B31
:104D3000B30BE40BF50B661F771F881F991F1A949E
:104D400069F760957095809590959B01AC01BD01C8
:104D5000CF010895EE0FFF1F881F8BBF0790F691BC
:104D6000E02D19945058BB27AA270E94CA260C94FC
:104D700020260E94122638F00E94192620F039F4CD
:104D80009F3F19F426F40C940F260EF4E095E7FBF0
:104D90000C940926E92F0E94312658F3BA176207AE
:104DA00073078407950720F079F4A6F50C94532631
:104DB0000EF4E0950B2EBA2FA02D0B01B901900136
:104DC0000C01CA01A0011124FF27591B99F0593F7A
:104DD00050F4503E68F11A16F040A22F232F342FC2
:104DE0004427585FF3CF469537952795A795F04010
:104DF0005395C9F77EF41F16BA0B620B730B840B25
:104E0000BAF09150A1F0FF0FBB1F661F771F881FDC
:104E1000C2F70EC0BA0F621F731F841F48F4879534
:104E200077956795B795F7959E3F08F0B0CF939526
:104E3000880F08F09927EE0F9795879508950E949F
:104E4000392688F09F5798F0B92F9927B751B0F0BD
:104E5000E1F0660F771F881F991F1AF0BA95C9F7FE
:104E600014C0B13091F00E945326B1E008950C9423
:104E70005326672F782F8827B85F39F0B93FCCF3D6
:104E8000869577956795B395D9F73EF4909580957B
:104E9000709561957F4F8F4F9F4F08950E947825A1
:104EA00008F48FEF08950F931F93CF93DF93823011
:104EB000910510F482E090E0E0917806F091790697
:104EC00030E020E0B0E0A0E0309799F42115310502
:104ED00009F44AC0281B390B24303105D8F58A81E2
:104EE0009B816115710589F1FB0193838283FE012A
:104EF00011C0408151810281138148175907E0F0A8
:104F00004817590799F4109761F012960C9312976D
:104F100013961C933296CF01DF91CF911F910F9181
:104F200008950093780610937906F4CF2115310582
:104F300051F04217530738F0A901DB019A01BD0176
:104F4000DF01F801C1CFEF01F9CF9093790680938B
:104F50007806CDCFFE01E20FF31F8193919322508B
:104F6000310939832883D7CF20917606309177068F
:104F7000232B41F4209102023091030230937706F3
:104F8000209376062091000230910102211531050F
:104F900041F42DB73EB74091040250910502241B05
:104FA000350BE0917606F0917706E217F307A0F44F
:104FB0002E1B3F0B2817390778F0AC014E5F5F4F6F
:104FC0002417350748F04E0F5F1F50937706409324
:104FD0007606819391939FCFF0E0E0E09CCFCF9352
:104FE000DF930097E9F0FC01329713821282A091BF
:104FF0007806B0917906ED0130E020E01097A1F439
:1050000020813181820F931F20917606309177069F
:105010002817390709F061C0F0937706E093760608
:10502000DF91CF910895EA01CE17DF07E8F54A81B5
:105030005B819E0141155105B1F7E901FB83EA83CC
:1050400049915991C40FD51FEC17FD0761F4808178
:1050500091810296840F951FE9019983888382814B
:1050600093819B838A83F0E0E0E012968D919C917E
:1050700013970097B9F52D913C911197CD010296A8
:10508000820F931F209176063091770628173907F3
:1050900039F6309751F51092790610927806B09350
:1050A0007706A0937606BCCFD383C283408151811B
:1050B000840F951FC817D90761F44E5F5F4F888131
:1050C0009981480F591F518340838A819B81938323
:1050D00082832115310509F0B0CFF0937906E09372
:1050E00078069ECFFD01DC01C0CF13821282D7CF9C
:1050F0004F925F926F927F928F929F92AF92BF92E8
:10510000CF92DF92EF92FF920F931F93CF93DF9393
:105110008C01009799F4CB01DF91CF911F910F91F2
:10512000FF90EF90DF90CF90BF90AF909F908F90C7
:105130007F906F905F904F900C945327FC01E60F87
:10514000F71F9C0122503109E217F30708F4AEC0A3
:10515000D901CD91DC911197C617D70720F1C53041
:10516000D10578F0CE0104978617970750F0C61B3B
:10517000D70B2297C193D1936D937C93CF010E945B
:10518000EF27C801DF91CF911F910F91FF90EF9012
:10519000DF90CF90BF90AF909F908F907F906F9057
:1051A0005F904F9008955B01AC1ABD0A4C018C0EC4
:1051B0009D1EA0917806B0917906512C412CF12CBE
:1051C000E12C109731F5809176069091770688153D
:1051D000990509F05CC04616570608F058C0809142
:1051E000000290910102009741F48DB79EB7409163
:1051F000040250910502841B950BE817F90708F08B
:1052000055C0F0937706E0937606F90171836083C9
:10521000B8CF8D919C91119712966C90129713961E
:105220007C901397A815B90559F56C0142E0C40E9E
:10523000D11CCA14DB0420F1AC014A195B09DA0164
:105240001296159780F06282738251834083D90150
:105250006D937C93E114F10471F0D7011396FC93E4
:10526000EE9312978ECF22968C0F9D1FF90191839A
:105270008083F301EFCFF0937906E093780681CF36
:105280004816590608F42C017D01D3019ACFCB01B1
:105290000E9453277C01009749F0AE01B8010E949B
:1052A0005E29C8010E94EF2787016BCF10E000E064
:1052B00068CF81E090E0F8940C947729FB01DC0141
:1052C00002C001900D9241505040D8F70895FB0163
:1052D000DC018D91019080190110D9F3990B08958B
:1052E000FB01DC0101900D920020E1F7089511E02F
:1052F000C3EAD1E000E006C0802FFE010E94AA268A
:105300002196011DC43AD10780E00807A9F7F89457
:02531000FFCFCD
:1053120000007A06800000004000140054000300E0
:105322000300030003000300030003000300030063
:105332000300030003000300B503B803C303D30350
:10534200E003E903F103F503F903FD030104050496
:105352000D0415042C002E003000320034002D0004
:105362002F0031003300350000000000D602A902F0
:10537200CC077F02A2028F028002000000004B06CF
:105382008105AE0598060906BD05FB050000000073
:10539200070BAE10CB185A1B00000000CF07DD1020
:1053A2005618851A000001000300040005000C00D5
:1053B2000B000A00090008000700060005000000B3
:1053C20000001B0D8105CC077F052F2F22225C5C7C
:1053D2006208660C6E0A720D7409000D0A005C7593
:1053E20030303030006E756C6C007472756500661A
:1053F200616C736500E29D8C204572726575722046
:1054020064652070617273696E67204A534F4E2043
:105412003A200053657420757020636F6D706C655F
:10542200746564004572726575722053656C6563BC
:1054320074696F6E20636F6D0052656C004170700D
:10544200004572720045727265757220457461740E
:1054520020426F75746F6E7320696E76616C696439
:1054620065004D7664004A537469636B004163635F
:10547200004C4344006247004D65737361676520C9
:10548200696E76616C69646500424720696E646585
:105492007820006D6F74004D6F7420696E646578BA
:1054A2002000434F4D0046494C4149524500424C71
:1054B2005545544F4F544800436C6520696E7661E0
:1054C2006C696465004F6B00456D707479496E704C
:1054D200757400496E636F6D706C657465496E70AA
:1054E200757400496E76616C6964496E70757400FA
:1054F2004E6F4D656D6F727900546F6F44656570C4
:105502000042745200427442004274560042744A8D
:105512000042744D00426F75746F6E3600426F75B3
:0E552200746F6E3700426F75746F6E38000044
:00000001FF
