:100000000C947E010C94AF010C94AF010C94AF01E1
:100010000C94AF010C94AF010C94AF010C94AF01A0
:100020000C94AF010C947C150C947C150C947C15ED
:100030000C94AF010C94AF010C94AF010C94AF0180
:100040000C94AF010C94AF010C94AF010C94AF0170
:100050000C94AF010C94AF010C94AF010C94D2142A
:100060000C94AF010C9446150C941C150C94AF0124
:100070000C94AF010C94AF010C94AF010C94AF0140
:100080000C94AF010C94AF010C94AF010C94AF0130
:100090000C94AF010C94AF010C94AF010C94AF0120
:1000A0000C94AF010C94AF010C94AF010C94AF0110
:1000B0000C94AF010C94AF010C94AF010C94AF0100
:1000C0000C94AF010C94AF010C94AF010C94AF01F0
:1000D0000C94AF010C94AF010C94AF010C94AF01E0
:1000E0000C94AF010C94F4010C94EE010C94821169
:1000F0000C9412040C94D3120C9416030C94140256
:100100000C946F040C94FC010C94D9010C94DD0147
:100110000C94E3110C9489080C94A9030C94E40149
:100120000C9402020C94AD080C94F8010C94E101BB
:100130000C9482060C9424030C945C030C942616F5
:100140000C946D120C94F3020C94C6020C941304DC
:100150000C94D5010C9485040C94EA010C94C4020F
:100160000C9406020C94A9040C9402030C94100243
:100170000C94A6040C941D140C940A020C94FA031B
:100180000C9468130C94441A0C940F020C94CF0135
:100190000000803FCDCCCC3D6F12833A95BFD63363
:1001A0007D1D9026B3CE010C00000A0B02090C0D38
:1001B0000E0807030401000000000000000000001A
:1001C000000000000000000000000000000000002F
:1001D00000000000121110000000000000000000EC
:1001E000000000000000000000000000000000000F
:1001F00020410000C84200401C4620BCBE4CCA1B27
:100200000E5AAEC59D74CDCCCC3D0AD7233C17B752
:10021000D13877CC2B329595E6241FB14F0A0000D8
:1002200020002300260029002C002F0032000001AE
:10023000000003010601090100002100240027003D
:100240002A002D00300033000101000004010701E5
:100250000A0100002200250028002B002E0031009A
:10026000340002010000050108010B010505050528
:10027000070508080808020202020A0A080804041E
:10028000040401010101010101010303030303034C
:100290000303040707070C0C0C0C0C0C0C0C0202DB
:1002A000020206060606060606060B0B0B0B0B0BD8
:1002B0000B0B010210202008081020401020408065
:1002C000020102010804020101020408102040801A
:1002D00080402010080402018004020180402010A8
:1002E00008040201080402010102040810204080F1
:1002F00001020408102040802616441A11241FBE53
:10030000CFEFD1E2DEBFCDBF00E00CBF25E0ACEE09
:10031000B3E001C01D92A132B207E1F713E0A0E003
:10032000B2E0E0E8FDE300E00BBF02C007900D92F1
:10033000AC3EB107D9F711E0CDE7D1E000E006C04F
:1003400021970109802FFE010E94E11BCC37D107C4
:1003500080E00807A9F70E9427180C94AE1E0C94A1
:1003600000008150823108F05AC0E82FF0E0882761
:10037000E354FE4F8F4F0C94E11BDD01E101CF01EF
:10038000D501D9010F02E401EA01EE01F401F801FF
:10039000FC01020206020F020A02100214028091FE
:1003A00080008F77809380000895809180008F7DFA
:1003B000F9CF80918000877FF5CF84B58F7784BD9A
:1003C000089584B58F7DFBCF8091B0008F778093A7
:1003D000B00008958091B0008F7DF9CF809190009A
:1003E0008F77809390000895809190008F7DF9CF52
:1003F00080919000877FF5CF8091A0008F778093C8
:10040000A00008958091A0008F7DF9CF8091A00079
:10041000877FF5CF809120018F7780932001089509
:10042000809120018F7DF9CF80912001877FF5CFCA
:10043000CF93DF93282F30E0F901E855FE4F8491E8
:10044000F901EE54FD4FD491F901E459FD4FC491E7
:10045000CC23A1F081110E94B101EC2FF0E0EE0F4E
:10046000FF1FE25EFD4FA591B491EC91ED2381E079
:1004700090E009F480E0DF91CF91089580E090E072
:10048000FACF863308F0865320917B00982F98701E
:10049000277F922B90937B008770806480937C00F1
:1004A00080917A00806480937A0080917A0086FD42
:1004B000FCCF809178009091790008953FB7F8942F
:1004C0008091310490913204A0913304B0913404AE
:1004D00026B5A89B05C02F3F19F00196A11DB11D9F
:1004E0003FBFBA2FA92F982F8827BC01CD01620FDB
:1004F000711D811D911D42E0660F771F881F991F96
:100500004A95D1F708958F929F92AF92BF92CF9262
:10051000DF92EF92FF920E945E024B015C0184E643
:10052000C82ED12CE12CF12C0E945E0268197909A9
:100530008A099B09683E734081059105A8F321E073
:10054000C21AD108E108F10888EE880E83E0981EEF
:10055000A11CB11CC114D104E104F10429F7FF90DE
:10056000EF90DF90CF90BF90AF909F908F900895C5
:100570002FB7F89460912D0470912E0480912F0470
:10058000909130042FBF089508950895AF92BF92BF
:10059000CF92DF92EF92FF920F931F93CF93DF934F
:1005A0006C017B018B01040F151FEB015E01AE187E
:1005B000BF08C017D10759F06991D601ED91FC91A0
:1005C0000190F081E02DC6011995892B79F7C501BD
:1005D000DF91CF911F910F91FF90EF90DF90CF901F
:1005E000BF90AF900895FC01538D448D252F30E0CE
:1005F000842F90E0821B930B541710F0CF96089530
:1006000001970895FC01918D828D981761F0A28D5C
:10061000AE0FBF2FB11D5D968C91928D9F5F9F7322
:10062000928F90E008958FEF9FEF0895FC01918DD8
:10063000828D981731F0828DE80FF11D858D90E045
:1006400008958FEF9FEF0895FC01918D228D892FE2
:1006500090E0805C9F4F821B91098F7399270895CA
:1006600089E394E00E94240321E0892B09F420E02F
:10067000822F0895FC01A48DA80FB92FB11DA35A94
:10068000BF4F2C91848D90E001968F739927848FB2
:10069000A689B7892C93A089B1898C9183708064D5
:1006A0008C93938D848D981306C00288F389E02D76
:1006B00080818F7D80830895EF92FF920F931F9327
:1006C000CF93DF93EC0181E0888F9B8D8C8D981305
:1006D0001AC0E889F989808185FF15C09FB7F89411
:1006E000EE89FF896083E889F9898081837080645D
:1006F00080839FBF81E090E0DF91CF911F910F91A8
:10070000FF90EF900895F62E0B8D10E00F5F1F4FB6
:100710000F731127E02E8C8D8E110CC00FB607FCC5
:10072000FACFE889F989808185FFF5CFCE010E9453
:100730003A03F1CFEB8DEC0FFD2FF11DE35AFF4F84
:10074000F0829FB7F8940B8FEA89FB8980818062E1
:10075000CFCFCF93DF93EC01888D8823B9F0AA899E
:10076000BB89E889F9898C9185FD03C0808186FD6C
:100770000DC00FB607FCF7CF8C9185FFF2CF8081BB
:1007800085FFEDCFCE010E943A03E9CFDF91CF91F3
:10079000089580E090E0892B29F00E9430038111B8
:1007A0000E94000080E090E0892B49F080E090E01A
:1007B000892B29F00E94000081110E94000080E036
:1007C00090E0892B49F080E090E0892B29F00E948D
:1007D000000081110E94000080E090E0892B49F028
:1007E00080E090E0892B29F00E94000081110C9498
:1007F00000000895209137043091380428173907F4
:1008000071F49091350480913604981741F0E0918D
:100810003504F0E0E451FC4F808190E008958FEFC3
:100820009FEF08950895EF92FF920F931F93CF9338
:10083000DF93DC015C96ED90FC905D97E114F10490
:1008400079F481E090E013969C938E93129790E058
:1008500080E0DF91CF911F910F91FF90EF9008956D
:100860005196ED91FC91529750968C915097982FFC
:1008700090950FB75E962C915E97122F127021FD06
:100880006095F8942081112319F1282B2083E7012A
:100890002197F1F728E0462F50E0308160FF1AC021
:1008A000382B3083E7012197F1F7BA0175956795E9
:1008B000215089F7112381F08081892380830FBF24
:1008C0005C968D919C910197F1F781E090E0C1CF0A
:1008D0002923DCCF3923E5CF9081892BEFCF2091DD
:1008E0003704309138042817390761F480913604B1
:1008F0002091350490E0805C9F4F821B91098F739B
:100900009927089590E080E0089520913704309170
:10091000380428173907B9F49091350480913604CA
:10092000981789F0E0913504F0E0E451FC4F8081A4
:100930002091350430E02F5F3F4F2F7333272093F2
:10094000350490E008958FEF9FEF089590E080E0E8
:1009500008950895CF93DF93EC0188819981DC019C
:10096000ED91FC910190F081E02D19952A813B8158
:10097000820F931F9B838A83DF91CF910895CF933A
:10098000DF93EC0188819981DC01ED91FC9102807B
:10099000F381E02D19952A813B81820F931F9B8360
:1009A0008A83DF91CF9108958F929F92AF92BF92E9
:1009B000CF92DF92EF92FF920F931F93CF93DF932B
:1009C000CDB7DEB766970FB6F894DEBF0FBECDBFCA
:1009D0006C018E01095E1F4F78018AE0882E912CF0
:1009E000A12CB12CCB01BA01A50194010E94BF1B1F
:1009F000942F852F605DF80162938F01A901692F03
:100A0000782F411551056105710561F7A7014E1B4E
:100A10005F0BBF01C6010E94BF0466960FB6F89433
:100A2000DEBF0FBECDBFDF91CF911F910F91FF9021
:100A3000EF90DF90CF90BF90AF909F908F900895F0
:100A400080339CF08A3324F08F3524F08B3724F4E4
:100A500081E0089581344CF08B35D4F393ED980FF9
:100A600081E09230B0F380E008958B32B9F7F0CF97
:100A7000CF92DF92EF92FF920F931F93CF93DF936A
:100A8000EC018C85811130C009851A850E94B8025D
:100A9000D80118966D937D938D939C931B97D801E5
:100AA000ED91FC910284F385E02DC801199597FF23
:100AB00025C00E94B802F801C084D184E284F38486
:100AC0006C197D098E099F09C480D580E680F78066
:100AD0006C157D058E059F0510F38FEF9FEF97FD39
:100AE00080E08B8781E08C878B85DF91CF911F9190
:100AF0000F91FF90EF90DF90CF9008959927EFCF5F
:100B00001F93CF93DF93EC01162F0E9438058113BA
:100B100006C01C8681E0DF91CF911F91089580E08F
:100B2000FACFCF93DF93EC01CE010E9438058B30D2
:100B30003CF489304CF4882349F081E0888710C068
:100B40008D3011F08032C9F71C86EECF8885811177
:100B50000AC081E090E0C15BDF4F9983888380E029
:100B6000DF91CF91089582E090E0F5CF0895FC01E8
:100B70000E9691838083938382838C509E4F9583BE
:100B80008483978386831086158608950F931F9319
:100B9000CF93DF93DB0112962D913C91EC01E8811C
:100BA000F9818A819B81DF01A20FB31FA817B907C2
:100BB000A8F44C9141110EC0EB01A881B981EF015D
:100BC0008D01020F131FA017B10751F05D914991DC
:100BD0005417C9F341914111FDCFE5CFF0E0E0E0BA
:100BE000CF01DF91CF911F910F910895EF92FF9266
:100BF0000F931F93CF93DF9300D01F92CDB7DEB733
:100C000049835A836B837C83042F152F01151105AB
:100C100069F490E080E00F900F900F900F90DF91BB
:100C2000CF911F910F91FF90EF9008957C01BE012D
:100C30006F5F7F4F0E94C605009769F72B813C814B
:100C4000F70182819381A9014F5F5F4F480F591FC0
:100C5000648175816417750718F481E08087D9CFA6
:100C6000538342830097A9F2F801DC01BF01620FB0
:100C7000731F6E177F0719F041914D93FACF280F1C
:100C8000391FF9011082C7CFCF92DF92EF92FF9206
:100C90000F931F93CF93DF93EA01209751F1FC014B
:100CA000208131812115310569F48C8180788C8314
:100CB00081E0DF91CF911F910F91FF90EF90DF9036
:100CC000CF9008957B0104811581A901B801C70166
:100CD0000E94F6059C0150E040E0892B11F044ECA5
:100CE00052E09C819078452B31F49C8381E0232B4A
:100CF00001F780E0DECF95609C83398328831B83D6
:100D00000A83F4CFFC0188E692E09183808386E534
:100D100092E097838683CF01069620913704309125
:100D200038042817390759F4A18DB28D9C91838D11
:100D3000809589238C93109238041092370408957B
:100D4000FC0124813581A9014F5F5F4F8681978126
:100D50004817590748F48281938155834483FC01E5
:100D6000E20FF31F608308950190F081E02D81E090
:100D7000808708959F92AF92BF92CF92DF92EF92B9
:100D8000FF920F931F93CF93DF9300D01F921F9278
:100D9000CDB7DEB78C010E943805D82ED8011C963D
:100DA0001C92F12CE12C60EFC62EC8010E94380580
:100DB000F8011486D81609F4BDC0811119C0F801D4
:100DC000E15BFF4F82E090E09183808380E00F90B1
:100DD0000F900F900F900F90DF91CF911F910F9177
:100DE000FF90EF90DF90CF90BF90AF909F900895CD
:100DF0008C3509F09DC0C8010E9438058823F9F29E
:100E0000EAE9F2E0853709F087C0D8011C961C9208
:100E100054E0952EB12CA12CC8010E9438058823DE
:100E200071F281344CF48053803148F0F801E15B79
:100E3000FF4F83E090E0C8CF8F7D8753F5CF44E02C
:100E4000AA0CBB1C4A95E1F7A82AF80114869A94CB
:100E50009110E2CFC501985D8115944020F4750191
:100E600023E0F222A2CFC5019C5D81159440A8F435
:100E7000B3E0BB22B701762F6627770F770F6A2979
:100E80007B2990E080E0019660387105810591052D
:100E900040F4C8010E94A00688CFB50190E080E030
:100EA000F3CF1982262F2F7320682A8326E0969588
:100EB0008795779567952A95D1F76032710580F40B
:100EC000606C6B835E01E4E0AE0EB11CD5016E91E7
:100ED0005D01662309F469CFC8010E94A006F6CF20
:100EE000262F2F7320682B8386E0769567958A9549
:100EF000E1F76031710538F4606E6C835E01F5E0F6
:100F0000AF0EB11CE3CF60686C83CD825E0126E03A
:100F1000A20EB11CDBCF32969081992309F486CFC3
:100F20008913F9CF8181882309F480CFF8011486D1
:100F3000682FAFCF0190F081E02D8085882331F0BC
:100F4000F801E15BFF4F84E090E03ECF81E03FCFCE
:100F5000CF93FC01892B49F194819F779830E1F080
:100F600040F4992311F19630A9F0C1E08C2FCF9174
:100F700008959A3089F09C30C1F7C1E020E030E05C
:100F8000A90160817181828193810E946D1A811112
:100F9000EDCF0BC0C081EACFC1E080819181A281F9
:100FA000B381892B8A2B8B2B09F7C0E0DFCFCF933E
:100FB000DF93DC01EB01EC81FD818A819B81089646
:100FC000E817F90740F481E08887F0E0E0E0CF011E
:100FD000DF91CF9108953897FD83EC833097B9F373
:100FE0001296CD91DC911397209791F0CF018C1B35
:100FF0009D0B23E0959587952A95E1F78D831396B0
:10100000FC93EE9312971582148217821682DFCF1B
:101010001196FC93EE93F3CFCF92DF92EF92FF9273
:101020000F931F93CF93DF9300D01F92CDB7DEB7FE
:101030006C018B01DC011296ED90FC90FA82E98242
:101040007C836B83BE016F5F7F4F0E94C605009754
:1010500061F4F701E00FF11FCF010196D60113965D
:101060009C938E9312971082C7010F900F900F9050
:101070000F90DF91CF911F910F91FF90EF90DF9034
:10108000CF900895FC012581222339F0F8E02F024A
:1010900090011124820F931F089590E080E008953D
:1010A000EF92FF920F931F93CF93DF93611571051A
:1010B00019F17B018C01FC01C081D181209731F0B5
:1010C000CE010E944208E816F906E9F4C7010E9421
:1010D00042082097D1F020E0009741F09C012C1BA2
:1010E0003D0B43E0359527954A95E1F72D83892BF4
:1010F00019F4F801D383C283DF91CF911F910F912F
:10110000FF90EF900895EC01D9CFF801918380838F
:10111000EECFCF93DF93EC010E948206CE01DF91E8
:10112000CF910C94261DCF93DF93EC018881998198
:10113000009711F00E94261D198218821D821C82C0
:101140001B821A82DF91CF910895FC0180819181E9
:10115000009711F00C94261D08950C94261D0E94F2
:10116000901E0F931F93CF93DF93EC018881998199
:10117000009759F02A813B812617370730F081E02C
:10118000DF91CF911F910F9108958B016F5F7F4F7A
:101190000E94AF1D009759F0998388831B830A83AF
:1011A0002C813D81232B59F7FC011082E8CF80E090
:1011B000E7CFEF92FF920F931F93CF93DF93EC0152
:1011C0008617970781F0FB01008111810115110538
:1011D00039F0E480F580B7010E94B10881110BC09D
:1011E000CE010E949308CE01DF91CF911F910F9104
:1011F000FF90EF900895FD82EC82B801888199817B
:101200000E94A71EF0CFFC0111821082138212826D
:10121000158214820C94D908EF92FF920F931F93BA
:10122000CF93DF93EC01198218821B821A821D82F0
:101230001C826115710521F18B01FB0101900020D9
:10124000E9F731977F01E61AF70AB7010E94B10862
:10125000811109C0CE01DF91CF911F910F91FF90B5
:10126000EF900C949308FD82EC82B80188819981FB
:10127000DF91CF911F910F91FF90EF900C94A71EDB
:10128000DF91CF911F910F91FF90EF9008952F92D2
:101290003F924F925F926F927F928F929F92AF9206
:1012A000BF92CF92DF92EF92FF920F931F93CF9353
:1012B000DF9300D000D01F921F92CDB7DEB72C0174
:1012C0001B01E090DA04F090DB048091D804909147
:1012D000D9048E159F050CF47DC088E2E816F10450
:1012E0000CF078C0EE0CFF1C99E2E916F1041CF03A
:1012F00058E2E52EF12C67018FEF9FEFE114E0E15A
:10130000FE0638F4C70143E0880F991F4A95E1F7BC
:1013100002960E948A1C4C01F401E192F1923F0175
:101320008F01F1E0CF1AD108D7FE25C06401B12C9E
:10133000A12C0091D6041091D7048091D8049091EB
:10134000D904A816B906FCF4C60188199909080F32
:10135000191FB801C60102960E94D908F8018681BA
:101360009781F60191878087FFEFAF1ABF0A88E067
:10137000C80ED11CDECF6AEA72E0C8010E940C09D7
:10138000085F1F4FCECF01151105E1F0F80132972C
:101390008081918133E0880F991F3A95E1F7080F1A
:1013A000191F98018091D6049091D7040850110913
:1013B0008217930721F0C8010E94A508F2CF029777
:1013C0000E94261D7092D7046092D604F092DB042E
:1013D000E092DA042091D8043091D9048091DA04A3
:1013E0009091DB04281739070CF044C0B201FE01CC
:1013F00031967F01CF010E94030938862F82009128
:10140000D6041091D7048091D8049091D9049C01FE
:101410002F5F3F4F3093D9042093D80423E0880FE7
:10142000991F2A95E1F7080F191FE016F106D1F070
:10143000F801808191810097C1F169817A816115FC
:10144000710589F1428153812D813E8142175307F5
:1014500050F10E94A71E8D819E81F801958384839F
:101460001E821D828F819885F80197838683C7012C
:101470000E94A50828960FB6F894DEBF0FBECDBF18
:10148000DF91CF911F910F91FF90EF90DF90CF9060
:10149000BF90AF909F908F907F906F905F904F9094
:1014A0003F902F9008950E94261D89819A81F8010E
:1014B000918380838B819C81938382838D819E81A4
:1014C000958384831A8219821C821B82C9CFFB01F7
:1014D00001900020E9F73197AF01461B570BDC0163
:1014E000ED91FC910280F381E02D19946BEA72E09A
:1014F0000C94670A0F931F93CF93DF938C01D0E076
:10150000C0E06115710519F00E94670AEC01C8017D
:101510000E94760A8C0F9D1FDF91CF911F910F9132
:1015200008956F927F928F929F92AF92BF92CF92C7
:10153000DF92EF92FF920F931F93CF93DF93EC0113
:101540008C81982F9F7739F4807880628C83198200
:1015500018821B821A828C8185FD11C080E090E088
:10156000DF91CF911F910F91FF90EF90DF90CF907F
:10157000BF90AF909F908F907F906F9008957A0169
:101580004115510559F389014A015B01888199810F
:101590006B013501640E751E0097E9F0DC011696AB
:1015A000ED91FC91B0E0A0E0309739F0DF010D90B3
:1015B0000020E9F71197AE1BBF0BCA16DB0641F4FA
:1015C000D7016A167B0661F23D9121913217C9F36A
:1015D0000E944208E1CFB801CE010E94D7077C01EA
:1015E000892B29F4B701CE010E945008B7CFB5016D
:1015F000A401C8010E94F6059C01892B99F3F7010B
:1016000094819068948337832683C701A9CFFB0117
:1016100001900020E9F73197AF01461B570B0C945E
:10162000BF041F93CF93DF93EAE9F2E01281112305
:1016300079F0329621816213F9CFEC016CE50E94BA
:10164000AA04612FCE01DF91CF911F910C94AA04BF
:101650006111F9CF6EEA72E0DF91CF911F910C9486
:10166000070B2F923F924F925F926F927F928F92D1
:101670009F92AF92BF92CF92DF92EF92FF920F9321
:101680001F93CF93DF93CDB7DEB76C970FB6F89467
:10169000DEBF0FBECDBF8C011B01DC0114968C9107
:1016A00014978F77863009F492C268F58230A0F1E2
:1016B0001296ED90FC901397CC901196DC908430AC
:1016C00008F056C2A701B601C1010E94BF04F10192
:1016D000828193816C960FB6F894DEBF0FBECDBFAA
:1016E000DF91CF911F910F91FF90EF90DF90CF90FE
:1016F000BF90AF909F908F907F906F905F904F9032
:101700003F902F9008958C3069F160F4883009F48F
:1017100059C28A3009F43FC265EB72E0C1010E94F0
:10172000070BE5C1803209F4ECC18034A9F76BE501
:10173000C1010E94AA04F80100811181011511055F
:1017400009F4DAC1B101C8010E94310BC8010E943D
:1017500042088C01892B09F4CFC16CE2C1010E94BF
:10176000AA04ECCFF801C080D180E280F380A70109
:101770009601C701B6010E946D1A8111CDCF20E0FC
:1017800030E0A901C701B6010E946D1A882379F0E3
:10179000A7019601C701B6010E94EA1B9B01AC019B
:1017A000C701B6010E946D1A882309F4B5CF20E065
:1017B00030E0A901C701B6010E946D1A87FF08C079
:1017C0006DE2C1010E94AA04F7FAF094F7F8F094D0
:1017D00020E836E948E15BE4C701B6010E94851CB8
:1017E00087FD81C074E1A72EB12C00E210E0188EB5
:1017F0001F8AF501E251FE4F259135914591549193
:10180000C701B6010E94851C87FD13C0F501EA5F80
:10181000FD4F2591359145915491C701B6010E9424
:10182000D31A6B017C012F89388D200F311F388F1F
:101830002F8B1595079534E0A31AB1088CEFA816E5
:101840008FEFB806B1F655245A9420E030E0A90194
:10185000C701B6010E94851C18160CF04BC02CEA7B
:1018600035EC47E257E3C701B6010E946D1A18161E
:101870000CF440C0A52DB4E0AB02C0011124B12C82
:10188000A12CFC01E057FE4F3F019C0122513E4F2D
:1018900049013FEF531671F1F301EA0DFB1D25914C
:1018A000359145915491C701B6010E946D1A87FF89
:1018B00013C0F401EA0DFB1D25913591459154911A
:1018C000C701B6010E94D31A6B017C018F89988DE4
:1018D000801B910B988F8F8B159507955A9494E0E8
:1018E000A91AB108D6CF00E210E055E0552E188EA7
:1018F0001F8AABCFC701B6010E94561C4B015C0189
:101900002B013C0106E080E492E4AFE0B0E0898F77
:101910009A8FAB8FBC8F102F01509AE0491651045B
:1019200061047104C8F0698D7A8D8B8D9C8D2AE0DD
:1019300030E040E050E00E94BF1B298F3A8F4B8F70
:101940005C8FC301B2012AE030E040E050E00E9429
:10195000BF1B29013A01DFCFC501B4010E94721AF1
:101960009B01AC01C701B6010E94E91B6B017C0120
:10197000698D7A8D8B8D9C8D0E94721A9B01AC01B2
:10198000C701B6010E94D31A2B013C010E94561CCC
:101990006B017C010E94721A9B01AC01C301B20170
:1019A0000E94E91B9B01AC010E94EA1B0E94561C8D
:1019B000C60ED71EE81EF91E898D9A8DAB8DBC8D83
:1019C000C816D906EA06FB06D8F09FEF891A990ACD
:1019D000A90AB90AAF89B88DAB2B39F1BAE08B16D9
:1019E0009104A104B10408F1EF89F88D3196F88FC4
:1019F000EF8BC12CD12C7601812C912C5401839436
:101A00002AE0422E512C612C712CC701B601A30192
:101A100092010E94BF1B672B682B692B51F4111692
:101A200044F469017A011150F0CFC12CD12C760118
:101A3000E7CFB501A401C1010E94D404112371F1C3
:101A40004E01F1E18F0E911C012F54019AE0492EB5
:101A5000512C612C712C015068F0C701B601A30113
:101A600092010E94BF1B605DD4016E934D0169011C
:101A70007A01F1CF812F90E0BC0160957095F5015E
:101A8000E81BF90B31978EE2808344275527461BCC
:101A9000570B6A0D7B1DC1010E94BF04EF89F88DB1
:101AA000EF2B29F165E6C1010E94AA040F89188D68
:101AB00017FF07C06DE2C1010E94AA0411950195AC
:101AC0001109FE0177969F018AE0E82EF12CC801EA
:101AD000B7010E94AB1B805D82938B01672BB9F726
:101AE000A9014E1B5F0BBF01C1010E94BF04D101C0
:101AF00012968D919C91EECD6DE5C1010E94AA04D4
:101B0000F6CF6BE7C1010E94AA04F80100811181A0
:101B10000115110559F1D8011696CC901697179614
:101B2000DC9062E2C1010E94AA047601F701619192
:101B30007F01662321F0C1010E94110BF7CF62E201
:101B4000C1010E94AA046AE3C1010E94AA04B10172
:101B5000C8010E94310BC8010E9442088C01892BE8
:101B600029F06CE2C1010E94AA04D2CF6DE7C5CF73
:101B700062E2C1010E94AA048601E00EF11EE01695
:101B8000F10639F0F80161918F01C1010E94110B3A
:101B9000F6CF62E2B2CFCD90DD90ED90FC90B70130
:101BA000A601F7FE0BC06DE2C1010E94AA04442702
:101BB0005527BA014C195D096E097F09C1010E94C0
:101BC000D40485CD4D915D916D917C91F7CF8C9131
:101BD0006AEB72E0811102C06FEB72E0C1010E94FA
:101BE000070B75CDCF93DF9300D01F92CDB7DEB733
:101BF0007A8369831C821B82BE016F5F7F4F0996C7
:101C00000E94310B0F900F900F900F90DF91CF91AA
:101C100008950F931F93CF93DF93D0E0C0E0611539
:101C2000710591F08B01FC01C081D181209761F099
:101C30006E817F81C8010E949E1E892B29F0CE01F2
:101C40000E944208EC01F2CFCE01DF91CF911F91AB
:101C50000F9108954F925F926F927F92BF92CF92B1
:101C6000DF92EF92FF920F931F93CF93DF93EC01DC
:101C70008B01E42E0E949105F82E811110C0F12CE9
:101C80008F2DDF91CF911F910F91FF90EF90DF90FB
:101C9000CF90BF907F906F905F904F900895CE014E
:101CA0000E943805873209F42BC10CF5823209F401
:101CB00027C1CE010E943805B82E6E01FFE0CF0E7D
:101CC000D11CE12C36018B2D0E942005882309F4BC
:101CD00043C12FE3E21609F43FC11C86E394F601E9
:101CE000B1926F01CE010E943805B82EECCF8B3532
:101CF00009F44AC08B37E9F6F80184818078806264
:101D000084831182108213821282EE2009F447C06C
:101D10001C86CE010E949105882309F4B0CF6DE79F
:101D2000CE010E948005D82E8111AACFCC24C39465
:101D3000EA94E881F981828193819B838A838481FB
:101D4000958122813381821B930B9F838E831D8219
:101D50001C82892B09F4C086CE010E943805873287
:101D600009F45DC0823209F45AC0CE010E943805E0
:101D7000F82E0E942005811159C0C15BDF4F83E01E
:101D800090E09983888350C0F801848180788064D2
:101D900084831182108213821282E11007C0C15B1A
:101DA000DF4F85E090E09983888369CF1C86CE0160
:101DB0000E949105882309F462CF6DE5CE010E944F
:101DC000800581115DCFEA946D857E85C8010E94F2
:101DD000D707009729F4C15BDF4F84E090E0E3CFA1
:101DE0004E2DBC01CE010E942A0E882309F447CF54
:101DF000CE010E949105882309F441CF6DE5CE0103
:101E00000E94800581113CCF6CE2CE010E948005CA
:101E10008111DACFC15BDF4F83E090E0C4CFCE0108
:101E20000E94BA06811119C0FD2C2ACF1C866F2D85
:101E3000CE010E94A006CE010E943805F82E0E9415
:101E400020058111F3CFE881F9818085882329F06D
:101E5000C15BDF4F84E090E094CFCE010E949105FA
:101E6000882311F36AE3CE010E948005882309F4D8
:101E700084CFEA81FB818C819D81E80FF91F10825C
:101E80006C807D806A817B81C8010E94090EBC0143
:101E9000892BA1F4B301888199810E940C083C012F
:101EA0006D857E85C8010E94D707FC01892B81F2D0
:101EB00084818068848377826682BF014E2DCE0143
:101EC0000E942A0E882309F4AFCFCE010E9491050B
:101ED000882309F4A9CF6DE7CE010E948005811106
:101EE0000DC06CE2CE010E948005882309F445CF25
:101EF000CE010E94910581111CCF96CFD82E94CF90
:101F0000E881F981828193819B838A838481958191
:101F100022813381821B930B9F838E831D821C82BF
:101F2000892B11F481E08087CE010E94BA06F82E39
:101F3000882309F4A4CECC80DD80B6018881998104
:101F40000E940C08F8012481207825602483918365
:101F50008083D382C28294CEFE01EE0DF11D1786DE
:101F60008F85843781F4F80184818078866084834A
:101F700081E08083F4E0EF1609F482CEC15BDF4F8D
:101F800082E090E010CF863641F4F80184818078B9
:101F9000866084831082F5E0EECF8E3621F424E053
:101FA000E212ECCF6DCE8B32D9F1F3018D32D1F547
:101FB000FE017096BF2C808190ED980F9A3018F03A
:101FC0008E3209F027CF6F0160E070E0CB01F6019F
:101FD0002191A0ED4A2E420E39E0341528F16A39DC
:101FE00049E97407840749E1940740F5AAE0B0E0A5
:101FF0009B01AC010E94911B512C712C612CA301FF
:10200000920120953095409550952617370748073F
:102010005907A0F0640D751D861D971D6F01D7CF60
:10202000FE017096B12CC7CF211108C0BB2071F101
:1020300061307105810550E89507A0F0E12CEAE0D8
:102040004E2E512C612C712C61157105F0E88F0713
:10205000910530F1A30192010E94BF1BCA01B90191
:10206000E394F2CFF801248120782A6024839B0135
:10207000AC0188279927DC01821B930BA40BB50BBD
:1020800080839183A283B383FB2CFACDF801248152
:102090002078286024836083718382839383F0CDCA
:1020A000D601F60121916F0130ED320F3A3010F474
:1020B000E394F6CF2E32F1F4FD013196DF01319633
:1020C0002C9150EDD52ED20E29E02D1598F06C3CB8
:1020D0003CEC73073CE08307910580F7AAE0B0E091
:1020E0009B01AC010E94911B6D0D711D811D911D05
:1020F000EA94E4CF2C912F7D253409F08CC0119601
:102100002C9111972D32D9F512967F2CFD0130E0DC
:1021100020E0CE2C0E2C000CDD084AE0542EDF010E
:10212000619040ED460D4A3008F043C0529EA00138
:10213000539E500D1124262D660C330B205331096C
:10214000240F351FA601420F531F473251053CF3A0
:10215000F80184817720D1F040E050E060E070E841
:10216000B11003C040E050E0BA0180788C60F80103
:1021700084834083518362837383F72C81CD2B3218
:1021800019F01196712CC2CF1296FCCF40E050E0AE
:1021900060E87FEFB11004C040E050E060E87FE706
:1021A00080788C60F80184834083518362837383D9
:1021B00067CD772019F03195219531094C91411166
:1021C00029CEE901CE0DD11DE7FCDA950E94721AE5
:1021D0001C161D061CF5E12CC0FF0CC024E0E29E7D
:1021E000F0011124E251FE4F259135914591549112
:1021F0000E94D31AD595C795E394209769F7B1103B
:102200009058F801248120782C60248360837183A6
:102210008283938335CD30E020E0D0CFD195C19536
:10222000D109E12C209759F3C0FF0CC044E0E49E93
:10223000F0011124EA5FFD4F2591359145915491AC
:102240000E94D31AD595C795E394ECCF0F931F93B3
:10225000CF93DF93EC018B010E942A0EFE01E15B1C
:10226000FF4F80819181892B79F48B85882361F0E0
:10227000D80114968C9183FF07C083E090E0DF9132
:10228000CF911F910F91089580819181F8CFEF92A6
:10229000FF920F931F93CF93DF93EC018C81982FC4
:1022A0009F7739F4807880628C83198218821B8230
:1022B0001A828C8185FF16C06115710599F07A012B
:1022C0008B01CE010E94090E0097A9F4B701CE013F
:1022D0000E94D707FC01892B41F470E060E0CE0139
:1022E0000E94500880E090E006C084818F7784834C
:1022F00017830683CF01DF91CF911F910F91FF903C
:10230000EF900895CF92DF92EF92FF920F931F9379
:10231000CF93DF93CDB7DEB7C250D2400FB6F8945B
:10232000DEBF0FBECDBF8B01CE0101960E94B70567
:102330000E94B8026B017C01AE014F5F5F4F65ECFC
:1023400072E0CE010A960E944711FC01892B41F0F0
:102350009481907898609483C082D182E282F382E3
:10236000AE014F5F5F4F6AEC72E0CE010A960E94A9
:102370004711FC01892B61F0948190789A609483D5
:10238000012E000C220B330B008311832283338335
:1023900069E374E0CE0101960E94F20D89E394E0B6
:1023A0000E94760A81E0CE5FDD4F0FB6F894DEBF63
:1023B0000FBECDBFDF91CF911F910F91FF90EF9096
:1023C000DF90CF9008958F929F92AF92BF92CF925D
:1023D000DF92EF92FF920F931F93CF93DF93CDB7CE
:1023E000DEB7C051D2400FB6F894DEBF0FBECDBFEE
:1023F0007B016A018E010F5F1F4FC8010E94B70564
:102400000E94B8024B015C01A80165EC72E0CE01AC
:102410000A960E944711FC01892B41F09481907823
:102420009860948380829182A282B382B701CE01A8
:10243000855F9D4F0E940309CE018D5F9D4FFC017A
:10244000019311937F01BE01655F7D4FCF010E9413
:102450000309CE01855F9D4F0E94A508CD5FDD4F2A
:10246000A880B980C350D240CB5FDD4F48815981ED
:10247000C550D240C75FDD4F68817981C950D240D5
:102480009501C50109960E94910AAC01B501C601EA
:102490000E944406C7010E94A50869E374E0C801D0
:1024A0000E94F20D89E394E00E94760A0E94830262
:1024B00081E0C05FDD4F0FB6F894DEBF0FBECDBF29
:1024C000DF91CF911F910F91FF90EF90DF90CF9010
:1024D000BF90AF909F908F9008958F929F92AF92F0
:1024E000BF92EF92FF920F931F93CF93DF93CDB7DD
:1024F000DEB7C250D2400FB6F894DEBF0FBECDBFDC
:102500007C018B01CE0101960E94B7050E94B802A2
:102510004B015C01AE014F5F5F4F65EC72E0CE0195
:102520000A960E944711FC01892B41F09481907812
:102530009860948380829182A282B382AE014F5FC1
:102540005F4F6AEC72E0CE010A960E944711FC01CF
:10255000892B61F0948190789A609483012E000C0D
:10256000220B330B008311832283338369E374E0EE
:10257000CE0101960E94F20DC70106960E94760ACE
:1025800081E0CE5FDD4F0FB6F894DEBF0FBECDBF4A
:10259000DF91CF911F910F91FF90EF90BF90AF907F
:1025A0009F908F9008954F925F926F927F92AF921B
:1025B000BF92CF92DF92EF92FF920F931F93CF9330
:1025C000DF93CDB7DEB7C051D2400FB6F894DEBF6F
:1025D0000FBECDBF8C015B016A01CE0101967C016B
:1025E0000E94B7050E94B8022B013C01A70165ECCF
:1025F00072E0CE010A960E944711FC01892B41F03E
:102600009481907898609483408251826282738230
:10261000B501CE01855F9D4F0E940309FE01ED5F6C
:10262000FD4FE192F1925F01BE01655F7D4FCF01E9
:102630000E940309CE01855F9D4F0E94A508CD5FD2
:10264000DD4F68807980C350D240CB5FDD4F488139
:102650005981C550D240C75FDD4F68817981C9502B
:10266000D2409301C30109960E94910AAC01B301C3
:10267000C6010E944406C5010E94A5080A5F1F4FBB
:10268000B801C7010E94F20DC8010E94760A0E949B
:10269000830281E0C05FDD4F0FB6F894DEBF0FBE4E
:1026A000CDBFDF91CF911F910F91FF90EF90DF9001
:1026B000CF90BF90AF907F906F905F904F900895B4
:1026C000FC01248125FD0C94090E90E080E0089522
:1026D000CF92DF92EF92FF920F931F93CF93DF93EE
:1026E000CDB7DEB7C356D2400FB6F894DEBF0FBEEB
:1026F000CDBF6B0189E394E00E9424038E010F5F3C
:102700001F4F892B09F48BC0C8010E94B70589812E
:102710009A819C838B838F8198859E838D83198674
:102720001E86C45ADD4F19830883CC55D24088E0F9
:10273000FE01E45AFD4FDE01AC5ABD4F01900D92EF
:102740008A95E1F788E0FE01EC5AFD4FDE01AD5FAE
:10275000BD4F01900D928A95E1F7C55FDD4F18825C
:10276000CB50D24089E394E0C45FDD4F99838883E6
:10277000CC50D240C15FDD4F1882CF50D240C05FF5
:10278000DD4F19830883C051D240CE5ADD4F1982E4
:102790001882C255D2404AE0BE01665F7F4FCE012B
:1027A0008D5F9D4F0E9426117C01892B29F561EDDB
:1027B00072E0CE010A960E946013892B81F161EDCF
:1027C00072E0CE010A960E9460130E94A80790E072
:1027D000F6019183808381E0CD59DD4F0FB6F894E7
:1027E000DEBF0FBECDBFDF91CF911F910F91FF9044
:1027F000EF90DF90CF90089565ED72E089E394E06B
:102800000E94670AF701EE0FFF1FE65EFD4F608131
:10281000718189E394E00E947A0A80E0DDCF63EE63
:1028200072E0C8010E940C0961E070E0C8010E94DA
:102830004709C8010E94A508F0CFAF92BF92CF927E
:10284000DF92EF92FF920F931F93CF93DF93CDB759
:10285000DEB7C356D2400FB6F894DEBF0FBECDBF71
:102860005B0106966C010E946F048E010F5F1F4F83
:10287000892B09F489C0C8010E94B70589819A8112
:102880009C838B838F8198859E838D8319861E867A
:10289000C45ADD4F19830883CC55D24088E0FE012D
:1028A000E45AFD4FDE01AC5ABD4F01900D928A955E
:1028B000E1F788E0FE01EC5AFD4FDE01AD5FBD4F50
:1028C00001900D928A95E1F7C55FDD4F1882CB50DC
:1028D000D240C45FDD4FD982C882CC50D240C15FA4
:1028E000DD4F1882CF50D240C05FDD4F198308837F
:1028F000C051D240CE5ADD4F19821882C255D24003
:102900004AE0BE01665F7F4FCE018D5F9D4F0E9402
:1029100026117C01892B39F561ED72E0CE010A9612
:102920000E946013892B81F161ED72E0CE010A965D
:102930000E9460130E94A80790E0F50191838083B4
:1029400081E0CD59DD4F0FB6F894DEBF0FBECDBF8D
:10295000DF91CF911F910F91FF90EF90DF90CF907B
:10296000BF90AF90089565ED72E0C6010E94670ABE
:10297000F701EE0FFF1FE65EFD4F60817181C6011A
:102980000E947A0A80E0DDCF6FEF72E0C8010E94FA
:102990000C0961E070E0C8010E944709C8010E946B
:1029A000A508F0CF1F920F920FB60F9211242F930C
:1029B0003F938F939F93AF93BF9380912D049091FA
:1029C0002E04A0912F04B091300430912C0423E008
:1029D000230F2D3758F50196A11DB11D20932C040E
:1029E00080932D0490932E04A0932F04B093300471
:1029F0008091310490913204A0913304B091340459
:102A00000196A11DB11D8093310490933204A093CF
:102A10003304B0933404BF91AF919F918F913F9154
:102A20002F910F900FBE0F901F90189526E8230F3F
:102A30000296A11DB11DD2CF1F920F920FB60F9219
:102A400011240BB60F922F933F934F935F936F9385
:102A50007F938F939F93AF93BF93EF93FF9389E3FC
:102A600094E00E943A03FF91EF91BF91AF919F9143
:102A70008F917F916F915F914F913F912F910F9027
:102A80000BBE0F900FBE0F901F9018951F920F92C4
:102A90000FB60F9211240BB60F922F938F939F9323
:102AA000EF93FF93E0914904F0914A048081E09113
:102AB0004F04F091500482FD1DC09081809152041A
:102AC0008F5F8F7320915304821741F0E09152047D
:102AD000F0E0E75CFB4F958F80935204FF91EF91FC
:102AE0009F918F912F910F900BBE0F900FBE0F9063
:102AF0001F9018958081F2CF1F920F920FB60F9200
:102B000011240BB60F922F933F934F935F936F93C4
:102B10007F938F939F93AF93BF93EF93FF93E09136
:102B20003704F0913804309749F0A685B78585853C
:102B3000968D91FF16C09C918923B1F4FF91EF917E
:102B4000BF91AF919F918F917F916F915F914F91C5
:102B50003F912F910F900BBE0F900FBE0F901F90C3
:102B600018959C91892351F7A389B4899C918589F3
:102B7000809589238C93868997890197F1F7608DD9
:102B8000718DA685B785558538E020E0CB0101978A
:102B9000F1F7822F90E095958795282F4C9145234A
:102BA00009F02068315091F7868D81FD2095809144
:102BB000360490E001968F739927309135043817C9
:102BC00099F0A0913604B0E0A451BC4F2C938093AF
:102BD0003604828D938D0197F1F7A389B4898C9186
:102BE0009589892B8C93AACF868D8160868FF1CFB2
:102BF0001F93CF93DF93282F30E0F901E855FE4F64
:102C00008491F901EE54FD4FD491F901E459FD4F3F
:102C1000C491CC23A9F0162F81110E94B101EC2F91
:102C2000F0E0EE0FFF1FEE5AFD4FA591B4918FB764
:102C3000F894EC91111108C0D095DE23DC938FBF7E
:102C4000DF91CF911F910895DE2BF8CFCF92DF92C5
:102C5000EF92FF920F931F93CF93DF9310923C0458
:102C600010923B0488EE93E0A0E0B0E080933D0436
:102C700090933E04A0933F04B093400484E492E018
:102C800090933A048093390485EC90E09093460445
:102C90008093450484EC90E090934804809347042B
:102CA00080EC90E090934A048093490481EC90E09A
:102CB00090934C0480934B0482EC90E090934E04EC
:102CC00080934D0486EC90E09093500480934F04E1
:102CD000109252041092530410925404109255040E
:102CE00080E1E6E0F2E0A3E0B5E001900D928A9584
:102CF000E1F78091160290911702A0911802B0910D
:102D000019028093130590931405A0931505B093B1
:102D100016050E94B80260931705709318058093FA
:102D2000190590931A0581E080931B0580931C057B
:102D3000CAE8D2E003E015E0EAE9CE2EE2E0DE2EBA
:102D40007801888122960E941802F701819391935D
:102D50007F01CC16DD06A9F7C0E8D2E08881229673
:102D60000E944102F801819391938F01F2E0CA38E9
:102D7000DF07A1F786E792E09093020580930105B3
:102D8000E0914904F0914A0482E08083E091450497
:102D9000F09146041082E0914704F09148048FECD2
:102DA000808310925104E0914D04F0914E0486E02E
:102DB0008083E0914B04F0914C048081806180839A
:102DC000E0914B04F0914C04808188608083E09115
:102DD0004B04F0914C04808180688083E0914B0427
:102DE000F0914C0480818F7D808388E692E09093FF
:102DF000DD048093DC048BE090E09093DF0480930B
:102E0000DE048AE090E09093E1048093E004109265
:102E1000E5041092E40488EE93E0A0E0B0E0809333
:102E2000E6049093E704A093E804B093E90486E5F0
:102E300092E09093E3048093E2041092F9041092DC
:102E4000F8041092FB041092FA041092FD04109200
:102E5000FC041092FF041092FE04609100056E7F46
:102E60006D7F609300056695617081E068278BE057
:102E70000E94F8154DEB52E0FA01649187E792E069
:102E8000FC012491222399F030E0220F331FF90135
:102E9000E85CFD4FA591B491F901EE5AFD4F2591E3
:102EA00034912FB7F8943C91632B6C932FBFFA01A8
:102EB00044914093F204FC018491E82FF0E0EE0F7E
:102EC000FF1FEE5AFD4F859194919093F4048093E7
:102ED000F3040CEB12E0F8012491C6E7D2E0FE0106
:102EE00084918823C9F090E0880F991FFC01E85C69
:102EF000FD4FA591B491FC01EE5AFD4F45915491BF
:102F00003FB7F8949C91822F809598239C93FA0167
:102F10009081892380833FBF8091000581FD04C09B
:102F200061E08AE00E94F8158AE08093EE04F801DF
:102F300004910093EF04FE01C491EC2FF0E0EE0F3A
:102F4000FF1FE25EFD4F859194919093F104809371
:102F5000F0048DE991E09093FF048093FE042DEB43
:102F600030E03093F9042093F8042BE931E03093FA
:102F7000FB042093FA042CE231E03093FD0420930B
:102F8000FC04209168002160209368002BE630E06B
:102F90003093F6042093F50420E12093F704019781
:102FA000F1F7E0913704F091380484E0E23EF8074D
:102FB00009F1309739F0A389B4899C91858980956E
:102FC00089238C93809100058E7F80930005109259
:102FD00036041092350482EE94E090933804809386
:102FE0003704E091F504F091F60480819091F704A4
:102FF000892B80831092D9041092D80405E010E048
:103000001093DB040093DA048AE290E00E948A1CA9
:10301000EC01099319937E018C01065D1F4F6AEA4A
:1030200072E0C7010E940C09E8E0EE0EF11CE01608
:10303000F106A9F7D093D704C093D604DF91CF91BE
:103040001F910F91FF90EF90DF90CF900895CF9355
:10305000DF93CDB7DEB762970FB6F894DEBF0FBE31
:10306000CDBF789484B5826084BD84B5816084BD11
:1030700085B5826085BD85B5816085BD80916E0016
:10308000816080936E001092810080918100826047
:103090008093810080918100816080938100809184
:1030A00080008160809380008091B1008460809373
:1030B000B1008091B00081608093B0008091910058
:1030C0008260809391008091910081608093910053
:1030D000809190008160809390008091A100826037
:1030E0008093A1008091A10081608093A1008091D4
:1030F000A00081608093A000809121018260809374
:103100002101809121018160809321018091200122
:1031100081608093200180917A00846080937A009E
:1031200080917A00826080937A0080917A00816039
:1031300080937A0080917A00806880937A00109260
:10314000C10080E190E00E948A1C7C016AE8A62E02
:1031500062E0B62E988B8F878C01005F1F4F6C0149
:10316000F5018081F2E0AF0EB11C0E941802F60159
:10317000819391936F01E017F10791F78AE090E056
:103180000E948A1C8C0150E8A52E52E0B52E3C010D
:103190004C01FAE08F0E911C2C01F5018081F2E0C8
:1031A000AF0EB11C0E944102F201819391932F0155
:1031B000E815F90591F70E94B802AB01BC018091B6
:1031C000170590911805A0911905B0911A058C5911
:1031D0009F4FAF4FBF4F84179507A607B70708F05B
:1031E00018C10E94B8026093170570931805809368
:1031F000190590931A0533E0232E35E0332E40E372
:10320000842E42E0942E3E862D86ED85FE858191AA
:103210009191FE87ED87EF85F88921913191F88BA7
:10322000EF873A8B298B8217930771F1F401A08005
:10323000B1806DE173E0009729F0019709F0F8C0C3
:1032400064E273E0CE0107960E940C09B501CE013D
:1032500001960E940C09AE01495F5F4FBE016F5F8E
:103260007F4F8CED94E00E94D312CE0101960E9414
:10327000A508CE0107960E94A508ED85FE85329728
:1032800029893A893183208332E0830E911C8F850E
:1032900098898C159D0509F0B8CFECE2F2E0FE8725
:1032A000ED8723E1A22E25E0B22E98012C5F3F4F3F
:1032B000388B2F87912CED85FE8581919191FE872A
:1032C000ED87F301C190D1903F019C012F5C3F4FEE
:1032D0002C153D051CF021E0F101208FF501208126
:1032E0003181A6014A565F4F421753072CF04C52CA
:1032F000514024173507C4F59C012A563F4F2C1521
:103300003D052CF086599109C816D9066CF5911027
:103310002BC090901B05992039F190901C059920A5
:1033200019F161E573E0CE0107960E940C0968E58A
:1033300073E0CE0101960E940C09AE01495F5F4F18
:10334000BE016F5F7F4F8CED94E00E94D312CE01DF
:1033500001960E94A508CE0107960E94A508F1E0FB
:10336000F0931B05F0931C05F501C192D1925F010A
:10337000FFEF2F1A3F0A2F8538896216730609F06E
:103380009ACF87E1C82E85E0D82E96E2A92E92E04A
:10339000B92E20E0F601419151916F01F501819123
:1033A00091915F01BC016A567F4F641775072CF03D
:1033B00086599109481759070CF521111FC061E57D
:1033C00073E0CE0107960E940C0961E673E0CE011E
:1033D00001960E940C09AE01495F5F4FBE016F5F0D
:1033E0007F4F8CED94E00E94D312CE0101960E9493
:1033F000A508CE0107960E94A50821E0F30181915E
:1034000091913F01F6013297918380836414750492
:1034100009F6E114F10419F0C7010E94261D0115F7
:10342000110519F0C8010E94261D0E94C90389CE0A
:103430006DE273E0CE0107960E940C09B501CE0142
:1034400001960E940C09AE01495F5F4FBE016F5F9C
:103450007F4F8CED94E00E94D312CE0101960E9422
:10346000A508CE0107960E94A50864E373E0CE018B
:1034700001960E940C0962E070E0CE0101960E9464
:103480004709CE010196F7CECF93DF93C091D604C2
:10349000D091D7042097D9F0FE0132978081918195
:1034A00023E0880F991F2A95E1F7C80FD91F9E01C5
:1034B0008091D6049091D70428978217930721F022
:1034C000CE010E94A508F3CF02970E94261D8CED25
:1034D00094E0DF91CF910C9482060E94AF1A08F419
:1034E00081E00895E89409C097FB3EF4909580959B
:1034F000709561957F4F8F4F9F4F9923A9F0F92FBA
:1035000096E9BB279395F695879577956795B79537
:10351000F111F8CFFAF4BB0F11F460FF1BC06F5F1D
:103520007F4F8F4F9F4F16C0882311F096E911C02F
:10353000772321F09EE8872F762F05C0662371F050
:1035400096E8862F70E060E02AF09A95660F771F64
:10355000881FDAF7880F9695879597F90895990F40
:103560000008550FAA0BE0E8FEEF16161706E8074D
:10357000F907C0F012161306E407F50798F0621B6E
:10358000730B840B950B39F40A2661F0232B242B43
:10359000252B21F408950A2609F4A140A6958FEF62
:1035A000811D811D08950E94E61A0C94571B0E94EC
:1035B000491B38F00E94501B20F0952311F00C9409
:1035C000401B0C94461B11240C948B1B0E94681BFF
:1035D00070F3959FC1F3950F50E0551F629FF00166
:1035E000729FBB27F00DB11D639FAA27F00DB11D7F
:1035F000AA1F649F6627B00DA11D661F829F222708
:10360000B00DA11D621F739FB00DA11D621F839F8E
:10361000A00D611D221F749F3327A00D611D231F64
:10362000849F600D211D822F762F6A2F11249F57B2
:1036300050409AF0F1F088234AF0EE0FFF1FBB1FB5
:10364000661F771F881F91505040A9F79E3F510574
:1036500080F00C94401B0C948B1B5F3FE4F3983E6E
:10366000D4F3869577956795B795F795E7959F5F1E
:10367000C1F7FE2B880F911D9695879597F90895B0
:1036800097F99F6780E870E060E008959FEF80EC15
:10369000089500240A9416161706180609060895B8
:1036A00000240A9412161306140605060895092E1E
:1036B0000394000C11F4882352F0BB0F40F4BF2B8D
:1036C00011F460FF04C06F5F7F4F8F4F9F4F0895CD
:1036D00057FD9058440F551F59F05F3F71F04795C3
:1036E000880F97FB991F61F09F3F79F087950895A8
:1036F000121613061406551FF2CF4695F1DF08C0C7
:10370000161617061806991FF1CF869571056105E3
:1037100008940895E894BB2766277727CB0197F98B
:1037200008950E949C1BA59F900DB49F900DA49F8F
:10373000800D911D11240895A29FB001B39FC00177
:10374000A39F700D811D1124911DB29F700D811DCD
:103750001124911D0895AA1BBB1B51E107C0AA1F8C
:10376000BB1FA617B70710F0A61BB70B881F991F22
:103770005A95A9F780959095BC01CD010895A1E2D5
:103780001A2EAA1BBB1BFD010DC0AA1FBB1FEE1FDB
:10379000FF1FA217B307E407F50720F0A21BB30B26
:1037A000E40BF50B661F771F881F991F1A9469F7A2
:1037B00060957095809590959B01AC01BD01CF01FE
:1037C0000895EE0FFF1F881F8BBF0790F691E02D25
:1037D00019945058BB27AA270E94011C0C94571B10
:1037E0000E94491B38F00E94501B20F039F49F3F83
:1037F00019F426F40C94461B0EF4E095E7FB0C94A8
:10380000401BE92F0E94681B58F3BA176207730721
:103810008407950720F079F4A6F50C948A1B0EF422
:10382000E0950B2EBA2FA02D0B01B90190010C01D0
:10383000CA01A0011124FF27591B99F0593F50F4E8
:10384000503E68F11A16F040A22F232F342F442740
:10385000585FF3CF469537952795A795F040539538
:10386000C9F77EF41F16BA0B620B730B840BBAF008
:103870009150A1F0FF0FBB1F661F771F881FC2F773
:103880000EC0BA0F621F731F841F48F48795779587
:103890006795B795F7959E3F08F0B0CF9395880F41
:1038A00008F09927EE0F9795879508950E94701B51
:1038B00088F09F5798F0B92F9927B751B0F0E1F0F1
:1038C000660F771F881F991F1AF0BA95C9F714C0A1
:1038D000B13091F00E948A1BB1E008950C948A1BCC
:1038E000672F782F8827B85F39F0B93FCCF38695DA
:1038F00077956795B395D9F73EF490958095709537
:1039000061957F4F8F4F9F4F08950E94AF1A08F423
:103910008FEF08950F931F93CF93DF93823091051C
:1039200010F482E090E0E0911F05F091200530E076
:1039300020E0B0E0A0E0309799F42115310509F4BA
:103940004AC0281B390B24303105D8F58A819B8168
:103950006115710589F1FB0193838283FE0111C01A
:10396000408151810281138148175907E0F04817BF
:10397000590799F4109761F012960C9312971396C9
:103980001C933296CF01DF91CF911F910F91089533
:1039900000931F0510932005F4CF2115310551F038
:1039A0004217530738F0A901DB019A01BD01DF017D
:1039B000F801C1CFEF01F9CF9093200580931F0547
:1039C000CDCFFE01E20FF31F819391932250310975
:1039D00039832883D7CF20911D0530911E05232BD5
:1039E00041F4209102023091030230931E0520938E
:1039F0001D0520910002309101022115310541F48D
:103A00002DB73EB74091040250910502241B350B9F
:103A1000E0911D05F0911E05E217F307A0F42E1B9F
:103A20003F0B2817390778F0AC014E5F5F4F241722
:103A3000350748F04E0F5F1F50931E0540931D053C
:103A4000819391939FCFF0E0E0E09CCFCF93DF9301
:103A50000097E9F0FC01329713821282A0911F05B2
:103A6000B0912005ED0130E020E01097A1F4208115
:103A70003181820F931F20911D0530911E0528175B
:103A8000390709F061C0F0931E05E0931D05DF9131
:103A9000CF910895EA01CE17DF07E8F54A815B81EF
:103AA0009E0141155105B1F7E901FB83EA83499174
:103AB0005991C40FD51FEC17FD0761F480819181E6
:103AC0000296840F951FE9019983888382819381EF
:103AD0009B838A83F0E0E0E012968D919C9113978E
:103AE0000097B9F52D913C911197CD010296820F67
:103AF000931F20911D0530911E052817390739F6AF
:103B0000309751F51092200510921F05B0931E05B5
:103B1000A0931D05BCCFD383C28340815181840F04
:103B2000951FC817D90761F44E5F5F4F888199814F
:103B3000480F591F518340838A819B8193838283DD
:103B40002115310509F0B0CFF0932005E0931F0552
:103B50009ECFFD01DC01C0CF13821282D7CF4F92DE
:103B60005F926F927F928F929F92AF92BF92CF920D
:103B7000DF92EF92FF920F931F93CF93DF938C010D
:103B8000009799F4CB01DF91CF911F910F91FF9096
:103B9000EF90DF90CF90BF90AF909F908F907F90ED
:103BA0006F905F904F900C948A1CFC01E60FF71FFA
:103BB0009C0122503109E217F30708F4AEC0D90185
:103BC000CD91DC911197C617D70720F1C530D105EB
:103BD00078F0CE0104978617970750F0C61BD70BD5
:103BE0002297C193D1936D937C93CF010E94261DA0
:103BF000C801DF91CF911F910F91FF90EF90DF905F
:103C0000CF90BF90AF909F908F907F906F905F907C
:103C10004F9008955B01AC1ABD0A4C018C0E9D1E9D
:103C2000A0911F05B0912005512C412CF12CE12CC5
:103C3000109731F580911D0590911E058815990505
:103C400009F05CC04616570608F058C08091000283
:103C500090910102009741F48DB79EB74091040204
:103C600050910502841B950BE817F90708F055C021
:103C7000F0931E05E0931D05F90171836083B8CFB1
:103C80008D919C91119712966C90129713967C903F
:103C90001397A815B90559F56C0142E0C40ED11C63
:103CA000CA14DB0420F1AC014A195B09DA0112964F
:103CB000159780F06282738251834083D9016D939E
:103CC0007C93E114F10471F0D7011396FC93EE9309
:103CD00012978ECF22968C0F9D1FF90191838083BE
:103CE000F301EFCFF0932005E0931F0581CF481635
:103CF000590608F42C017D01D3019ACFCB010E9413
:103D00008A1C7C01009749F0AE01B8010E94951E03
:103D1000C8010E94261D87016BCF10E000E068CF2C
:103D200081E090E0F8940C94AE1EFB01DC0102C02F
:103D300001900D9241505040D8F70895FB01DC01ED
:103D40008D91019080190110D9F3990B0895FB0111
:103D5000DC0101900D920020E1F7089511E0CDE71C
:103D6000D1E000E006C0802FFE010E94E11B2196F9
:103D7000011DCE37D10780E00807A9F7F894FFCFDF
:103D8000000021058000030003000300030003007E
:103D9000030003000300030003006F0372037D03AD
:103DA0008D039A03A3039C014F015401F401F40114
:103DB000AB03B303BB03C303CB03D303DB03E303B3
:103DC000000000005C03C602F302A90324030203FF
:103DD0001603000000001304C602A60412046F04B8
:103DE0008504FA030000000082068908D3126D12D0
:103DF0001D1400000000A904AD08E311821168132E
:103E00000000010003000400050016001800170060
:103E1000090008000700060005002F2F22225C5C25
:103E20006208660C6E0A720D7409000D0A005C755A
:103E300030303030006E756C6C00747275650066E1
:103E4000616C73650074696D6500616E616C6F67AC
:103E5000006C656400457272657572204A534F4E5E
:103E60003A2000457272657572204C697265204D6A
:103E70006573736167652046696C616972650045A9
:103E80007272657572204C697265204D657373613D
:103E9000676520426C7565746F6F7468004170705F
:103EA0007579650052656C61636865720045727270
:103EB0006575720045727265757220457461742073
:103EC000426F75746F6E7320696E76616C6964659C
:103ED00000426F75676572004A6F79737469636B2E
:103EE00000416363656C65726F6D65747265004F48
:103EF0006B00456D707479496E70757400496E631E
:103F00006F6D706C657465496E70757400496E767E
:103F1000616C6964496E707574004E6F4D656D6FAC
:103F2000727900546F6F4465657000426F75746FED
:103F30006E3100426F75746F6E3200426F75746F30
:103F40006E3300426F75746F6E3400426F75746F1C
:103F50006E3500426F75746F6E3600426F75746F08
:0C3F60006E3700426F75746F6E38000001
:00000001FF
