:100000000C947E010C94AF010C94AF010C94AF01E1
:100010000C94AF010C94AF010C94AF010C94AF01A0
:100020000C94AF010C94331A0C94331A0C94331AB9
:100030000C94AF010C94AF010C94AF010C94AF0180
:100040000C94AF010C94AF010C94AF010C94AF0170
:100050000C94AF010C94AF010C94AF010C9489196E
:100060000C94AF010C94FD190C94D3190C94AF01AE
:100070000C94AF010C94AF010C94AF010C94AF0140
:100080000C94AF010C94AF010C94AF010C94AF0130
:100090000C94AF010C94AF010C94AF010C94AF0120
:1000A0000C94AF010C94AF010C94AF010C94AF0110
:1000B0000C94AF010C94AF010C94AF010C94AF0100
:1000C0000C94AF010C94AF010C94AF010C94AF01F0
:1000D0000C94AF010C94AF010C94AF010C94AF01E0
:1000E0000C94AF010C9438020C9412020C9432025E
:1000F0000C94F2030C944B030C94FA1E0C940C0217
:100100000C940F030C943C020C94F2040C946416AF
:100110000C9437020C94FC180C945B040C945F0351
:100120000C942E020C941C020C946D030C942A0265
:100130000C9420020C94FD010C94B8040C94570A02
:100140000C94A7170C9458080C9405020C94300AD0
:100150000C9496180C945C040C9402030C94A50364
:100160000C9416020C9443040C9409020C9424027F
:100170000C943C030C94DD1A0C94EF040C940818B6
:100180000C9461150C94F7010C94CE040C940102AC
:100190000000803FCDCCCC3D6F12833A95BFD63363
:1001A0007D1D9026B3CE010C00000A0B02090C0D38
:1001B0000E0807030401000000000000000000001A
:1001C000000000000000000000000000000000002F
:1001D00000000000121110000000000000000000EC
:1001E000000000000000000000000000000000000F
:1001F00020410000C84200401C4620BCBE4CCA1B27
:100200000E5AAEC59D74CDCCCC3D0AD7233C17B752
:10021000D13877CC2B329595E6241FB14F0A0000D8
:1002200020002300260029002C002F0032000001AE
:10023000000003010601090100002100240027003D
:100240002A002D00300033000101000004010701E5
:100250000A0100002200250028002B002E0031009A
:10026000340002010000050108010B010505050528
:10027000070508080808020202020A0A080804041E
:10028000040401010101010101010303030303034C
:100290000303040707070C0C0C0C0C0C0C0C0202DB
:1002A000020206060606060606060B0B0B0B0B0BD8
:1002B0000B0B010210202008081020401020408065
:1002C000020102010804020101020408102040801A
:1002D00080402010080402018004020180402010A8
:1002E00008040201080402010102040810204080F1
:1002F0000102040810204080DD1AFA1E11241FBEDE
:10030000CFEFD1E2DEBFCDBF00E00CBF24E0A0EB19
:10031000B3E001C01D92AC3FB207E1F713E0A0E0EB
:10032000B2E0ECEEF6E400E00BBF02C007900D92E5
:10033000A03BB107D9F711E0CDE7D1E000E006C05E
:1003400021970109802FFE010E949720CC37D10709
:1003500080E00807A9F70E946E1C0C9464230C949B
:100360000000EDEFF3E0A089B18982E08C93A485D1
:10037000B5851C92A685B7858FEC8C93108EA489C9
:10038000B58986E08C93A289B3898C9180618C9326
:10039000A289B3898C9188608C93A289B3898C914E
:1003A00080688C930288F389E02D80818F7D808323
:1003B00008958150823108F05AC0E82FF0E0882774
:1003C000EB51FE4F8F4F0C94972005020902F70165
:1003D000FD01010237020C02120216021C02200269
:1003E00024022A022E023702320238023C02809195
:1003F00080008F77809380000895809180008F7DAA
:10040000F9CF80918000877FF5CF84B58F7784BD49
:10041000089584B58F7DFBCF8091B0008F77809356
:10042000B00008958091B0008F7DF9CF8091900049
:100430008F77809390000895809190008F7DF9CF01
:1004400080919000877FF5CF8091A0008F77809377
:10045000A00008958091A0008F7DF9CF8091A00029
:10046000877FF5CF809120018F77809320010895B9
:10047000809120018F7DF9CF80912001877FF5CF7A
:10048000CF93DF93282F30E0F901E855FE4F849198
:10049000F901EE54FD4FD491F901E459FD4FC49197
:1004A000CC23A1F081110E94D901EC2FF0E0EE0FD6
:1004B000FF1FE25EFD4FA591B491EC91ED2381E029
:1004C00090E009F480E0DF91CF91089580E090E022
:1004D000FACF863308F0865320917B00982F9870CE
:1004E000277F922B90937B008770806480937C00A1
:1004F00080917A00806480937A0080917A0086FDF2
:10050000FCCF809178009091790008950F931F930C
:10051000CF93DF93C0E7D2E001EE14E0888122960A
:100520000E946902F801819391938F01F2E0CA372A
:10053000DF07A1F7DF91CF911F910F9108953FB78A
:10054000F8948091F5039091F603A091F703B09190
:10055000F80326B5A89B05C02F3F19F00196A11DF1
:10056000B11D3FBFBA2FA92F982F8827BC01CD01FD
:10057000620F711D811D911D42E0660F771F881F5C
:10058000991F4A95D1F708958F929F92AF92BF928B
:10059000CF92DF92EF92FF924B015C010E949F028B
:1005A0006B017C010E949F026C197D098E099F09D5
:1005B000683E734081059105A8F321E0821A9108F5
:1005C000A108B10888EEC80E83E0D81EE11CF11C1A
:1005D00081149104A104B10429F7FF90EF90DF90FA
:1005E000CF90BF90AF909F908F9008952FB7F894C1
:1005F0006091F1037091F2038091F3039091F40301
:100600002FBF089508950895DC01ED91FC910280BB
:10061000F381E02D42E050E06AE872E01994AF9275
:10062000BF92CF92DF92EF92FF920F931F93CF93DF
:10063000DF936C017B018B01040F151FEB015E0141
:10064000AE18BF08C017D10759F06991D601ED91D6
:10065000FC910190F081E02DC6011995892B79F765
:10066000C501DF91CF911F910F91FF90EF90DF9027
:10067000CF90BF90AF900895FC01538D448D252FEE
:1006800030E0842F90E0821B930B541710F0CF962C
:10069000089501970895FC01918D828D981761F05E
:1006A000A28DAE0FBF2FB11D5D968C91928D9F5F75
:1006B0009F73928F90E008958FEF9FEF0895FC0154
:1006C000918D828D981731F0828DE80FF11D858D07
:1006D00090E008958FEF9FEF0895FC01918D228D9A
:1006E000892F90E0805C9F4F821B91098F7399271F
:1006F00008958DEF93E00E946D0321E0892B09F4AA
:1007000020E0822F0895FC01A48DA80FB92FB11D00
:10071000A35ABF4F2C91848D90E001968F73992737
:10072000848FA689B7892C93A089B1898C91837015
:1007300080648C93938D848D981306C00288F3890E
:10074000E02D80818F7D80830895EF92FF920F933B
:100750001F93CF93DF93EC0181E0888F9B8D8C8D6D
:1007600098131AC0E889F989808185FF15C09FB761
:10077000F894EE89FF896083E889F9898081837024
:10078000806480839FBF81E090E0DF91CF911F91D3
:100790000F91FF90EF900895F62E0B8D10E00F5FF4
:1007A0001F4F0F731127E02E8C8D8E110CC00FB6CA
:1007B00007FCFACFE889F989808185FFF5CFCE0162
:1007C0000E948303F1CFEB8DEC0FFD2FF11DE35A57
:1007D000FF4FF0829FB7F8940B8FEA89FB898081E5
:1007E0008062CFCFCF93DF93EC01888D8823B9F05F
:1007F000AA89BB89E889F9898C9185FD03C080812C
:1008000086FD0DC00FB607FCF7CF8C9185FFF2CFA8
:10081000808185FFEDCFCE010E948303E9CFDF9178
:10082000CF91089580E090E0892B29F00E94790310
:1008300081110E94000080E090E0892B49F080E067
:1008400090E0892B29F00E94000081110E94000095
:1008500080E090E0892B49F080E090E0892B29F03E
:100860000E94000081110E94000080E090E0892B2E
:1008700049F080E090E0892B29F00E94000081116E
:100880000C94000008952091FB033091FC0328177D
:10089000390771F49091F9038091FA03981741F0A8
:1008A000E091F903F0E0E055FC4F808190E008957D
:1008B0008FEF9FEF08950895EF92FF920F931F938C
:1008C000CF93DF93DC015C96ED90FC905D97E11493
:1008D000F10479F481E090E013969C938E93129743
:1008E00090E080E0DF91CF911F910F91FF90EF900A
:1008F00008955196ED91FC91529750968C91509796
:10090000982F90950FB75E962C915E97122F1270CC
:1009100021FD6095F8942081112319F1282B208363
:10092000E7012197F1F728E0462F50E0308160FF82
:100930001AC0382B3083E7012197F1F7BA0175957A
:100940006795215089F7112381F080818923808365
:100950000FBF5C968D919C910197F1F781E090E03B
:10096000C1CF2923DCCF3923E5CF9081892BEFCF6D
:100970002091FB033091FC032817390761F4809123
:10098000FA032091F90390E0805C9F4F821B91094C
:100990008F739927089590E080E008952091FB03DC
:1009A0003091FC0328173907B9F49091F90380912D
:1009B000FA03981789F0E091F903F0E0E055FC4F55
:1009C00080812091F90330E02F5F3F4F2F73332751
:1009D0002093F90390E008958FEF9FEF089590E042
:1009E00080E008950895CF93DF93EC018881998189
:1009F000DC01ED91FC910190F081E02D19952A81A7
:100A00003B81820F931F9B838A83DF91CF9108954F
:100A1000CF93DF93EC0188819981DC01ED91FC910A
:100A20000280F381E02D19952A813B81820F931F6B
:100A30009B838A83DF91CF9108958F929F92AF928B
:100A4000BF92CF92DF92EF92FF920F931F93CF93BB
:100A5000DF93CDB7DEB766970FB6F894DEBF0FBE53
:100A6000CDBF6C018E01095E1F4F78018AE0882E90
:100A7000912CA12CB12CCB01BA01A50194010E94AB
:100A80007520942F852F605DF80162938F01A90175
:100A9000692F782F411551056105710561F7A7018F
:100AA0004E1B5F0BBF01C6010E94080566960FB67C
:100AB000F894DEBF0FBECDBFDF91CF911F910F9194
:100AC000FF90EF90DF90CF90BF90AF909F908F906E
:100AD00008952F923F924F925F926F927F928F92E2
:100AE0009F92AF92BF92CF92DF92EF92FF920F93BD
:100AF0001F93CF93DF9300D000D0CDB7DEB71C019A
:100B00004A015B0186E0D1011A968C9320E836E910
:100B100048E15BE4CB01B4010E943B2187FD7DC02D
:100B200004E110E060E2462E512C1E821D82F80185
:100B3000E251FE4F2591359145915491C501B40183
:100B40000E943B2187FD13C0F801EA5FFD4F25910C
:100B5000359145915491C501B4010E94891F4B0103
:100B60005C01ED81FE81E40DF51DFE83ED8355945E
:100B70004794045011090C3FFFEF1F07C1F677247B
:100B80007A9420E030E0A901C501B4010E943B2124
:100B900018160CF04AC02CEA35EC47E257E3C501C1
:100BA000B4010E94231F18160CF43FC0272D34E017
:100BB000230280011124F12CE12CC80180579E4FA3
:100BC0006C0102511E4F9FEF791679F1F601EE0D7F
:100BD000FF1D2591359145915491C501B4010E94A5
:100BE000231F87FF13C0F801EE0DFF1D25913591DE
:100BF00045915491C501B4010E94891F4B015C01CC
:100C0000AD81BE81A419B509BE83AD8355944794C7
:100C10007A94B4E0EB1AF108D6CF30E2432E512C8F
:100C200045E0742E1E821D82ACCF2D813E81F101E4
:100C300031872087C501B4010E940C2169837A8322
:100C40008B839C83D1016D937D938D939C9313979C
:100C50002B013C0190E4C92E92E4D92E9FE0E92EAD
:100C6000F12CBAE04B16510461047104C8F0C701BD
:100C7000B6012AE030E040E050E00E9475206901B2
:100C80007A01F101828581508287C301B2012AE095
:100C900030E040E050E00E94752029013A01E1CFA8
:100CA00069817A818B819C810E94281F9B01AC0104
:100CB000C501B4010E949F204B015C01C701B60130
:100CC0000E94281F9B01AC01C501B4010E94891F2D
:100CD0002B013C010E940C214B015C010E94281F4A
:100CE0009B01AC01C301B2010E949F209B01AC019A
:100CF0000E94A0200E940C21860E971EA81EB91EDD
:100D00008C149D04AE04BF0430F5D10114968D926D
:100D10009D92AD92BC9217978AE0C82ED12CE12CFF
:100D2000F12CD10114966D917D918D919C91179725
:100D3000A70196010E947520672B682B692B89F506
:100D4000F101828518166CF5248335834683578319
:100D500081508287E6CFF1011482158216821782B4
:100D600089819A81AB81BC810196A11DB11D8083CF
:100D70009183A283B3832D813E812115310561F2D8
:100D80000A97A105B10540F2C901019691878087B4
:100D900081E090E0A0E0B0E080839183A283B38300
:100DA000BBCF26960FB6F894DEBF0FBECDBFDF9146
:100DB000CF911F910F91FF90EF90DF90CF90BF9058
:100DC000AF909F908F907F906F905F904F903F90EB
:100DD0002F90089580339CF08A3324F08F3524F0CF
:100DE0008B3724F481E0089581344CF08B35D4F3B3
:100DF00093ED980F81E09230B0F380E008958B324C
:100E0000B9F7F0CFCF92DF92EF92FF920F931F933B
:100E1000CF93DF93EC018C85811130C009851A8551
:100E20000E94F602D80118966D937D938D939C9342
:100E30001B97D801ED91FC910284F385E02DC80148
:100E4000199597FF25C00E94F602F801C084D1844D
:100E5000E284F3846C197D098E099F09C480D580D2
:100E6000E680F7806C157D058E059F0510F38FEFEA
:100E70009FEF97FD80E08B8781E08C878B85DF91EA
:100E8000CF911F910F91FF90EF90DF90CF90089539
:100E90009927EFCF1F93CF93DF93EC01162F0E947A
:100EA0000207811306C01C8681E0DF91CF911F915C
:100EB000089580E0FACFCF93DF93EC01CE010E943A
:100EC00002078B303CF489304CF4882349F081E0F0
:100ED000888710C08D3011F08032C9F71C86EECFA4
:100EE000888581110AC081E090E0C15BDF4F998362
:100EF000888380E0DF91CF91089582E090E0F5CF84
:100F00000895FC0185859F01275F3F4F85FD02C045
:100F100030E020E0B901CF010895FC010E969183E5
:100F20008083938382838C509E4F958384839783A1
:100F300086831086158608950F931F93CF93DF93B2
:100F4000DB0112962D913C91EC01E881F9818A81B7
:100F50009B81DF01A20FB31FA817B907A8F44C911A
:100F600041110EC0EB01A881B981EF018D01020F83
:100F7000131FA017B10751F05D9149915417C9F3A0
:100F800041914111FDCFE5CFF0E0E0E0CF01DF91ED
:100F9000CF911F910F910895EF92FF920F931F939E
:100FA000CF93DF9300D01F92CDB7DEB749835A832A
:100FB0006B837C83042F152F0115110569F490E0D4
:100FC00080E00F900F900F900F90DF91CF911F91C5
:100FD0000F91FF90EF9008957C01BE016F5F7F4FEE
:100FE0000E949C07009769F72B813C81F701828161
:100FF0009381A9014F5F5F4F480F591F648175812D
:101000006417750718F481E08087D9CF5383428332
:101010000097A9F2F801DC01BF01620F731F6E1780
:101020007F0719F041914D93FACF280F391FF9012D
:101030001082C7CFCF92DF92EF92FF920F931F9350
:10104000CF93DF93EA01209751F1FC012081318198
:101050002115310569F48C8180788C8381E0DF91E2
:10106000CF911F910F91FF90EF90DF90CF90089557
:101070007B0104811581A901B801C7010E94CC0739
:101080009C0150E040E0892B11F042E053E09C814C
:101090009078452B31F49C8381E0232B01F780E08D
:1010A000DECF95609C83398328831B830A83F4CF2A
:1010B000FC0188E592E09183808386E492E0978347
:1010C0008683CF0106962091FB033091FC032817FD
:1010D000390759F4A18DB28D9C91838D8095892318
:1010E0008C931092FC031092FB030895FC01248161
:1010F0003581A9014F5F5F4F868197814817590756
:1011000048F48281938155834483FC01E20FF31FED
:10111000608308950190F081E02D81E0808708953B
:101120009F92AF92BF92CF92DF92EF92FF920F9376
:101130001F93CF93DF9300D01F921F92CDB7DEB7DE
:101140008C010E940207D82ED8011C961C92F12C0B
:10115000E12C60EFC62EC8010E940207F801148638
:10116000D81609F4BDC0811119C0F801E15BFF4F29
:1011700082E090E09183808380E00F900F900F9049
:101180000F900F90DF91CF911F910F91FF90EF90F3
:10119000DF90CF90BF90AF909F9008958C3509F06D
:1011A0009DC0C8010E9402078823F9F2EDE8F2E031
:1011B000853709F087C0D8011C961C9254E0952E03
:1011C000B12CA12CC8010E940207882371F281343E
:1011D0004CF48053803148F0F801E15BFF4F83E02D
:1011E00090E0C8CF8F7D8753F5CF44E0AA0CBB1C9D
:1011F0004A95E1F7A82AF80114869A949110E2CF53
:10120000C501985D8115944020F4750123E0F22218
:10121000A2CFC5019C5D81159440A8F4B3E0BB2228
:10122000B701762F6627770F770F6A297B2990E021
:1012300080E00196603871058105910540F4C80190
:101240000E94760888CFB50190E080E0F3CF198244
:10125000262F2F7320682A8326E096958795779509
:1012600067952A95D1F76032710580F4606C6B83C5
:101270005E01E4E0AE0EB11CD5016E915D01662306
:1012800009F469CFC8010E947608F6CF262F2F7384
:1012900020682B8386E0769567958A95E1F7603123
:1012A000710538F4606E6C835E01F5E0AF0EB11C21
:1012B000E3CF60686C83CD825E0126E0A20EB11C94
:1012C000DBCF32969081992309F486CF8913F9CF29
:1012D0008181882309F480CFF8011486682FAFCF6D
:1012E0000190F081E02D8085882331F0F801E15BE9
:1012F000FF4F84E090E03ECF81E03FCFCF93DF937C
:10130000DC01EB01EC81FD818A819B810896E81765
:10131000F90740F481E08887F0E0E0E0CF01DF9159
:10132000CF9108953897FD83EC833097B9F31296E7
:10133000CD91DC911397209791F0CF018C1B9D0BE1
:1013400023E0959587952A95E1F78D831396FC9375
:10135000EE9312971582148217821682DFCF1196B0
:10136000FC93EE93F3CFCF92DF92EF92FF920F9325
:101370001F93CF93DF9300D01F92CDB7DEB76C01E0
:101380008B01DC011296ED90FC90FA82E9827C835D
:101390006B83BE016F5F7F4F0E949C07009761F4D3
:1013A000F701E00FF11FCF010196D60113969C9330
:1013B0008E9312971082C7010F900F900F900F908D
:1013C000DF91CF911F910F91FF90EF90DF90CF9021
:1013D0000895FC012581222339F0F8E02F029001C5
:1013E0001124820F931F089590E080E00895EF92FA
:1013F000FF920F931F93CF93DF936115710519F13E
:101400007B018C01FC01C081D181209731F0CE019C
:101410000E94E909E816F906E9F4C7010E94E90902
:101420002097D1F020E0009741F09C012C1B3D0B50
:1014300043E0359527954A95E1F72D83892B19F4DB
:10144000F801D383C283DF91CF911F910F91FF9059
:10145000EF900895EC01D9CFF80191838083EECF0E
:101460000C94DC21CF93DF93EC0188819981009764
:1014700011F00E94DC21198218821D821C821B82BD
:101480001A82DF91CF910895FC01808191810097AC
:1014900011F00C94DC210895CF93DF93EC010696B4
:1014A0000E94440ACE01DF91CF910C94440ACF935D
:1014B000DF93EC010E945808CE01DF91CF910C948C
:1014C000DC210E9446236F927F928F929F92AF926F
:1014D000BF92CF92DF92EF92FF920F931F93CF9321
:1014E000DF93EC018C81982F9F7739F480788062AC
:1014F0008C83198218821B821A828C8185FD11C00F
:1015000080E090E0DF91CF911F910F91FF90EF90DD
:10151000DF90CF90BF90AF909F908F907F906F9013
:1015200008957A014115510559F389014A015B017A
:10153000888199816B013501640E751E0097E9F071
:10154000DC011696ED91FC91B0E0A0E0309739F007
:10155000DF010D900020E9F71197AE1BBF0BCA16F3
:10156000DB0641F4D7016A167B0661F23D912191B9
:101570003217C9F30E94E909E1CFB801CE010E94F8
:101580007E097C01892B29F4B701CE010E94F7095D
:10159000B7CFB501A401C8010E94CC079C01892BDB
:1015A00099F3F70194819068948337832683C70168
:1015B000A9CFFB0101900020E9F73197AF01461B4D
:1015C000570B0C9408051F93CF93DF93EDE8F2E0DF
:1015D0001281112379F0329621816213F9CFEC0147
:1015E0006CE50E94F304612FCE01DF91CF911F9132
:1015F0000C94F3046111F9CF6EE972E0DF91CF91A1
:101600001F910C94D90A4F925F926F927F928F92A2
:101610009F92AF92BF92CF92DF92EF92FF920F9381
:101620001F93CF93DF93CDB7DEB7A1970FB6F89492
:10163000DEBF0FBECDBF7C018B01FC0184818F77A3
:10164000863009F45CC160F4823098F0C280D380A7
:10165000A080B180843008F023C1A601B501CAC0C2
:101660008C3051F148F4883009F444C18A3009F4CF
:101670002AC165EA72E04AC1803209F4DDC08034D3
:10168000C1F76BE5C8010E94F304F701E080F18027
:10169000E114F10409F4B2C0B801C7010E94030BC0
:1016A000C7010E94E9097C01892B09F4A7C06CE2FB
:1016B000C8010E94F304ECCF80809180A280B380A7
:1016C000A5019401C501B4010E94231F8111D1CF4E
:1016D00020E030E0A901C501B4010E94231F882346
:1016E00079F0A5019401C501B4010E94A0209B01DD
:1016F000AC01C501B4010E94231F882309F4B9CFAE
:1017000020E030E0A901C501B4010E94231F87FF3A
:1017100008C06DE2C8010E94F304B7FAB094B7F8AC
:10172000B0946E01F7E1CF0ED11CB501A401C60142
:101730000E9469054F89588D698D7A8DC8010E9474
:101740001D05F9A0FF2091F16B8D7C8D8D8D9E8DF7
:101750004E0121E1820E911CEF2C54012AE0422E11
:10176000512C612C712CEA94EFEFEE1659F0A30185
:1017700092010E947520605DF40162934F01B901EE
:10178000CA01F1CF8F2D90E0BC0160957095F501F5
:10179000E81BF90B31978EE2808344275527461BBF
:1017A000570B6A0D7B1DC8010E9408058F8D98A1FB
:1017B000892B41F165E6C8010E94F304EF8CF8A083
:1017C000C701F7FE08C06DE2C8010E94F304882734
:1017D00099278E199F09F6012AE030E0B9010E948D
:1017E0006120805D8293CB010097C1F7A6014E1B5B
:1017F0005F0BBF01C8010E94080504C06DE5C80168
:101800000E94F304F80182819381A1960FB6F894A7
:10181000DEBF0FBECDBFDF91CF911F910F91FF9023
:10182000EF90DF90CF90BF90AF909F908F907F9080
:101830006F905F904F9008956BE7C8010E94F3048A
:10184000F701E080F180E114F10441F1F701A68095
:10185000B78062E2C8010E94F3046501F60161915C
:101860006F01662321F0C8010E94E30AF7CF62E20C
:10187000C8010E94F3046AE3C8010E94F304B8019E
:10188000C7010E94030BC7010E94E9097C01892B53
:1018900029F06CE2C8010E94F304D5CF6DE7AFCF09
:1018A00062E2C8010E94F3047501CE0CDF1CCE1465
:1018B000DF0439F0F70161917F01C8010E94E30A5A
:1018C000F6CF62E29CCFC080D180E280F380B70186
:1018D000A601F7FE0BC06DE2C8010E94F304442785
:1018E0005527BA014C195D096E097F09C8010E948C
:1018F0001D0588CF4081518162817381F7CF80813E
:101900006AEA72E0811102C06FEA72E0C8010E94C7
:10191000D90A78CFCF93DF9300D01F92CDB7DEB72F
:101920007A8369831C821B82BE016F5F7F4F099699
:101930000E94030B0F900F900F900F90DF91CF91AB
:101940000895CF93DF93FC011182108213821282DB
:1019500081E0848316821582108617824115510515
:10196000F9F0DA0114968C9114978095881F8827D6
:10197000881F1696CD91DC91B0E0A0E0209739F059
:10198000DE010D900020E9F71197AC1BBD0BD18350
:10199000C083B383A2838483568345837087678320
:1019A000DF91CF9108950F931F93CF93DF938C0115
:1019B000EB01FC01808191810097E1F068817981E0
:1019C00061157105A9F0428153812C813D81421737
:1019D000530770F00E945D238C819D81F8019583EF
:1019E00084831D821C82DF91CF911F910F910895F6
:1019F0000E94DC2188819981F801918380838A810A
:101A00009B81938382838C819D81958384831982BA
:101A100018821B821A82E5CF0F931F93CF93DF9317
:101A2000EC0188819981009759F02A813B81261722
:101A3000370730F081E0DF91CF911F910F9108952A
:101A40008B016F5F7F4F0E946522009759F0998349
:101A500088831B830A832C813D81232B59F7FC014A
:101A60001082E8CF80E0E7CFEF92FF920F931F93B1
:101A7000CF93DF93EC017B018A01BA010E940C0D28
:101A800081110BC0CE010E94320ACE01DF91CF91AD
:101A90001F910F91FF90EF9008951D830C83B70164
:101AA000888199810E945D23F0CFCF93DF93EC0171
:101AB0006115710571F0FB0101900020E9F7319784
:101AC000AF01461B570B0E94340DCE01DF91CF9121
:101AD00008950E94320AF9CFCF93DF93EC01FB0106
:101AE0008617970749F0608171816115710541F092
:101AF000448155810E94340DCE01DF91CF9108952C
:101B00000E94320AF9CFFC011182108213821282E4
:101B1000158214820C946C0D0F931F93CF93DF9357
:101B2000EC018A010E94830DB801CE010696DF9177
:101B3000CF911F910F910C94830DFC0111821082A3
:101B400013821282158214826115710551F0FB0116
:101B500001900020E9F73197AF01461B570B0C9419
:101B6000340D08952F923F924F925F926F927F9221
:101B70008F929F92AF92BF92CF92DF92EF92FF929D
:101B80000F931F93CF93DF9300D000D01F921F922B
:101B9000CDB7DEB72C011B01E0909E04F0909F04AE
:101BA00080919C0490919D048E159F050CF47DC03E
:101BB00088E2E816F1040CF078C0EE0CFF1C99E204
:101BC000E916F1041CF058E2E52EF12C67018FEFC5
:101BD0009FEFE114E0E1FE0638F4C70143E0880F0F
:101BE000991F4A95E1F702960E9440214C01F401A9
:101BF000E192F1923F018F01F1E0CF1AD108D7FEB7
:101C000025C06401B12CA12C00919A0410919B0471
:101C100080919C0490919D04A816B906FCF4C6011D
:101C200088199909080F191FB801C60102960E9468
:101C30006C0DF80186819781F60191878087FFEF0F
:101C4000AF1ABF0A88E0C80ED11CDECF6DE972E082
:101C5000C8010E949D0D085F1F4FCECF01151105D1
:101C6000E1F0F80132978081918133E0880F991F6C
:101C70003A95E1F7080F191F980180919A04909105
:101C80009B04085011098217930721F0C8010E9494
:101C9000440AF2CF02970E94DC2170929B0460926A
:101CA0009A04F0929F04E0929E0420919C0430914B
:101CB0009D0480919E0490919F042817390774F524
:101CC000B201FE0131967F01CF010E94830D38865B
:101CD0002F8200919A0410919B0480919C04909112
:101CE0009D049C012F5F3F4F30939D0420939C04E3
:101CF00023E0880F991F2A95E1F7080F191FE016B6
:101D0000F10621F0B701C8010E94D30C8F8198859C
:101D1000F80197838683C7010E94440A28960FB66C
:101D2000F894DEBF0FBECDBFDF91CF911F910F9111
:101D3000FF90EF90DF90CF90BF90AF909F908F90EB
:101D40007F906F905F904F903F902F900895CF922B
:101D5000DF92EF92FF920F931F93CF93DF938C014B
:101D6000DC019296ED91FC91E80FF91F12826C0153
:101D7000B2E0CB0ED11CC114D10449F1F60101909F
:101D80000020E9F73197EC19FD09F1F0DC01ED9045
:101D9000FC90D7011496CD91DC91CE0FDF1FBE01D0
:101DA000C7010E940C0D882391F0F7012081318139
:101DB00084819581B601820F931F0E945D23D70114
:101DC0001596DC93CE931497F80113A212A2D801B2
:101DD00092968D919C91DF91CF911F910F91FF90E1
:101DE000EF90DF90CF9008951F93CF93DF93EC0196
:101DF000162F8AA19BA101968097B8F48AA19BA176
:101E00009C012F5F3F4F3BA32AA38C0F9D1FFC011A
:101E1000128321E030E08CA19DA1820F931F9DA32E
:101E20008CA3DF91CF911F910895CE010E94A70E40
:101E3000892B21F330E020E0EECFBF92CF92DF92EA
:101E4000EF92FF920F931F93CF93DF93EC016A0100
:101E50008B017B01E40EF51EE016F106D1F0F801CE
:101E6000B1908F018AA19BA10196809760F48AA10D
:101E70009BA19C012F5F3F4F3BA32AA38C0F9D1F6B
:101E8000FC01B282E9CFCE010E94A70E892B79F323
:101E9000E3CF4CA15DA14C0D5D1D5DA34CA3DF9173
:101EA000CF911F910F91FF90EF90DF90CF90BF9057
:101EB00008958F929F92AF92BF92CF92DF92EF924E
:101EC000FF920F931F93CF93DF93CDB7DEB7669743
:101ED0000FB6F894DEBF0FBECDBF6C018E01095E58
:101EE0001F4F78018AE0882E912CA12CB12CCB01B8
:101EF000BA01A50194010E947520942F852F605D81
:101F0000F80162938F01A901692F782F41155105BE
:101F10006105710561F7A7014E1B5F0BBF01C6018B
:101F20000E941D0F66960FB6F894DEBF0FBECDBFA0
:101F3000DF91CF911F910F91FF90EF90DF90CF90A5
:101F4000BF90AF909F908F900895FB01019000206B
:101F5000E9F73197AF01461B570B0C941D0F1F93E8
:101F6000CF93DF93EDE8F2E01281112379F03296FE
:101F700021816213F9CFEC016CE50E94F40E612F10
:101F8000CE01DF91CF911F910C94F40E6111F9CF26
:101F90006EE972E0DF91CF911F910C94A50F4F92E3
:101FA0005F926F927F928F929F92AF92BF92CF92E9
:101FB000DF92EF92FF920F931F93CF93DF93CDB7F2
:101FC000DEB7A1970FB6F894DEBF0FBECDBF7C0180
:101FD0008B01FC0184818F77863009F45CC160F449
:101FE000823098F0C280D380A080B180843008F025
:101FF00023C1A601B501CAC08C3051F148F4883024
:1020000009F444C18A3009F42AC165EA72E04AC180
:10201000803209F4DDC08034C1F76BE5C8010E944D
:10202000F40EF701E080F180E114F10409F4B2C08C
:10203000B801C7010E94CF0FC7010E94E9097C01C6
:10204000892B09F4A7C06CE2C8010E94F40EECCF02
:1020500080809180A280B380A5019401C501B40164
:102060000E94231F8111D1CF20E030E0A901C501DA
:10207000B4010E94231F882379F0A5019401C501B2
:10208000B4010E94A0209B01AC01C501B4010E94D3
:10209000231F882309F4B9CF20E030E0A901C5014E
:1020A000B4010E94231F87FF08C06DE2C8010E948F
:1020B000F40EB7FAB094B7F8B0946E01F7E1CF0E12
:1020C000D11CB501A401C6010E9469054F89588D34
:1020D000698D7A8DC8010E94590FF9A0FF2091F1F6
:1020E0006B8D7C8D8D8D9E8D4E0121E1820E911C1C
:1020F000EF2C54012AE0422E512C612C712CEA94D1
:10210000EFEFEE1659F0A30192010E947520605D79
:10211000F40162934F01B901CA01F1CF8F2D90E014
:10212000BC0160957095F501E81BF90B31978EE2C3
:10213000808344275527461B570B6A0D7B1DC8011A
:102140000E941D0F8F8D98A1892B41F165E6C80172
:102150000E94F40EEF8CF8A0C701F7FE08C06DE2F4
:10216000C8010E94F40E882799278E199F09F6014D
:102170002AE030E0B9010E946120805D8293CB01AA
:102180000097C1F7A6014E1B5F0BBF01C8010E945B
:102190001D0F04C06DE5C8010E94F40EF80184A172
:1021A00095A1A1960FB6F894DEBF0FBECDBFDF910B
:1021B000CF911F910F91FF90EF90DF90CF90BF9044
:1021C000AF909F908F907F906F905F904F90089509
:1021D0006BE7C8010E94F40EF701E080F180E11482
:1021E000F10441F1F701A680B78062E2C8010E94C4
:1021F000F40E6501F60161916F01662321F0C801BB
:102200000E94AF0FF7CF62E2C8010E94F40E6AE3AA
:10221000C8010E94F40EB801C7010E94CF0FC70188
:102220000E94E9097C01892B29F06CE2C8010E9417
:10223000F40ED5CF6DE7AFCF62E2C8010E94F40E75
:102240007501CE0CDF1CCE14DF0439F0F70161916B
:102250007F01C8010E94AF0FF6CF62E29CCFC08021
:10226000D180E280F380B701A601F7FE0BC06DE2DA
:10227000C8010E94F40E44275527BA014C195D0984
:102280006E097F09C8010E94590F88CF4081518192
:1022900062817381F7CF80816AEA72E0811102C0A6
:1022A0006FEA72E0C8010E94A50F78CF0F931F93C9
:1022B000CF93DF93CDB7DEB7C65BD1090FB6F894E5
:1022C000DEBF0FBECDBF8C01CB010115110509F496
:1022D0005AC0F80124812F77243009F44AC02530F0
:1022E00009F447C0CD56DF4F99838883C359D04046
:1022F000CB54DF4F19821882C55BD04084E2FE01C7
:10230000ED56FF4FDE01A159BF4F01900D928A9506
:10231000E1F784E2FE01E159FF4FDE01A55BBF4F0B
:1023200001900D928A95E1F784E2FE01E55BFF4F93
:10233000DE01979601900D928A95E1F784E2FE0105
:10234000B796DE01119601900D928A95E1F71EA2D3
:102350001DA2CE0187960E94A70ECE01855B9F4FDE
:102360000E94A70EBE016F5F7F4FC8010E94CF0F72
:1023700050C0F801608171816115710509F4B2CF17
:102380000E94550D54C0CD56DF4F79836883C359E1
:10239000D040CB54DF4F19821882C55BD04084E215
:1023A000FE01ED56FF4FDE01A159BF4F01900D9286
:1023B0008A95E1F784E2FE01E159FF4FDE01A55B5A
:1023C000BF4F01900D928A95E1F784E2FE01E55B33
:1023D000FF4FDE01979601900D928A95E1F784E216
:1023E000FE01B796DE01119601900D928A95E1F7F4
:1023F0001EA21DA2CE0187960E94A70ECE01855B6C
:102400009F4F0E94A70E65EA72E0CE0101960E94DE
:10241000A50FCE0101960E94A70ECE0181599F4FB4
:102420000E94A70ECE018D569F4F0E94A70ECA5440
:10243000DF4F0FB6F894DEBF0FBECDBFDF91CF9157
:102440001F910F9108950F931F93CF93DF93D0E0C7
:10245000C0E06115710591F08B01FC01C081D18153
:10246000209761F06E817F81C8010E945423892BDF
:1024700029F0CE010E94E909EC01F2CFCE01DF91F3
:10248000CF911F910F9108954F925F926F927F921B
:10249000BF92CF92DF92EF92FF920F931F93CF9351
:1024A000DF93EC018B01E42E0E945B07F82E811173
:1024B00010C0F12C8F2DDF91CF911F910F91FF90C4
:1024C000EF90DF90CF90BF907F906F905F904F9094
:1024D0000895CE010E940207873209F42BC10CF542
:1024E000823209F427C1CE010E940207B82E6E0184
:1024F000FFE0CF0ED11CE12C36018B2D0E94EA06A5
:10250000882309F443C12FE3E21609F43FC11C8676
:10251000E394F601B1926F01CE010E940207B82E3A
:10252000ECCF8B3509F44AC08B37E9F6F80184818A
:102530008078806284831182108213821282EE205E
:1025400009F447C01C86CE010E945B07882309F46A
:10255000B0CF6DE7CE010E944A07D82E8111AACFD5
:10256000CC24C394EA94E881F981828193819B838E
:102570008A838481958122813381821B930B9F837F
:102580008E831D821C82892B09F4C086CE010E9495
:102590000207873209F45DC0823209F45AC0CE01C5
:1025A0000E940207F82E0E94EA06811159C0C15B01
:1025B000DF4F83E090E09983888350C0F8018481E5
:1025C0008078806484831182108213821282E110E9
:1025D00007C0C15BDF4F85E090E09983888369CFB6
:1025E0001C86CE010E945B07882309F462CF6DE54B
:1025F000CE010E944A0781115DCFEA946D857E85E8
:10260000C8010E947E09009729F4C15BDF4F84E076
:1026100090E0E3CF4E2DBC01CE010E9444128823EE
:1026200009F447CFCE010E945B07882309F441CF0C
:102630006DE5CE010E944A0781113CCF6CE2CE01CC
:102640000E944A078111DACFC15BDF4F83E090E03F
:10265000C4CFCE010E949008811119C0FD2C2ACF51
:102660001C866F2DCE010E947608CE010E940207C3
:10267000F82E0E94EA068111F3CFE881F981808566
:10268000882329F0C15BDF4F84E090E094CFCE0136
:102690000E945B07882311F36AE3CE010E944A0778
:1026A000882309F484CFEA81FB818C819D81E80F26
:1026B000F91F10826C807D806A817B81C8010E9435
:1026C0002312BC01892BA1F4B301888199810E9456
:1026D000B3093C016D857E85C8010E947E09FC011D
:1026E000892B81F284818068848377826682BF012E
:1026F0004E2DCE010E944412882309F4AFCFCE01A3
:102700000E945B07882309F4A9CF6DE7CE010E94E0
:102710004A0781110DC06CE2CE010E944A0788234E
:1027200009F445CFCE010E945B0781111CCF96CFE3
:10273000D82E94CFE881F981828193819B838A830B
:102740008481958122813381821B930B9F838E83A9
:102750001D821C82892B11F481E08087CE010E94AA
:102760009008F82E882309F4A4CECC80DD80B60131
:10277000888199810E94B309F8012481207825601D
:10278000248391838083D382C28294CEFE01EE0D96
:10279000F11D17868F85843781F4F8018481807854
:1027A0008660848381E08083F4E0EF1609F482CEB2
:1027B000C15BDF4F82E090E010CF863641F4F80134
:1027C00084818078866084831082F5E0EECF8E3637
:1027D00021F424E0E212ECCF6DCE8B32D9F1F3017B
:1027E0008D32D1F5FE017096BF2C808190ED980F4F
:1027F0009A3018F08E3209F027CF6F0160E070E058
:10280000CB01F6012191A0ED4A2E420E39E034159C
:1028100028F16A3949E97407840749E1940740F5CA
:10282000AAE0B0E09B01AC010E944720512C712C22
:10283000612CA30192012095309540955095261763
:10284000370748075907A0F0640D751D861D971DB1
:102850006F01D7CFFE017096B12CC7CF211108C0F0
:10286000BB2071F161307105810550E89507A0F03A
:10287000E12CEAE04E2E512C612C712C6115710572
:10288000F0E88F07910530F1A30192010E947520B5
:10289000CA01B901E394F2CFF801248120782A60BB
:1028A00024839B01AC0188279927DC01821B930BB1
:1028B000A40BB50B80839183A283B383FB2CFACD49
:1028C000F8012481207828602483608371838283C7
:1028D0009383F0CDD601F60121916F0130ED320FD7
:1028E0003A3010F4E394F6CF2E32F1F4FD01319634
:1028F000DF0131962C9150EDD52ED20E29E02D1509
:1029000098F06C3C3CEC73073CE08307910580F742
:10291000AAE0B0E09B01AC010E9447206D0D711D43
:10292000811D911DEA94E4CF2C912F7D253409F06F
:102930008CC011962C9111972D32D9F512967F2CBF
:10294000FD0130E020E0CE2C0E2C000CDD084AE02A
:10295000542EDF01619040ED460D4A3008F043C02F
:10296000529EA001539E500D1124262D660C330B50
:1029700020533109240F351FA601420F531F473240
:1029800051053CF3F80184817720D1F040E050E01C
:1029900060E070E8B11003C040E050E0BA01807818
:1029A0008C60F80184834083518362837383F72CA6
:1029B00081CD2B3219F01196712CC2CF1296FCCF1B
:1029C00040E050E060E87FEFB11004C040E050E02C
:1029D00060E87FE780788C60F801848340835183CE
:1029E0006283738367CD772019F031952195310982
:1029F0004C91411129CEE901CE0DD11DE7FCDA95AC
:102A00000E94281F1C161D061CF5E12CC0FF0CC0DF
:102A100024E0E29EF0011124E251FE4F2591359110
:102A2000459154910E94891FD595C795E3942097AD
:102A300069F7B1109058F801248120782C60248324
:102A4000608371838283938335CD30E020E0D0CFE3
:102A5000D195C195D109E12C209759F3C0FF0CC045
:102A600044E0E49EF0011124EA5FFD4F2591359189
:102A7000459154910E94891FD595C795E394ECCF59
:102A80000F931F93CF93DF93EC018B010E944412AD
:102A9000FE01E15BFF4F80819181892B79F48B8569
:102AA000882361F0D80114968C9183FF07C083E0DE
:102AB00090E0DF91CF911F910F91089580819181D6
:102AC000F8CF8F929F92AF92BF92EF92FF920F93A7
:102AD0001F93CF93DF93CDB7DEB7CE56D2400FB65C
:102AE000F894DEBF0FBECDBF7C016DE972E0CE0170
:102AF0008D5F9D4F0E949D0D6DE972E08E010F5F0D
:102B00001F4FC8010E949D0DAE014D5F5D4FB80182
:102B1000C7010E948C0DC8010E94440ACE018D5F3E
:102B20009D4F0E94440A8DEF93E00E946D03892B14
:102B300009F4BEC0C8010E948D0789819A819C83D7
:102B40008B838F8198859E838D8319861E86C45AB8
:102B5000DD4F19830883CC55D24088E0FE01E45A4A
:102B6000FD4FDE01AC5ABD4F01900D928A95E1F701
:102B700088E0FE01EC5AFD4FDE01AD5FBD4F0190D4
:102B80000D928A95E1F7C55FDD4F1882CB50D24098
:102B90008DEF93E0C45FDD4F99838883CC50D240A2
:102BA000C15FDD4F1882CF50D240C05FDD4F198327
:102BB0000883C051D240CE5ADD4F19821882C255C7
:102BC000D2404AE0BE01665F7F4FCE018D5F9D4FD0
:102BD0000E944015892BC9F4C8010E948107FB019E
:102BE000309739F5C701C259DD4F0FB6F894DEBFF3
:102BF0000FBECDBFDF91CF911F910F91FF90EF904E
:102C0000BF90AF909F908F90089565EB72E0CE01DA
:102C10008D5F9D4F0E949D0D61E070E0CE018D5F44
:102C20009D4F0E94B20DCE018D5F9D4F0E94440AC0
:102C3000D9CF4081518141155105A1F2BC01CE018E
:102C40008D5F9D4F0E94A10C85E0FE01ED5FFD4F61
:102C5000DE01A659BD4F01900D928A95E1F7C65944
:102C6000DD4F68817981CA56D240C7010E94550D57
:102C7000C85FDD4F88809980AA80BB80C850D24051
:102C80006DE972E0CE018C599D4F0E949D0DBE01F1
:102C90006C597D4FC4010E945611BE016C597D4F85
:102CA000C70106960E94D30CCE018C599D4FBECF12
:102CB0006EEC72E0C8010E949D0D61E070E0C801F9
:102CC0000E94B20DC801B2CF8F929F92AF92BF9275
:102CD000CF92DF92EF92FF920F931F93CF93DF93E8
:102CE000CDB7DEB7CE56D2400FB6F894DEBF0FBEDA
:102CF000CDBF7C016B016DE972E0CE018D5F9D4F10
:102D00000E949D0D6DE972E08E010F5F1F4FC8019B
:102D10000E949D0DAE014D5F5D4FB801C7010E943D
:102D20008C0DC8010E94440ACE018D5F9D4F0E9408
:102D3000440A86E0C80ED11CC6010E94B804892B43
:102D400009F4BEC0C8010E948D0789819A819C83C5
:102D50008B838F8198859E838D8319861E86C45AA6
:102D6000DD4F19830883CC55D24088E0FE01E45A38
:102D7000FD4FDE01AC5ABD4F01900D928A95E1F7EF
:102D800088E0FE01EC5AFD4FDE01AD5FBD4F0190C2
:102D90000D928A95E1F7C55FDD4F1882CB50D24086
:102DA000C45FDD4FD982C882CC50D240C15FDD4FB5
:102DB0001882CF50D240C05FDD4F19830883C051C5
:102DC000D240CE5ADD4F19821882C255D2404AE015
:102DD000BE01665F7F4FCE018D5F9D4F0E94401503
:102DE000892BD9F4C8010E948107FB01309749F56E
:102DF000C701C259DD4F0FB6F894DEBF0FBECDBF7D
:102E0000DF91CF911F910F91FF90EF90DF90CF90C6
:102E1000BF90AF909F908F90089567EE72E0CE01C3
:102E20008D5F9D4F0E949D0D61E070E0CE018D5F32
:102E30009D4F0E94B20DCE018D5F9D4F0E94440AAE
:102E4000D7CF408151814115510591F2BC01CE018E
:102E50008D5F9D4F0E94A10C85E0FE01ED5FFD4F4F
:102E6000DE01A659BD4F01900D928A95E1F7C65932
:102E7000DD4F68817981CA56D240C7010E94550D45
:102E8000C85FDD4F88809980AA80BB80C850D2403F
:102E90006DE972E0CE018C599D4F0E949D0DBE01DF
:102EA0006C597D4FC4010E945611BE016C597D4F73
:102EB000C70106960E94D30CCE018C599D4FBECF00
:102EC0006FEF72E0C8010E949D0D61E070E0C801E3
:102ED0000E94B20DC801B2CFEF92FF920F931F93E1
:102EE000CF93DF93EC018C81982F9F7739F4807812
:102EF00080628C83198218821B821A828C8185FFE2
:102F000016C06115710599F07A018B01CE010E94FE
:102F100023120097A9F4B701CE010E947E09FC019B
:102F2000892B41F470E060E0CE010E94F70980E057
:102F300090E006C084818F77848317830683CF0156
:102F4000DF91CF911F910F91FF90EF900895CF9255
:102F5000DF92EF92FF920F931F93CF93DF93CDB742
:102F6000DEB7C250D2400FB6F894DEBF0FBECDBF61
:102F70008B01CE0101960E948D070E94F6026B0123
:102F80007C01AE014F5F5F4F67E173E0CE010A96AF
:102F90000E946C17FC01892B41F094819078986015
:102FA0009483C082D182E282F382AE014F5F5F4F91
:102FB0006CE173E0CE010A960E946C17FC01892B2C
:102FC00061F0948190789A609483012E000C220B1A
:102FD000330B00831183228333836DEF73E0CE01C3
:102FE00001960E948A0C8DEF93E00E94040381E019
:102FF000CE5FDD4F0FB6F894DEBF0FBECDBFDF91C1
:10300000CF911F910F91FF90EF90DF90CF90089597
:103010008F929F92AF92BF92CF92DF92EF92FF92E8
:103020000F931F93CF93DF93CDB7DEB7C051D2403C
:103030000FB6F894DEBF0FBECDBF6B018E010F5FE0
:103040001F4FC8010E948D070E94F6024B015C01D0
:10305000A80167E173E0CE010A960E946C17FC019B
:10306000892B41F09481907898609483808291823A
:10307000A282B382B601CE01855F9D4F0E94830D6F
:10308000CE018D5F9D4FFC01019311937F01BE0125
:10309000655F7D4FCF010E94830DCE01855F9D4FFF
:1030A0000E94440ACD5FDD4FA880B980C350D24052
:1030B000CB5FDD4F48815981C550D240C75FDD4F9E
:1030C00068817981C950D2409501C50109960E9455
:1030D000630AAC01B501C60106960E941A08C70131
:1030E0000E94440A6DEF73E0C8010E948A0C8DEFC4
:1030F00093E00E9404036AE070E080E090E00E94A8
:10310000C40281E0C05FDD4F0FB6F894DEBF0FBE92
:10311000CDBFDF91CF911F910F91FF90EF90DF9086
:10312000CF90BF90AF909F908F9008958F929F9275
:10313000AF92BF92EF92FF920F931F93CF93DF93C3
:10314000CDB7DEB7C250D2400FB6F894DEBF0FBE87
:10315000CDBF7C018B01CE0101960E948D070E949C
:10316000F6024B015C01AE014F5F5F4F67E173E018
:10317000CE010A960E946C17FC01892B41F09481C4
:1031800090789860948380829182A282B382AE010B
:103190004F5F5F4F6CE173E0CE010A960E946C179F
:1031A000FC01892B61F0948190789A609483012EC0
:1031B000000C220B330B00831183228333836DEFCA
:1031C00073E0CE0101960E948A0CC70106960E9408
:1031D000040381E0CE5FDD4F0FB6F894DEBF0FBE73
:1031E000CDBFDF91CF911F910F91FF90EF90BF90D6
:1031F000AF909F908F9008958F929F92AF92BF92C1
:10320000CF92DF92EF92FF920F931F93CF93DF93B2
:10321000CDB7DEB7C051D2400FB6F894DEBF0FBEB7
:10322000CDBF8C016B01CE0101967C010E948D0700
:103230000E94F6024B015C01A70167E173E0CE0139
:103240000A960E946C17FC01892B41F094819078BA
:103250009860948380829182A282B382B601CE016B
:10326000855F9D4F0E94830DFE01ED5FFD4FE19252
:10327000F1925F01BE01655F7D4FCF010E94830D1A
:10328000CE01855F9D4F0E94440ACD5FDD4F88804F
:103290009980C350D240CB5FDD4F48815981C550E2
:1032A000D240C75FDD4F68817981C950D240940117
:1032B000C40109960E94630AAC01B401C6010696D6
:1032C0000E941A08C5010E94440A0A5F1F4FB801F4
:1032D000C7010E948A0CC8010E9404036AE070E0E2
:1032E00080E090E00E94C40281E0C05FDD4F0FB635
:1032F000F894DEBF0FBECDBFDF91CF911F910F912C
:10330000FF90EF90DF90CF90BF90AF909F908F9005
:1033100008951F920F920FB60F9211242F933F938F
:103320008F939F93AF93BF938091F1039091F2039A
:10333000A091F303B091F4033091F00323E0230F45
:103340002D3758F50196A11DB11D2093F0038093F0
:10335000F1039093F203A093F303B093F4038091ED
:10336000F5039091F603A091F703B091F80301964D
:10337000A11DB11D8093F5039093F603A093F7036D
:10338000B093F803BF91AF919F918F913F912F918F
:103390000F900FBE0F901F90189526E8230F0296EE
:1033A000A11DB11DD2CF1F920F920FB60F92112403
:1033B0000BB60F922F933F934F935F936F937F932F
:1033C0008F939F93AF93BF93EF93FF938DEF93E012
:1033D0000E948303FF91EF91BF91AF919F918F91D5
:1033E0007F916F915F914F913F912F910F900BBE05
:1033F0000F900FBE0F901F9018951F920F920FB64F
:103400000F9211240BB60F922F938F939F93EF93EC
:10341000FF93E0910D04F0910E048081E09113047C
:10342000F091140482FD1DC09081809116048F5F7D
:103430008F7320911704821741F0E0911604F0E099
:10344000E350FC4F958F80931604FF91EF919F916D
:103450008F912F910F900BBE0F900FBE0F901F906A
:1034600018958081F2CF1F920F920FB60F92112400
:103470000BB60F922F933F934F935F936F937F936E
:103480008F939F93AF93BF93EF93FF93E091FB03D1
:10349000F091FC03309749F0A685B7858585968D18
:1034A00091FF16C09C918923B1F4FF91EF91BF91D8
:1034B000AF919F918F917F916F915F914F913F91CC
:1034C0002F910F900BBE0F900FBE0F901F9018956D
:1034D0009C91892351F7A389B4899C918589809512
:1034E00089238C93868997890197F1F7608D718D77
:1034F000A685B785558538E020E0CB010197F1F727
:10350000822F90E095958795282F4C91452309F0BF
:103510002068315091F7868D81FD20958091FA03C6
:1035200090E001968F7399273091F903381799F03D
:10353000A091FA03B0E0A055BC4F2C938093FA03FE
:10354000828D938D0197F1F7A389B4898C91958928
:10355000892B8C93AACF868D8160868FF1CF1F93A4
:10356000CF93DF93282F30E0F901E855FE4F849187
:10357000F901EE54FD4FD491F901E459FD4FC49186
:10358000CC23A9F0162F81110E94D901EC2FF0E075
:10359000EE0FFF1FEE5AFD4FA591B4918FB7F8942F
:1035A000EC91111108C0D095DE23DC938FBFDF9121
:1035B000CF911F910895DE2BF8CFEF92FF920F93DA
:1035C0001F93CF93DF93109200041092FF0388EEB5
:1035D00093E0A0E0B0E08093010490930204A093F4
:1035E0000304B093040484E392E09093FE03809379
:1035F000FD0385EC90E090930A048093090484EC29
:1036000090E090930C0480930B0480EC90E09093F6
:103610000E0480930D0481EC90E09093100480934D
:103620000F0482EC90E0909312048093110486ECD6
:1036300090E0909314048093130410921604109257
:103640001704109218041092190480E1E6E0F2E0E9
:10365000A7ECB4E001900D928A95E1F78AE0E6E1EB
:10366000F2E0A7EDB4E001900D928A95E1F70E9497
:10367000F6026093EB047093EC048093ED04909356
:10368000EE041092EF041092F0041092F1041092E4
:10369000F2041092F3041092F4041092F5041092C4
:1036A000F60481E08093F704CAE7D2E007EC14E067
:1036B0007801888122960E944002F70181939193BC
:1036C0007F01F2E0CA38DF07A1F7C0E7D2E08881C6
:1036D00022960E946902F801819391938F01F2E092
:1036E000CA37DF07A1F70E94860286E692E0909330
:1036F000C6048093C5040E94B10188E592E09093CE
:10370000A1048093A0048AE190E09093A3048093A5
:10371000A20488E190E09093A5048093A404109201
:10372000A9041092A80488EE93E0A0E0B0E0809392
:10373000AA049093AB04A093AC04B093AD0486E4C8
:1037400092E09093A7048093A6041092BD04109277
:10375000BC041092BF041092BE041092C1041092D7
:10376000C0041092C3041092C2046091C4046E7F1E
:103770006D7F6093C4046695617081E068278AE17B
:103780000E94AF1A4CEC52E0FA01649186E892E094
:10379000FC012491222399F030E0220F331FF9011C
:1037A000E85CFD4FA591B491F901EE5AFD4F2591CA
:1037B00034912FB7F8943C91632B6C932FBFFA018F
:1037C00044914093B604FC018491E82FF0E0EE0FA1
:1037D000FF1FEE5AFD4F859194919093B80480930A
:1037E000B7040AEC12E0F8012491C4E8D2E0FE012B
:1037F00084918823C9F090E0880F991FFC01E85C50
:10380000FD4FA591B491FC01EE5AFD4F45915491A5
:103810003FB7F8949C91822F809598239C93FA014E
:103820009081892380833FBF8091C40481FD04C0BF
:1038300061E088E10E94AF1A88E18093B204F80148
:1038400004910093B304FE01C491EC2FF0E0EE0F5D
:10385000FF1FE25EFD4F859194919093B504809394
:10386000B4041092C1041092C0041092BF041092CC
:10387000BE041092BD041092BC048DE991E09093B7
:10388000C3048093C20410929D0410929C0405E02E
:1038900010E010939F0400939E048AE290E00E943F
:1038A0004021EC01099319938E017C01FAE2EF0E9D
:1038B000F11C6DE972E0C8010E949D0D085F1F4F69
:1038C000E016F106B1F7D0939B04C0939A04DF9100
:1038D000CF911F910F91FF90EF900895CF93DF93B9
:1038E000CDB7DEB76C970FB6F894DEBF0FBECDBF75
:1038F000789484B5826084BD84B5816084BD85B5CB
:10390000826085BD85B5816085BD80916E008160D6
:1039100080936E001092810080918100826080937C
:10392000810080918100816080938100809180007E
:103930008160809380008091B10084608093B100A9
:103940008091B00081608093B0008091910082608E
:10395000809391008091910081608093910080918B
:1039600090008160809390008091A100826080939C
:10397000A1008091A10081608093A1008091A000AE
:1039800081608093A0008091210182608093210159
:1039900080912101816080932101809120018160CB
:1039A0008093200180917A00846080937A008091D6
:1039B0007A00826080937A0080917A00816080939F
:1039C0007A0080917A00806880937A001092C1001A
:1039D0000E94B10160ED77E080E090E00E94C402B7
:1039E0000E94860280E190E00E9440217C013AE73B
:1039F000C32E32E0D32E1C018C01005F1F4F3C010F
:103A0000F6018081F2E0CF0ED11C0E944002F3014A
:103A1000819391933F01E017F10791F78AE090E0DD
:103A20000E9440218C0120E7A22E22E0B22E9C8F22
:103A30008B8F4C01FAE08F0E911C6C01F501808197
:103A4000F2E0AF0EB11C0E946902F60181939193DE
:103A50006F01E815F90591F70E94F602AB01BC0170
:103A60008091EB049091EC04A091ED04B091EE04F0
:103A70008C599F4FAF4FBF4F84179507A607B707C5
:103A800008F072C10E94F6026093EB047093EC049C
:103A90008093ED049093EE0487EC882E84E0982EBA
:103AA00090E2A92E92E0B92E9A8E898EE98DFA8D38
:103AB00081919191FA8FE98FF101419051901F010D
:103AC00084159505B9F1F501C080D18063E273E0FA
:103AD000009729F0019709F056C16BE273E0CE011F
:103AE00043960E949D0DB601CE010D960E949D0D3C
:103AF000AE014D5E5F4FBE01635F7F4FCE01019609
:103B00000E948C0DBE016F5F7F4F80EA94E00E949F
:103B1000FC18CE0101960E944C0ACE010D960E941F
:103B2000440ACE0143960E94440AE98DFA8D3297E9
:103B300051824082F2E0AF0EB11C2614370409F026
:103B4000B5CF198E212CD12CC12C8091E1049091FC
:103B5000E204F80120813181AC014F5C5F4F4217D4
:103B60005307BCF0C197281739079CF08091E304F4
:103B70009091E40422813381AC014F5C5F4F421786
:103B800053073CF0C197281739071CF0F1E0F09378
:103B9000F704F40180899189EB8DFC8DA190B1909F
:103BA000FC8FEB8F95012A563F4F2817390734F0C9
:103BB0002C523140821793070CF066C0F401828DBD
:103BC000938D9C012A563F4F2A153B0534F08659A8
:103BD0009109A816B9060CF057C0211055C03090B5
:103BE000F704332009F450C0F2E0CF16D1040CF0F2
:103BF0004BC04090F3045090F4046090F504709032
:103C0000F60484EF480E81E0581E611C711C0E946E
:103C1000F6026415750586059705B0F166E573E053
:103C2000CE0143960E949D0D6CE573E0CE010D968A
:103C30000E949D0DAE014D5E5F4FBE01635F7F4FE1
:103C4000CE0101960E948C0DBE016F5F7F4F80EA0E
:103C500094E00E94FC18CE0101960E944C0ACE010D
:103C60000D960E94440ACE0143960E94440A109287
:103C7000F7040E94F6026093F3047093F4048093B7
:103C8000F5049093F604232CF40120893189828D68
:103C9000938DAC014E5C5F4F421753072CF0C297D7
:103CA000281739070CF052C0F98DF1114FC082E08E
:103CB000C816D1040CF44AC04090EF045090F004B0
:103CC0006090F1047090F20494EF490E91E0591E57
:103CD000611C711C0E94F602641575058605970526
:103CE000A8F166E573E0CE0143960E949D0D65E65E
:103CF00073E0CE010D960E949D0DAE014D5E5F4FAB
:103D0000BE01635F7F4FCE0101960E948C0DBE0104
:103D10006F5F7F4F80EA94E00E94FC18CE0101960D
:103D20000E944C0ACE010D960E94440ACE01439691
:103D30000E94440A0E94F6026093EF047093F0041C
:103D40008093F1049093F204E1E0E98FF401B18AE9
:103D5000A08AFFEFCF1ADF0A82E0880E911C95E05F
:103D6000C916D10409F0F1CEE114F10419F0C7012C
:103D70000E94DC210115110519F0C8010E94DC2107
:103D80000E9412042FCE62E373E0CE0143960E949C
:103D90009D0DB601CE010D960E949D0DAE014D5EAA
:103DA0005F4FBE01635F7F4FCE0101960E948C0D75
:103DB000BE016F5F7F4F80EA94E00E94FC18CE0145
:103DC00001960E944C0ACE010D960E94440ACE0133
:103DD00043960E94440A69E373E0CE0101960E9473
:103DE0009D0D62E070E0CE0101960E94B20DCE0101
:103DF000019699CECF93DF93C0919A04D0919B0402
:103E00002097D9F0FE0132978081918123E0880FBD
:103E1000991F2A95E1F7C80FD91F9E0180919A0436
:103E200090919B0428978217930721F0CE010E945E
:103E3000440AF3CF02970E94DC2180EA94E0DF91EC
:103E4000CF910C9458080E94651F08F481E00895F2
:103E5000E89409C097FB3EF4909580957095619524
:103E60007F4F8F4F9F4F9923A9F0F92F96E9BB27DA
:103E70009395F695879577956795B795F111F8CF56
:103E8000FAF4BB0F11F460FF1BC06F5F7F4F8F4FC1
:103E90009F4F16C0882311F096E911C0772321F0B7
:103EA0009EE8872F762F05C0662371F096E8862F4F
:103EB00070E060E02AF09A95660F771F881FDAF7A6
:103EC000880F9695879597F90895990F0008550FD3
:103ED000AA0BE0E8FEEF16161706E807F907C0F090
:103EE00012161306E407F50798F0621B730B840B98
:103EF000950B39F40A2661F0232B242B252B21F472
:103F000008950A2609F4A140A6958FEF811D811D11
:103F100008950E949C1F0C940D200E94FF1F38F0F2
:103F20000E94062020F0952311F00C94F61F0C94AB
:103F3000FC1F11240C9441200E941E2070F3959FB9
:103F4000C1F3950F50E0551F629FF001729FBB2790
:103F5000F00DB11D639FAA27F00DB11DAA1F649F2C
:103F60006627B00DA11D661F829F2227B00DA11DDF
:103F7000621F739FB00DA11D621F839FA00D611D65
:103F8000221F749F3327A00D611D231F849F600D86
:103F9000211D822F762F6A2F11249F5750409AF0AF
:103FA000F1F088234AF0EE0FFF1FBB1F661F771F3B
:103FB000881F91505040A9F79E3F510580F00C9406
:103FC000F61F0C9441205F3FE4F3983ED4F38695AE
:103FD00077956795B795F795E7959F5FC1F7FE2BA6
:103FE000880F911D9695879597F9089597F99F6782
:103FF00080E870E060E008959FEF80EC0895002471
:104000000A941616170618060906089500240A943D
:1040100012161306140605060895092E0394000CC3
:1040200011F4882352F0BB0F40F4BF2B11F460FF52
:1040300004C06F5F7F4F8F4F9F4F089557FD90587B
:10404000440F551F59F05F3F71F04795880F97FB5C
:10405000991F61F09F3F79F0879508951216130616
:104060001406551FF2CF4695F1DF08C01616170645
:104070001806991FF1CF869571056105089408957A
:10408000E894BB2766277727CB0197F908950E940C
:104090005220A59F900DB49F900DA49F800D911D5F
:1040A00011240895A29FB001B39FC001A39F700D7A
:1040B000811D1124911DB29F700D811D1124911D30
:1040C0000895AA1BBB1B51E107C0AA1FBB1FA6175F
:1040D000B70710F0A61BB70B881F991F5A95A9F7B1
:1040E00080959095BC01CD010895A1E21A2EAA1BDE
:1040F000BB1BFD010DC0AA1FBB1FEE1FFF1FA21798
:10410000B307E407F50720F0A21BB30BE40BF50B94
:10411000661F771F881F991F1A9469F7609570951D
:10412000809590959B01AC01BD01CF010895EE0FE4
:10413000FF1F881F8BBF0790F691E02D19945058F0
:10414000BB27AA270E94B7200C940D200E94FF1FB6
:1041500038F00E94062020F039F49F3F19F426F42D
:104160000C94FC1F0EF4E095E7FB0C94F61FE92F6E
:104170000E941E2058F3BA17620773078407950739
:1041800020F079F4A6F50C9440200EF4E0950B2E67
:10419000BA2FA02D0B01B90190010C01CA01A00199
:1041A0001124FF27591B99F0593F50F4503E68F1F4
:1041B0001A16F040A22F232F342F4427585FF3CF35
:1041C000469537952795A795F0405395C9F77EF406
:1041D0001F16BA0B620B730B840BBAF09150A1F04F
:1041E000FF0FBB1F661F771F881FC2F70EC0BA0FD5
:1041F000621F731F841F48F4879577956795B7955D
:10420000F7959E3F08F0B0CF9395880F08F0992757
:10421000EE0F9795879508950E94262088F09F5766
:1042200098F0B92F9927B751B0F0E1F0660F771FDA
:10423000881F991F1AF0BA95C9F714C0B13091F0D0
:104240000E944020B1E008950C944020672F782F01
:104250008827B85F39F0B93FCCF386957795679595
:10426000B395D9F73EF490958095709561957F4F01
:104270008F4F9F4F08950E94651F08F48FEF089598
:104280000F931F93CF93DF938230910510F482E058
:1042900090E0E091FA04F091FB0430E020E0B0E01F
:1042A000A0E0309799F42115310509F44AC0281B84
:1042B000390B24303105D8F58A819B816115710550
:1042C00089F1FB0193838283FE0111C040815181FA
:1042D0000281138148175907E0F04817590799F4EC
:1042E000109761F012960C93129713961C933296C6
:1042F000CF01DF91CF911F910F9108950093FA04A0
:104300001093FB04F4CF2115310551F042175307E8
:1043100038F0A901DB019A01BD01DF01F801C1CF2D
:10432000EF01F9CF9093FB048093FA04CDCFFE0107
:10433000E20FF31F8193919322503109398328832F
:10434000D7CF2091F8043091F904232B41F4209128
:104350000202309103023093F9042093F804209173
:104360000002309101022115310541F42DB73EB70D
:104370004091040250910502241B350BE091F80492
:10438000F091F904E217F307A0F42E1B3F0B281756
:10439000390778F0AC014E5F5F4F2417350748F0BE
:1043A0004E0F5F1F5093F9044093F804819391934B
:1043B0009FCFF0E0E0E09CCFCF93DF930097E9F050
:1043C000FC01329713821282A091FA04B091FB048F
:1043D000ED0130E020E01097A1F420813181820FBF
:1043E000931F2091F8043091F9042817390709F038
:1043F00061C0F093F904E093F804DF91CF91089540
:10440000EA01CE17DF07E8F54A815B819E0141157D
:104410005105B1F7E901FB83EA8349915991C40F32
:10442000D51FEC17FD0761F4808191810296840FFE
:10443000951FE90199838883828193819B838A8375
:10444000F0E0E0E012968D919C9113970097B9F5FA
:104450002D913C911197CD010296820F931F2091CF
:10446000F8043091F9042817390739F6309751F5D7
:104470001092FB041092FA04B093F904A093F8048C
:10448000BCCFD383C28340815181840F951FC8174D
:10449000D90761F44E5F5F4F88819981480F591F9A
:1044A000518340838A819B819383828321153105C7
:1044B00009F0B0CFF093FB04E093FA049ECFFD0126
:1044C000DC01C0CF13821282D7CF4F925F926F92DE
:1044D0007F928F929F92AF92BF92CF92DF92EF9294
:1044E000FF920F931F93CF93DF938C01009799F462
:1044F000CB01DF91CF911F910F91FF90EF90DF9053
:10450000CF90BF90AF909F908F907F906F905F9073
:104510004F900C944021FC01E60FF71F9C012250A4
:104520003109E217F30708F4AEC0D901CD91DC914F
:104530001197C617D70720F1C530D10578F0CE0105
:1045400004978617970750F0C61BD70B2297C19385
:10455000D1936D937C93CF010E94DC21C801DF9140
:10456000CF911F910F91FF90EF90DF90CF90BF9070
:10457000AF909F908F907F906F905F904F90089535
:104580005B01AC1ABD0A4C018C0E9D1EA091FA0471
:10459000B091FB04512C412CF12CE12C109731F5FA
:1045A0008091F8049091F9048815990509F05CC090
:1045B0004616570608F058C08091000290910102FB
:1045C000009741F48DB79EB74091040250910502C7
:1045D000841B950BE817F90708F055C0F093F90410
:1045E000E093F804F90171836083B8CF8D919C91B9
:1045F000119712966C90129713967C901397A815AA
:10460000B90559F56C0142E0C40ED11CCA14DB0493
:1046100020F1AC014A195B09DA011296159780F076
:104620006282738251834083D9016D937C93E1143C
:10463000F10471F0D7011396FC93EE9312978ECF8D
:1046400022968C0F9D1FF90191838083F301EFCF98
:10465000F093FB04E093FA0481CF4816590608F45E
:104660002C017D01D3019ACFCB010E9440217C0116
:10467000009749F0AE01B8010E944B23C8010E9487
:10468000DC2187016BCF10E000E068CF81E090E093
:10469000F8940C946423FB01DC0102C001900D929C
:1046A00041505040D8F70895FB01DC018D910190F5
:1046B00080190110D9F3990B0895FB01DC010190D9
:1046C0000D920020E1F7089511E0CDE7D1E000E080
:1046D00006C0802FFE010E9497202196011DCE3733
:0C46E000D10780E00807A9F7F894FFCF8D
:1046EC000000FC048000030003000300030003002F
:1046FC000300030003000300030003000300030096
:10470C0073037B038203890391039803A003A8031B
:10471C0000000000A5030F033C03F2036D034B03E1
:10472C005F03000000005C040F03EF045B04B8049B
:10473C00CE044304000000005808570AFC189618D1
:10474C00641600000000F204300A0818A71761155F
:10475C00000001000300040005000C000B000A001F
:10476C00090008000700060005000D0A002F2F2283
:10477C00225C5C6208660C6E0A720D7409005C7532
:10478C0030303030006E756C6C007472756500667C
:10479C00616C7365004572726575722046696C6157
:1047AC00697265206D7367204552524F52004572F5
:1047BC00726575722046696C61697265206E6F6EE8
:1047CC002D646973706F0045727265757220427446
:1047DC006F6F7468206D7367204552524F520045BD
:1047EC0072726575722042746F6F7468206E6F6E92
:1047FC002D646973706F0074696D6500616E616C16
:10480C006F670052656C6163686500417070757903
:10481C00650045727265757200457272657572201D
:10482C004574617420426F75746F6E7320696E7677
:10483C00616C69646500426F756765004A6F7973D6
:10484C007469636B00416363656C65726F6D65744D
:10485C007265004274526F756765004274426C65F4
:10486C0075004274566572740042744A61756E65C7
:10487C0000424D6175766500426F75746F6E36003F
:10488C00426F75746F6E3700426F75746F6E3800BF
:00000001FF
