:100000000C947E010C94AF010C94AF010C94AF01E1
:100010000C94AF010C94AF010C94AF010C94AF01A0
:100020000C94AF010C941A1A0C941A1A0C941A1A04
:100030000C94AF010C94AF010C94AF010C94AF0180
:100040000C94AF010C94AF010C94AF010C94AF0170
:100050000C94AF010C94AF010C94AF010C94701987
:100060000C94AF010C94E4190C94BA190C94AF01E0
:100070000C94AF010C94AF010C94AF010C94AF0140
:100080000C94AF010C94AF010C94AF010C94AF0130
:100090000C94AF010C94AF010C94AF010C94AF0120
:1000A0000C94AF010C94AF010C94AF010C94AF0110
:1000B0000C94AF010C94AF010C94AF010C94AF0100
:1000C0000C94AF010C94AF010C94AF010C94AF01F0
:1000D0000C94AF010C94AF010C94AF010C94AF01E0
:1000E0000C94AF010C94B5040C9401020C94170A03
:1000F0000C943C020C941C020C9432030C942303C9
:100100000C9412020C940C020C942A040C94E31824
:100110000C942E020C9424020C9416020C94EF17EB
:100120000C94D9040C9437020C9420020C942A02EB
:100130000C9432020C943F080C9438020C94D903AE
:100140000C9448150C947D180C94FD010C94E90254
:100150000C9443040C941B1F0C94F6020C94C41AC8
:100160000C9446030C948C030C944B160C94F701DE
:100170000C949F040C948E170C9454030C9442041A
:100180000C94D6040C943E0A0C9405020C940902BB
:100190000000803FCDCCCC3D6F12833A95BFD63363
:1001A0007D1D9026B3CE010C00000A0B02090C0D38
:1001B0000E0807030401000000000000000000001A
:1001C000000000000000000000000000000000002F
:1001D00000000000121110000000000000000000EC
:1001E000000000000000000000000000000000000F
:1001F00020410000C84200401C4620BCBE4CCA1B27
:100200000E5AAEC59D74CDCCCC3D0AD7233C17B752
:10021000D13877CC2B329595E6241FB14F0A0000D8
:1002200020002300260029002C002F0032000001AE
:10023000000003010601090100002100240027003D
:100240002A002D00300033000101000004010701E5
:100250000A0100002200250028002B002E0031009A
:10026000340002010000050108010B010505050528
:10027000070508080808020202020A0A080804041E
:10028000040401010101010101010303030303034C
:100290000303040707070C0C0C0C0C0C0C0C0202DB
:1002A000020206060606060606060B0B0B0B0B0BD8
:1002B0000B0B010210202008081020401020408065
:1002C000020102010804020101020408102040801A
:1002D00080402010080402018004020180402010A8
:1002E00008040201080402010102040810204080F1
:1002F0000102040810204080C41A1B1F11241FBED5
:10030000CFEFD1E2DEBFCDBF00E00CBF24E0AAEB0F
:10031000B3E001C01D92AD3FB207E1F713E0A0E0EA
:10032000B2E0EEE2F7E400E00BBF02C007900D92EE
:10033000AA3BB107D9F711E0CDE7D1E000E006C054
:1003400021970109802FFE010E94B820CC37D107E8
:1003500080E00807A9F70E949B1C0C9485230C944D
:100360000000E7E0F4E0A089B18982E08C93A485E5
:10037000B5851C92A685B7858FEC8C93108EA489C9
:10038000B58986E08C93A289B3898C9180618C9326
:10039000A289B3898C9188608C93A289B3898C914E
:1003A00080688C930288F389E02D80818F7D808323
:1003B00008958150823108F05AC0E82FF0E0882774
:1003C000EB51FE4F8F4F0C94B82005020902F70144
:1003D000FD01010237020C02120216021C02200269
:1003E00024022A022E023702320238023C02809195
:1003F00080008F77809380000895809180008F7DAA
:10040000F9CF80918000877FF5CF84B58F7784BD49
:10041000089584B58F7DFBCF8091B0008F77809356
:10042000B00008958091B0008F7DF9CF8091900049
:100430008F77809390000895809190008F7DF9CF01
:1004400080919000877FF5CF8091A0008F77809377
:10045000A00008958091A0008F7DF9CF8091A00029
:10046000877FF5CF809120018F77809320010895B9
:10047000809120018F7DF9CF80912001877FF5CF7A
:10048000CF93DF93282F30E0F901E855FE4F849198
:10049000F901EE54FD4FD491F901E459FD4FC49197
:1004A000CC23A1F081110E94D901EC2FF0E0EE0FD6
:1004B000FF1FE25EFD4FA591B491EC91ED2381E029
:1004C00090E009F480E0DF91CF91089580E090E022
:1004D000FACF863308F0865320917B00982F9870CE
:1004E000277F922B90937B008770806480937C00A1
:1004F00080917A00806480937A0080917A0086FDF2
:10050000FCCF809178009091790008953FB7F894DE
:100510008091FF0390910004A0910104B091020426
:1005200026B5A89B05C02F3F19F00196A11DB11D4E
:100530003FBFBA2FA92F982F8827BC01CD01620F8A
:10054000711D811D911D42E0660F771F881F991F45
:100550004A95D1F708958F929F92AF92BF92CF9212
:10056000DF92EF92FF924B015C010E9486026B01C9
:100570007C010E9486026C197D098E099F09683EE4
:10058000734081059105A8F321E0821A9108A10822
:10059000B10888EEC80E83E0D81EE11CF11C81145E
:1005A0009104A104B10429F7FF90EF90DF90CF9060
:1005B000BF90AF909F908F9008952FB7F89460915F
:1005C000FB037091FC038091FD039091FE032FBF0C
:1005D000089508950895DC01ED91FC910280F38166
:1005E000E02D42E050E064E972E01994AF92BF92CE
:1005F000CF92DF92EF92FF920F931F93CF93DF93EF
:100600006C017B018B01040F151FEB015E01AE181D
:10061000BF08C017D10759F06991D601ED91FC913F
:100620000190F081E02DC6011995892B79F7C5015C
:10063000DF91CF911F910F91FF90EF90DF90CF90BE
:10064000BF90AF900895FC01538D448D252F30E06D
:10065000842F90E0821B930B541710F0CF960895CF
:1006600001970895FC01918D828D981761F0A28DFC
:10067000AE0FBF2FB11D5D968C91928D9F5F9F73C2
:10068000928F90E008958FEF9FEF0895FC01918D78
:10069000828D981731F0828DE80FF11D858D90E0E5
:1006A00008958FEF9FEF0895FC01918D228D892F82
:1006B00090E0805C9F4F821B91098F73992708956A
:1006C00087E094E00E94540321E0892B09F420E0A4
:1006D000822F0895FC01A48DA80FB92FB11DA35A34
:1006E000BF4F2C91848D90E001968F739927848F52
:1006F000A689B7892C93A089B1898C918370806475
:100700008C93938D848D981306C00288F389E02D15
:1007100080818F7D80830895EF92FF920F931F93C6
:10072000CF93DF93EC0181E0888F9B8D8C8D9813A4
:100730001AC0E889F989808185FF15C09FB7F894B0
:10074000EE89FF896083E889F989808183708064FC
:1007500080839FBF81E090E0DF91CF911F910F9147
:10076000FF90EF900895F62E0B8D10E00F5F1F4F56
:100770000F731127E02E8C8D8E110CC00FB607FC65
:10078000FACFE889F989808185FFF5CFCE010E94F3
:100790006A03F1CFEB8DEC0FFD2FF11DE35AFF4FF4
:1007A000F0829FB7F8940B8FEA89FB898081806281
:1007B000CFCFCF93DF93EC01888D8823B9F0AA893E
:1007C000BB89E889F9898C9185FD03C0808186FD0C
:1007D0000DC00FB607FCF7CF8C9185FFF2CF80815B
:1007E00085FFEDCFCE010E946A03E9CFDF91CF9163
:1007F000089580E090E0892B29F00E946003811128
:100800000E94000080E090E0892B49F080E090E0B9
:10081000892B29F00E94000081110E94000080E0D5
:1008200090E0892B49F080E090E0892B29F00E942C
:10083000000081110E94000080E090E0892B49F0C7
:1008400080E090E0892B29F00E94000081110C9437
:1008500000000895209105043091060428173907F7
:1008600071F49091030480910404981741F0E09191
:100870000304F0E0E654FC4F808190E008958FEF90
:100880009FEF08950895EF92FF920F931F93CF93D8
:10089000DF93DC015C96ED90FC905D97E114F10430
:1008A00079F481E090E013969C938E93129790E0F8
:1008B00080E0DF91CF911F910F91FF90EF9008950D
:1008C0005196ED91FC91529750968C915097982F9C
:1008D00090950FB75E962C915E97122F127021FDA6
:1008E0006095F8942081112319F1282B2083E701CA
:1008F0002197F1F728E0462F50E0308160FF1AC0C1
:10090000382B3083E7012197F1F7BA017595679588
:10091000215089F7112381F08081892380830FBFC3
:100920005C968D919C910197F1F781E090E0C1CFA9
:100930002923DCCF3923E5CF9081892BEFCF20917C
:100940000504309106042817390761F480910404E6
:100950002091030490E0805C9F4F821B91098F736C
:100960009927089590E080E0089520910504309142
:10097000060428173907B9F4909103048091040400
:10098000981789F0E0910304F0E0E654FC4F808171
:100990002091030430E02F5F3F4F2F7333272093C4
:1009A000030490E008958FEF9FEF089590E080E0BA
:1009B00008950895CF93DF93EC0188819981DC013C
:1009C000ED91FC910190F081E02D19952A813B81F8
:1009D000820F931F9B838A83DF91CF910895CF93DA
:1009E000DF93EC0188819981DC01ED91FC9102801B
:1009F000F381E02D19952A813B81820F931F9B8300
:100A00008A83DF91CF9108958F929F92AF92BF9288
:100A1000CF92DF92EF92FF920F931F93CF93DF93CA
:100A2000CDB7DEB766970FB6F894DEBF0FBECDBF69
:100A30006C018E01095E1F4F78018AE0882E912C8F
:100A4000A12CB12CCB01BA01A50194010E949620E2
:100A5000942F852F605DF80162938F01A901692FA2
:100A6000782F411551056105710561F7A7014E1BEE
:100A70005F0BBF01C6010E94EF0466960FB6F894A3
:100A8000DEBF0FBECDBFDF91CF911F910F91FF90C1
:100A9000EF90DF90CF90BF90AF909F908F90089590
:100AA0002F923F924F925F926F927F928F929F927E
:100AB000AF92BF92CF92DF92EF92FF920F931F936C
:100AC000CF93DF9300D000D0CDB7DEB71C014A0131
:100AD0005B0186E0D1011A968C9320E836E948E163
:100AE0005BE4CB01B4010E945C2187FD7DC004E181
:100AF00010E060E2462E512C1E821D82F801E25168
:100B0000FE4F2591359145915491C501B4010E9444
:100B10005C2187FD13C0F801EA5FFD4F25913591F7
:100B200045915491C501B4010E94AA1F4B015C017B
:100B3000ED81FE81E40DF51DFE83ED835594479410
:100B4000045011090C3FFFEF1F07C1F677247A9478
:100B500020E030E0A901C501B4010E945C21181613
:100B60000CF04AC02CEA35EC47E257E3C501B4016A
:100B70000E94441F18160CF43FC0272D34E02302B6
:100B800080011124F12CE12CC80180579E4F6C018B
:100B900002511E4F9FEF791679F1F601EE0DFF1D00
:100BA0002591359145915491C501B4010E94441F8E
:100BB00087FF13C0F801EE0DFF1D2591359145917A
:100BC0005491C501B4010E94AA1F4B015C01AD8183
:100BD000BE81A419B509BE83AD83559447947A9418
:100BE000B4E0EB1AF108D6CF30E2432E512C45E0A9
:100BF000742E1E821D82ACCF2D813E81F101318782
:100C00002087C501B4010E942D2169837A838B83DB
:100C10009C83D1016D937D938D939C9313972B01AE
:100C20003C0190E4C92E92E4D92E9FE0E92EF12CEC
:100C3000BAE04B16510461047104C8F0C701B60153
:100C40002AE030E040E050E00E94962069017A01FD
:100C5000F101828581508287C301B2012AE030E030
:100C600040E050E00E94962029013A01E1CF6981DD
:100C70007A818B819C810E94491F9B01AC01C50137
:100C8000B4010E94C0204B015C01C701B6010E9463
:100C9000491F9B01AC01C501B4010E94AA1F2B0191
:100CA0003C010E942D214B015C010E94491F9B01C8
:100CB000AC01C301B2010E94C0209B01AC010E94A3
:100CC000C1200E942D21860E971EA81EB91E8C14CD
:100CD0009D04AE04BF0430F5D10114968D929D920F
:100CE000AD92BC9217978AE0C82ED12CE12CF12C42
:100CF000D10114966D917D918D919C911797A701CB
:100D000096010E949620672B682B692B89F5F101CB
:100D1000828518166CF5248335834683578381506A
:100D20008287E6CFF10114821582168217828981AB
:100D30009A81AB81BC810196A11DB11D80839183F5
:100D4000A283B3832D813E812115310561F20A977B
:100D5000A105B10540F2C90101969187808781E024
:100D600090E0A0E0B0E080839183A283B383BBCF07
:100D700026960FB6F894DEBF0FBECDBFDF91CF91A0
:100D80001F910F91FF90EF90DF90CF90BF90AF90A9
:100D90009F908F907F906F905F904F903F902F909B
:100DA000089580339CF08A3324F08F3524F08B37FC
:100DB00024F481E0089581344CF08B35D4F393ED25
:100DC000980F81E09230B0F380E008958B32B9F74C
:100DD000F0CFCF92DF92EF92FF920F931F93CF93BA
:100DE000DF93EC018C85811130C009851A850E9442
:100DF000DD02D80118966D937D938D939C931B977C
:100E0000D801ED91FC910284F385E02DC80119957C
:100E100097FF25C00E94DD02F801C084D184E284DE
:100E2000F3846C197D098E099F09C480D580E68002
:100E3000F7806C157D058E059F0510F38FEF9FEFF2
:100E400097FD80E08B8781E08C878B85DF91CF9148
:100E50001F910F91FF90EF90DF90CF900895992709
:100E6000EFCF1F93CF93DF93EC01162F0E94E9067B
:100E7000811306C01C8681E0DF91CF911F910895F8
:100E800080E0FACFCF93DF93EC01CE010E94E90618
:100E90008B303CF489304CF4882349F081E088871A
:100EA00010C08D3011F08032C9F71C86EECF8885D6
:100EB00081110AC081E090E0C15BDF4F9983888394
:100EC00080E0DF91CF91089582E090E0F5CF089522
:100ED000FC0185859F01275F3F4F85FD02C030E003
:100EE00020E0B901CF010895FC010E969183808323
:100EF000938382838C509E4F9583848397838683CC
:100F00001086158608950F931F93CF93DF93DB010F
:100F100012962D913C91EC01E881F9818A819B81A7
:100F2000DF01A20FB31FA817B907A8F44C91411114
:100F30000EC0EB01A881B981EF018D01020F131FD3
:100F4000A017B10751F05D9149915417C9F3419130
:100F50004111FDCFE5CFF0E0E0E0CF01DF91CF918F
:100F60001F910F910895EF92FF920F931F93CF93CC
:100F7000DF9300D01F92CDB7DEB749835A836B83CE
:100F80007C83042F152F0115110569F490E080E092
:100F90000F900F900F900F90DF91CF911F910F91B5
:100FA000FF90EF9008957C01BE016F5F7F4F0E941C
:100FB0008307009769F72B813C81F7018281938138
:100FC000A9014F5F5F4F480F591F648175816417F6
:100FD000750718F481E08087D9CF53834283009747
:100FE000A9F2F801DC01BF01620F731F6E177F07C2
:100FF00019F041914D93FACF280F391FF901108252
:10100000C7CFCF92DF92EF92FF920F931F93CF93B0
:10101000DF93EA01209751F1FC01208131812115F4
:10102000310569F48C8180788C8381E0DF91CF91E8
:101030001F910F91FF90EF90DF90CF9008957B016B
:1010400004811581A901B801C7010E94B3079C0161
:1010500050E040E0892B11F049EE52E09C819078FD
:10106000452B31F49C8381E0232B01F780E0DECF18
:1010700095609C83398328831B830A83F4CFFC010A
:1010800082E692E09183808380E592E09783868375
:10109000CF010696209105043091060428173907E0
:1010A00059F4A18DB28D9C91838D809589238C9369
:1010B00010920604109205040895FC0124813581E4
:1010C000A9014F5F5F4F868197814817590748F400
:1010D0008281938155834483FC01E20FF31F608377
:1010E00008950190F081E02D81E0808708959F921E
:1010F000AF92BF92CF92DF92EF92FF920F931F9326
:10110000CF93DF9300D01F921F92CDB7DEB78C0133
:101110000E94E906D82ED8011C961C92F12CE12CD5
:1011200060EFC62EC8010E94E906F8011486D816A1
:1011300009F4BDC0811119C0F801E15BFF4F82E0E5
:1011400090E09183808380E00F900F900F900F903C
:101150000F90DF91CF911F910F91FF90EF90DF9053
:10116000CF90BF90AF909F9008958C3509F09DC0AF
:10117000C8010E94E9068823F9F2E7E9F2E0853721
:1011800009F087C0D8011C961C9254E0952EB12C12
:10119000A12CC8010E94E906882371F281344CF425
:1011A0008053803148F0F801E15BFF4F83E090E02D
:1011B000C8CF8F7D8753F5CF44E0AA0CBB1C4A955E
:1011C000E1F7A82AF80114869A949110E2CFC5019C
:1011D000985D8115944020F4750123E0F222A2CF9E
:1011E000C5019C5D81159440A8F4B3E0BB22B70112
:1011F000762F6627770F770F6A297B2990E080E0AA
:101200000196603871058105910540F4C8010E947E
:101210005D0888CFB50190E080E0F3CF1982262FDA
:101220002F7320682A8326E0969587957795679592
:101230002A95D1F76032710580F4606C6B835E0192
:10124000E4E0AE0EB11CD5016E915D01662309F498
:1012500069CFC8010E945D08F6CF262F2F73206842
:101260002B8386E0769567958A95E1F76031710565
:1012700038F4606E6C835E01F5E0AF0EB11CE3CF15
:1012800060686C83CD825E0126E0A20EB11CDBCFCC
:1012900032969081992309F486CF8913F9CF818101
:1012A000882309F480CFF8011486682FAFCF01900E
:1012B000F081E02D8085882331F0F801E15BFF4F5C
:1012C00084E090E03ECF81E03FCFCF93DF93DC011D
:1012D000EB01EC81FD818A819B810896E817F90773
:1012E00040F481E08887F0E0E0E0CF01DF91CF912A
:1012F00008953897FD83EC833097B9F31296CD911A
:10130000DC911397209791F0CF018C1B9D0B23E06C
:10131000959587952A95E1F78D831396FC93EE9327
:1013200012971582148217821682DFCF1196FC93D2
:10133000EE93F3CFCF92DF92EF92FF920F931F9332
:10134000CF93DF9300D01F92CDB7DEB76C018B0136
:10135000DC011296ED90FC90FA82E9827C836B832B
:10136000BE016F5F7F4F0E948307009761F4F70112
:10137000E00FF11FCF010196D60113969C938E9337
:1013800012971082C7010F900F900F900F90DF916E
:10139000CF911F910F91FF90EF90DF90CF90089524
:1013A000FC012581222339F0F8E02F02900111245D
:1013B000820F931F089590E080E00895EF92FF92CE
:1013C0000F931F93CF93DF936115710519F17B0183
:1013D0008C01FC01C081D181209731F0CE010E94A7
:1013E000D009E816F906E9F4C7010E94D009209750
:1013F000D1F020E0009741F09C012C1B3D0B43E015
:10140000359527954A95E1F72D83892B19F4F80135
:10141000D383C283DF91CF911F910F91FF90EF9003
:101420000895EC01D9CFF80191838083EECF0C941D
:10143000FD21CF93DF93EC0188819981009711F012
:101440000E94FD21198218821D821C821B821A8231
:10145000DF91CF910895FC0180819181009711F077
:101460000C94FD210895CF93DF93EC0106960E9422
:101470002B0ACE01DF91CF910C942B0ACF93DF93EF
:10148000EC010E943F08CE01DF91CF910C94FD2129
:101490000E9467236F927F928F929F92AF92BF922A
:1014A000CF92DF92EF92FF920F931F93CF93DF9330
:1014B000EC018C81982F9F7739F4807880628C833F
:1014C000198218821B821A828C8185FD11C080E0EE
:1014D00090E0DF91CF911F910F91FF90EF90DF90FF
:1014E000CF90BF90AF909F908F907F906F90089516
:1014F0007A014115510559F389014A015B0188813F
:1015000099816B013501640E751E0097E9F0DC01CD
:101510001696ED91FC91B0E0A0E0309739F0DF0134
:101520000D900020E9F71197AE1BBF0BCA16DB0622
:1015300041F4D7016A167B0661F23D912191321781
:10154000C9F30E94D009E1CFB801CE010E9465091C
:101550007C01892B29F4B701CE010E94DE09B7CFA7
:10156000B501A401C8010E94B3079C01892B99F31E
:10157000F70194819068948337832683C701A9CFAC
:10158000FB0101900020E9F73197AF01461B570B93
:101590000C94EF041F93CF93DF93E7E9F2E01281FD
:1015A000112379F0329621816213F9CFEC016CE5B9
:1015B0000E94DA04612FCE01DF91CF911F910C942C
:1015C000DA046111F9CF68EA72E0DF91CF911F91DF
:1015D0000C94C00A4F925F926F927F928F929F926B
:1015E000AF92BF92CF92DF92EF92FF920F931F9331
:1015F000CF93DF93CDB7DEB7A1970FB6F894DEBFD8
:101600000FBECDBF7C018B01FC0184818F778630BA
:1016100009F45CC160F4823098F0C280D380A0806D
:10162000B180843008F023C1A601B501CAC08C3056
:1016300051F148F4883009F444C18A3009F42AC1D0
:101640006FEA72E04AC1803209F4DDC08034C1F72C
:101650006BE5C8010E94DA04F701E080F180E11433
:10166000F10409F4B2C0B801C7010E94EA0AC70137
:101670000E94D0097C01892B09F4A7C06CE2C80143
:101680000E94DA04ECCF80809180A280B380A50113
:101690009401C501B4010E94441F8111D1CF20E003
:1016A00030E0A901C501B4010E94441F882379F0EC
:1016B000A5019401C501B4010E94C1209B01AC01A8
:1016C000C501B4010E94441F882309F4B9CF20E06A
:1016D00030E0A901C501B4010E94441F87FF08C082
:1016E0006DE2C8010E94DA04B7FAB094B7F8B0947A
:1016F0006E01F7E1CF0ED11CB501A401C6010E9415
:1017000050054F89588D698D7A8DC8010E94040556
:10171000F9A0FF2091F16B8D7C8D8D8D9E8D4E01FA
:1017200021E1820E911CEF2C54012AE0422E512C13
:10173000612C712CEA94EFEFEE1659F0A30192019F
:101740000E949620605DF40162934F01B901CA01C5
:10175000F1CF8F2D90E0BC0160957095F501E81BED
:10176000F90B31978EE2808344275527461B570B90
:101770006A0D7B1DC8010E94EF048F8D98A1892BF3
:1017800041F165E6C8010E94DA04EF8CF8A0C701B8
:10179000F7FE08C06DE2C8010E94DA048827992785
:1017A0008E199F09F6012AE030E0B9010E948220DB
:1017B000805D8293CB010097C1F7A6014E1B5F0BA2
:1017C000BF01C8010E94EF0404C06DE5C8010E947A
:1017D000DA04F80182819381A1960FB6F894DEBFF6
:1017E0000FBECDBFDF91CF911F910F91FF90EF9072
:1017F000DF90CF90BF90AF909F908F907F906F9031
:101800005F904F9008956BE7C8010E94DA04F701DA
:10181000E080F180E114F10441F1F701A680B78086
:1018200062E2C8010E94DA046501F60161916F016C
:10183000662321F0C8010E94CA0AF7CF62E2C801FC
:101840000E94DA046AE3C8010E94DA04B801C70101
:101850000E94EA0AC7010E94D0097C01892B29F065
:101860006CE2C8010E94DA04D5CF6DE7AFCF62E227
:10187000C8010E94DA047501CE0CDF1CCE14DF040F
:1018800039F0F70161917F01C8010E94CA0AF6CFC1
:1018900062E29CCFC080D180E280F380B701A601D4
:1018A000F7FE0BC06DE2C8010E94DA0444275527F9
:1018B000BA014C195D096E097F09C8010E9404052F
:1018C00088CF4081518162817381F7CF808164EB41
:1018D00072E0811102C069EB72E0C8010E94C00A87
:1018E00078CFCF93DF9300D01F92CDB7DEB77A8346
:1018F00069831C821B82BE016F5F7F4F09960E9425
:10190000EA0A0F900F900F900F90DF91CF910895FA
:10191000CF93DF93FC01118210821382128281E047
:101920008483168215821086178241155105F9F0BD
:10193000DA0114968C9114978095881F8827881F48
:101940001696CD91DC91B0E0A0E0209739F0DE0151
:101950000D900020E9F71197AC1BBD0BD183C0831C
:10196000B383A28384835683458370876783DF9123
:10197000CF9108950F931F93CF93DF938C01EB01C9
:10198000FC01808191810097E1F068817981611586
:101990007105A9F0428153812C813D814217530783
:1019A00070F00E947E238C819D81F8019583848351
:1019B0001D821C82DF91CF911F910F9108950E948B
:1019C000FD2188819981F801918380838A819B819F
:1019D000938382838C819D8195838483198218826D
:1019E0001B821A82E5CF0F931F93CF93DF93EC01F5
:1019F00088819981009759F02A813B812617370702
:101A000030F081E0DF91CF911F910F9108958B010C
:101A10006F5F7F4F0E948622009759F099838883D9
:101A20001B830A832C813D81232B59F7FC011082F3
:101A3000E8CF80E0E7CFEF92FF920F931F93CF9311
:101A4000DF93EC017B018A01BA010E94F30C811142
:101A50000BC0CE010E94190ACE01DF91CF911F91D8
:101A60000F91FF90EF9008951D830C83B70188813B
:101A700099810E947E23F0CFCF93DF93EC01611513
:101A8000710571F0FB0101900020E9F73197AF017A
:101A9000461B570B0E941B0DCE01DF91CF9108957D
:101AA0000E94190AF9CFCF93DF93EC01FB0186174F
:101AB000970749F0608171816115710541F044819A
:101AC00055810E941B0DCE01DF91CF9108950E9498
:101AD000190AF9CFFC011182108213821282158239
:101AE00014820C94530D0F931F93CF93DF93EC014B
:101AF0008A010E946A0DB801CE010696DF91CF914E
:101B00001F910F910C946A0DFC01118210821382B7
:101B10001282158214826115710551F0FB0101904A
:101B20000020E9F73197AF01461B570B0C941B0DB2
:101B300008952F923F924F925F926F927F928F9271
:101B40009F92AF92BF92CF92DF92EF92FF920F934C
:101B50001F93CF93DF9300D000D01F921F92CDB779
:101B6000DEB72C011B01E090A804F090A90480913D
:101B7000A6049091A7048E159F050CF47DC088E201
:101B8000E816F1040CF078C0EE0CFF1C99E2E9169F
:101B9000F1041CF058E2E52EF12C67018FEF9FEF66
:101BA000E114E0E1FE0638F4C70143E0880F991F15
:101BB0004A95E1F702960E9461214C01F401E192FD
:101BC000F1923F018F01F1E0CF1AD108D7FE25C075
:101BD0006401B12CA12C0091A4041091A504809162
:101BE000A6049091A704A816B906FCF4C6018819AA
:101BF0009909080F191FB801C60102960E94530DDA
:101C0000F80186819781F60191878087FFEFAF1AEF
:101C1000BF0A88E0C80ED11CDECF67EA72E0C801B7
:101C20000E94840D085F1F4FCECF01151105E1F012
:101C3000F80132978081918133E0880F991F3A959E
:101C4000E1F7080F191F98018091A4049091A50451
:101C5000085011098217930721F0C8010E942B0A2E
:101C6000F2CF02970E94FD217092A5046092A40415
:101C7000F092A904E092A8042091A6043091A70450
:101C80008091A8049091A9042817390774F5B2012E
:101C9000FE0131967F01CF010E946A0D38862F82A6
:101CA0000091A4041091A5048091A6049091A7042A
:101CB0009C012F5F3F4F3093A7042093A60423E09D
:101CC000880F991F2A95E1F7080F191FE016F106F2
:101CD00021F0B701C8010E94BA0C8F819885F801E4
:101CE00097838683C7010E942B0A28960FB6F89423
:101CF000DEBF0FBECDBFDF91CF911F910F91FF903F
:101D0000EF90DF90CF90BF90AF909F908F907F909B
:101D10006F905F904F903F902F900895CF92DF92F9
:101D2000EF92FF920F931F93CF93DF938C01DC010F
:101D30009296ED91FC91E80FF91F12826C01B2E0CE
:101D4000CB0ED11CC114D10449F1F6010190002041
:101D5000E9F73197EC19FD09F1F0DC01ED90FC9009
:101D6000D7011496CD91DC91CE0FDF1FBE01C701C4
:101D70000E94F30C882391F0F70120813181848146
:101D80009581B601820F931F0E947E23D70115967D
:101D9000DC93CE931497F80113A212A2D801929665
:101DA0008D919C91DF91CF911F910F91FF90EF90BA
:101DB000DF90CF9008951F93CF93DF93EC01162F00
:101DC0008AA19BA101968097B8F48AA19BA19C014E
:101DD0002F5F3F4F3BA32AA38C0F9D1FFC01128353
:101DE00021E030E08CA19DA1820F931F9DA38CA3C5
:101DF000DF91CF911F910895CE010E948E0E892B05
:101E000021F330E020E0EECFBF92CF92DF92EF924D
:101E1000FF920F931F93CF93DF93EC016A018B0125
:101E20007B01E40EF51EE016F106D1F0F801B19049
:101E30008F018AA19BA10196809760F48AA19BA142
:101E40009C012F5F3F4F3BA32AA38C0F9D1FFC01DA
:101E5000B282E9CFCE010E948E0E892B79F3E3CFB7
:101E60004CA15DA14C0D5D1D5DA34CA3DF91CF91F5
:101E70001F910F91FF90EF90DF90CF90BF9008954A
:101E80008F929F92AF92BF92CF92DF92EF92FF928A
:101E90000F931F93CF93DF93CDB7DEB766970FB63F
:101EA000F894DEBF0FBECDBF6C018E01095E1F4FDF
:101EB00078018AE0882E912CA12CB12CCB01BA019B
:101EC000A50194010E949620942F852F605DF80152
:101ED00062938F01A901692F782F41155105610582
:101EE000710561F7A7014E1B5F0BBF01C6010E9480
:101EF000040F66960FB6F894DEBF0FBECDBFDF911C
:101F0000CF911F910F91FF90EF90DF90CF90BF90F6
:101F1000AF909F908F900895FB0101900020E9F70A
:101F20003197AF01461B570B0C94040F1F93CF93AF
:101F3000DF93E7E9F2E01281112379F032962181F3
:101F40006213F9CFEC016CE50E94DB0E612FCE012C
:101F5000DF91CF911F910C94DB0E6111F9CF68EAEC
:101F600072E0DF91CF911F910C948C0F4F925F9292
:101F70006F927F928F929F92AF92BF92CF92DF9299
:101F8000EF92FF920F931F93CF93DF93CDB7DEB7FE
:101F9000A1970FB6F894DEBF0FBECDBF7C018B01B9
:101FA000FC0184818F77863009F45CC160F4823053
:101FB00098F0C280D380A080B180843008F023C123
:101FC000A601B501CAC08C3051F148F4883009F43B
:101FD00044C18A3009F42AC16FEA72E04AC18032F2
:101FE00009F4DDC08034C1F76BE5C8010E94DB0E47
:101FF000F701E080F180E114F10409F4B2C0B80106
:10200000C7010E94B60FC7010E94D0097C01892B2D
:1020100009F4A7C06CE2C8010E94DB0EECCF8080FF
:102020009180A280B380A5019401C501B4010E94F2
:10203000441F8111D1CF20E030E0A901C501B401D6
:102040000E94441F882379F0A5019401C501B401C1
:102050000E94C1209B01AC01C501B4010E94441F34
:10206000882309F4B9CF20E030E0A901C501B4010B
:102070000E94441F87FF08C06DE2C8010E94DB0E6A
:10208000B7FAB094B7F8B0946E01F7E1CF0ED11C57
:10209000B501A401C6010E9450054F89588D698D74
:1020A0007A8DC8010E94400FF9A0FF2091F16B8D3D
:1020B0007C8D8D8D9E8D4E0121E1820E911CEF2C29
:1020C00054012AE0422E512C612C712CEA94EFEF3E
:1020D000EE1659F0A30192010E949620605DF40172
:1020E00062934F01B901CA01F1CF8F2D90E0BC017D
:1020F00060957095F501E81BF90B31978EE28083AE
:1021000044275527461B570B6A0D7B1DC8010E94AB
:10211000040F8F8D98A1892B41F165E6C8010E94BB
:10212000DB0EEF8CF8A0C701F7FE08C06DE2C80116
:102130000E94DB0E882799278E199F09F6012AE055
:1021400030E0B9010E948220805D8293CB0100972C
:10215000C1F7A6014E1B5F0BBF01C8010E94040F0F
:1021600004C06DE5C8010E94DB0EF80184A195A1B1
:10217000A1960FB6F894DEBF0FBECDBFDF91CF9111
:102180001F910F91FF90EF90DF90CF90BF90AF9095
:102190009F908F907F906F905F904F9008956BE726
:1021A000C8010E94DB0EF701E080F180E114F10428
:1021B00041F1F701A680B78062E2C8010E94DB0E00
:1021C0006501F60161916F01662321F0C8010E944B
:1021D000960FF7CF62E2C8010E94DB0E6AE3C801E6
:1021E0000E94DB0EB801C7010E94B60FC7010E9412
:1021F000D0097C01892B29F06CE2C8010E94DB0E1A
:10220000D5CF6DE7AFCF62E2C8010E94DB0E75014A
:10221000CE0CDF1CCE14DF0439F0F70161917F0191
:10222000C8010E94960FF6CF62E29CCFC080D18099
:10223000E280F380B701A601F7FE0BC06DE2C80192
:102240000E94DB0E44275527BA014C195D096E091F
:102250007F09C8010E94400F88CF4081518162816F
:102260007381F7CF808164EB72E0811102C069EB6A
:1022700072E0C8010E948C0F78CF0F931F93CF9309
:10228000DF93CDB7DEB7C65BD1090FB6F894DEBFDA
:102290000FBECDBF8C01CB010115110509F45AC049
:1022A000F80124812F77243009F44AC0253009F43D
:1022B00047C0CD56DF4F99838883C359D040CB5454
:1022C000DF4F19821882C55BD04084E2FE01ED56D3
:1022D000FF4FDE01A159BF4F01900D928A95E1F7A2
:1022E00084E2FE01E159FF4FDE01A55BBF4F019083
:1022F0000D928A95E1F784E2FE01E55BFF4FDE0176
:10230000979601900D928A95E1F784E2FE01B796C7
:10231000DE01119601900D928A95E1F71EA21DA291
:10232000CE0187960E948E0ECE01855B9F4F0E9444
:102330008E0EBE016F5F7F4FC8010E94B60F50C066
:10234000F801608171816115710509F4B2CF0E94B5
:102350003C0D54C0CD56DF4F79836883C359D040BC
:10236000CB54DF4F19821882C55BD04084E2FE0156
:10237000ED56FF4FDE01A159BF4F01900D928A9596
:10238000E1F784E2FE01E159FF4FDE01A55BBF4F9B
:1023900001900D928A95E1F784E2FE01E55BFF4F23
:1023A000DE01979601900D928A95E1F784E2FE0195
:1023B000B796DE01119601900D928A95E1F71EA263
:1023C0001DA2CE0187960E948E0ECE01855B9F4F87
:1023D0000E948E0E6FEA72E0CE0101960E948C0F71
:1023E000CE0101960E948E0ECE0181599F4F0E9410
:1023F0008E0ECE018D569F4F0E948E0ECA54DF4F17
:102400000FB6F894DEBF0FBECDBFDF91CF911F9105
:102410000F9108950F931F93CF93DF93D0E0C0E007
:102420006115710591F08B01FC01C081D18120976C
:1024300061F06E817F81C8010E947523892B29F08C
:10244000CE010E94D009EC01F2CFCE01DF91CF91F5
:102450001F910F9108954F925F926F927F92BF925A
:10246000CF92DF92EF92FF920F931F93CF93DF9360
:10247000EC018B01E42E0E944207F82E811110C05E
:10248000F12C8F2DDF91CF911F910F91FF90EF9045
:10249000DF90CF90BF907F906F905F904F900895A6
:1024A000CE010E94E906873209F42BC10CF5823275
:1024B00009F427C1CE010E94E906B82E6E01FFE0A3
:1024C000CF0ED11CE12C36018B2D0E94D106882322
:1024D00009F443C12FE3E21609F43FC11C86E394DB
:1024E000F601B1926F01CE010E94E906B82EECCF41
:1024F0008B3509F44AC08B37E9F6F801848180787E
:10250000806284831182108213821282EE2009F489
:1025100047C01C86CE010E944207882309F4B0CF31
:102520006DE7CE010E943107D82E8111AACFCC24AD
:10253000C394EA94E881F981828193819B838A83A1
:102540008481958122813381821B930B9F838E83AB
:102550001D821C82892B09F4C086CE010E94E906E7
:10256000873209F45DC0823209F45AC0CE010E945C
:10257000E906F82E0E94D106811159C0C15BDF4FD8
:1025800083E090E09983888350C0F801848180784B
:10259000806484831182108213821282E11007C04A
:1025A000C15BDF4F85E090E09983888369CF1C860B
:1025B000CE010E944207882309F462CF6DE5CE0167
:1025C0000E94310781115DCFEA946D857E85C80137
:1025D0000E946509009729F4C15BDF4F84E090E019
:1025E000E3CF4E2DBC01CE010E942B12882309F4AB
:1025F00047CFCE010E944207882309F441CF6DE501
:10260000CE010E94310781113CCF6CE2CE010E94C5
:1026100031078111DACFC15BDF4F83E090E0C4CF97
:10262000CE010E947708811119C0FD2C2ACF1C868B
:102630006F2DCE010E945D08CE010E94E906F82EA2
:102640000E94D1068111F3CFE881F981808588232A
:1026500029F0C15BDF4F84E090E094CFCE010E946F
:102660004207882311F36AE3CE010E9431078823D1
:1026700009F484CFEA81FB818C819D81E80FF91FE9
:1026800010826C807D806A817B81C8010E940A1261
:10269000BC01892BA1F4B301888199810E949A0918
:1026A0003C016D857E85C8010E946509FC01892B6E
:1026B00081F284818068848377826682BF014E2D97
:1026C000CE010E942B12882309F4AFCFCE010E94C5
:1026D0004207882309F4A9CF6DE7CE010E94310794
:1026E00081110DC06CE2CE010E943107882309F4EC
:1026F00045CFCE010E94420781111CCF96CFD82E24
:1027000094CFE881F981828193819B838A8384813C
:10271000958122813381821B930B9F838E831D823F
:102720001C82892B11F481E08087CE010E947708FA
:10273000F82E882309F4A4CECC80DD80B6018881F0
:1027400099810E949A09F8012481207825602483C8
:1027500091838083D382C28294CEFE01EE0DF11D5F
:1027600017868F85843781F4F801848180788660AC
:10277000848381E08083F4E0EF1609F482CEC15BAC
:10278000DF4F82E090E010CF863641F4F80184817B
:102790008078866084831082F5E0EECF8E3621F457
:1027A00024E0E212ECCF6DCE8B32D9F1F3018D3201
:1027B000D1F5FE017096BF2C808190ED980F9A3074
:1027C00018F08E3209F027CF6F0160E070E0CB0186
:1027D000F6012191A0ED4A2E420E39E0341528F180
:1027E0006A3949E97407840749E1940740F5AAE08A
:1027F000B0E09B01AC010E946820512C712C612C2F
:10280000A3019201209530954095509526173707E2
:1028100048075907A0F0640D751D861D971D6F01AF
:10282000D7CFFE017096B12CC7CF211108C0BB20B5
:1028300071F161307105810550E89507A0F0E12C38
:10284000EAE04E2E512C612C712C61157105F0E8D7
:102850008F07910530F1A30192010E949620CA01D1
:10286000B901E394F2CFF801248120782A6024830F
:102870009B01AC0188279927DC01821B930BA40BD9
:10288000B50B80839183A283B383FB2CFACDF8012F
:1028900024812078286024836083718382839383DA
:1028A000F0CDD601F60121916F0130ED320F3A30B3
:1028B00010F4E394F6CF2E32F1F4FD013196DF01EE
:1028C00031962C9150EDD52ED20E29E02D1598F091
:1028D0006C3C3CEC73073CE08307910580F7AAE071
:1028E000B0E09B01AC010E9468206D0D711D811D3F
:1028F000911DEA94E4CF2C912F7D253409F08CC0F2
:1029000011962C9111972D32D9F512967F2CFD013D
:1029100030E020E0CE2C0E2C000CDD084AE0542ED6
:10292000DF01619040ED460D4A3008F043C0529EF1
:10293000A001539E500D1124262D660C330B2053FD
:102940003109240F351FA601420F531F473251058D
:102950003CF3F80184817720D1F040E050E060E062
:1029600070E8B11003C040E050E0BA0180788C609C
:10297000F80184834083518362837383F72C81CD74
:102980002B3219F01196712CC2CF1296FCCF40E079
:1029900050E060E87FEFB11004C040E050E060E834
:1029A0007FE780788C60F801848340835183628361
:1029B000738367CD772019F03195219531094C91BA
:1029C000411129CEE901CE0DD11DE7FCDA950E9417
:1029D000491F1C161D061CF5E12CC0FF0CC024E08D
:1029E000E29EF0011124E251FE4F2591359145916F
:1029F00054910E94AA1FD595C795E394209769F733
:102A0000B1109058F801248120782C6024836083D1
:102A100071838283938335CD30E020E0D0CFD19590
:102A2000C195D109E12C209759F3C0FF0CC044E0B7
:102A3000E49EF0011124EA5FFD4F25913591459107
:102A400054910E94AA1FD595C795E394ECCF0F939C
:102A50001F93CF93DF93EC018B010E942B12FE0199
:102A6000E15BFF4F80819181892B79F48B858823ED
:102A700061F0D80114968C9183FF07C083E090E049
:102A8000DF91CF911F910F91089580819181F8CFAF
:102A90008F929F92AF92BF92EF92FF920F931F93EC
:102AA000CF93DF93CDB7DEB7CE56D2400FB6F894B2
:102AB000DEBF0FBECDBF7C0167EA72E0CE018D5F45
:102AC0009D4F0E94840D67EA72E08E010F5F1F4FD9
:102AD000C8010E94840DAE014D5F5D4FB801C70172
:102AE0000E94730DC8010E942B0ACE018D5F9D4F7D
:102AF0000E942B0A87E094E00E945403892B09F47A
:102B0000BEC0C8010E94740789819A819C838B830F
:102B10008F8198859E838D8319861E86C45ADD4FCA
:102B200019830883CC55D24088E0FE01E45AFD4F5A
:102B3000DE01AC5ABD4F01900D928A95E1F788E015
:102B4000FE01EC5AFD4FDE01AD5FBD4F01900D92CD
:102B50008A95E1F7C55FDD4F1882CB50D24087E000
:102B600094E0C45FDD4F99838883CC50D240C15F2D
:102B7000DD4F1882CF50D240C05FDD4F19830883EC
:102B8000C051D240CE5ADD4F19821882C255D24070
:102B90004AE0BE01665F7F4FCE018D5F9D4F0E9470
:102BA0002715892BC9F4C8010E946807FB013097DB
:102BB00039F5C701C259DD4F0FB6F894DEBF0FBE1D
:102BC000CDBFDF91CF911F910F91FF90EF90BF90FC
:102BD000AF909F908F9008956FEB72E0CE018D5F64
:102BE0009D4F0E94840D61E070E0CE018D5F9D4F8E
:102BF0000E94990DCE018D5F9D4F0E942B0AD9CF67
:102C00004081518141155105A1F2BC01CE018D5F7A
:102C10009D4F0E94880C85E0FE01ED5FFD4FDE01B7
:102C2000A659BD4F01900D928A95E1F7C659DD4F27
:102C300068817981CA56D240C7010E943C0DC85FA5
:102C4000DD4F88809980AA80BB80C850D24067EA57
:102C500072E0CE018C599D4F0E94840DBE016C59CB
:102C60007D4FC4010E943D11BE016C597D4FC701CB
:102C700006960E94BA0CCE018C599D4FBECF68EDCE
:102C800072E0C8010E94840D61E070E0C8010E94FA
:102C9000990DC801B2CF8F929F92AF92BF92CF92FF
:102CA000DF92EF92FF920F931F93CF93DF93CDB7F5
:102CB000DEB7CE56D2400FB6F894DEBF0FBECDBF02
:102CC0007C016B0167EA72E0CE018D5F9D4F0E942F
:102CD000840D67EA72E08E010F5F1F4FC8010E94EA
:102CE000840DAE014D5F5D4FB801C7010E94730DA9
:102CF000C8010E942B0ACE018D5F9D4F0E942B0AB6
:102D000086E0C80ED11CC6010E949F04892B09F4DD
:102D1000BEC0C8010E94740789819A819C838B83FD
:102D20008F8198859E838D8319861E86C45ADD4FB8
:102D300019830883CC55D24088E0FE01E45AFD4F48
:102D4000DE01AC5ABD4F01900D928A95E1F788E003
:102D5000FE01EC5AFD4FDE01AD5FBD4F01900D92BB
:102D60008A95E1F7C55FDD4F1882CB50D240C45F32
:102D7000DD4FD982C882CC50D240C15FDD4F18826E
:102D8000CF50D240C05FDD4F19830883C051D2407D
:102D9000CE5ADD4F19821882C255D2404AE0BE0198
:102DA000665F7F4FCE018D5F9D4F0E942715892B57
:102DB000D9F4C8010E946807FB01309749F5C701A3
:102DC000C259DD4F0FB6F894DEBF0FBECDBFDF9105
:102DD000CF911F910F91FF90EF90DF90CF90BF9018
:102DE000AF909F908F90089561EF72E0CE018D5F5C
:102DF0009D4F0E94840D61E070E0CE018D5F9D4F7C
:102E00000E94990DCE018D5F9D4F0E942B0AD7CF56
:102E1000408151814115510591F2BC01CE018D5F78
:102E20009D4F0E94880C85E0FE01ED5FFD4FDE01A5
:102E3000A659BD4F01900D928A95E1F7C659DD4F15
:102E400068817981CA56D240C7010E943C0DC85F93
:102E5000DD4F88809980AA80BB80C850D24067EA45
:102E600072E0CE018C599D4F0E94840DBE016C59B9
:102E70007D4FC4010E943D11BE016C597D4FC701B9
:102E800006960E94BA0CCE018C599D4FBECF69E0C8
:102E900073E0C8010E94840D61E070E0C8010E94E7
:102EA000990DC801B2CFEF92FF920F931F93CF936A
:102EB000DF93EC018C81982F9F7739F480788062C2
:102EC0008C83198218821B821A828C8185FF16C01E
:102ED0006115710599F07A018B01CE010E940A12E9
:102EE0000097A9F4B701CE010E946509FC01892B66
:102EF00041F470E060E0CE010E94DE0980E090E0E5
:102F000006C084818F77848317830683CF01DF9186
:102F1000CF911F910F91FF90EF900895CF92DF9284
:102F2000EF92FF920F931F93CF93DF93CDB7DEB74E
:102F3000C250D2400FB6F894DEBF0FBECDBF8B019A
:102F4000CE0101960E9474070E94DD026B017C0194
:102F5000AE014F5F5F4F61E273E0CE010A960E94BF
:102F60005317FC01892B41F09481907898609483E9
:102F7000C082D182E282F382AE014F5F5F4F66E290
:102F800073E0CE010A960E945317FC01892B61F071
:102F9000948190789A609483012E000C220B330B5D
:102FA000008311832283338367E074E0CE010196AE
:102FB0000E94710C87E094E00E94EB0281E0CE5FFA
:102FC000DD4F0FB6F894DEBF0FBECDBFDF91CF91BE
:102FD0001F910F91FF90EF90DF90CF9008958F9207
:102FE0009F92AF92BF92CF92DF92EF92FF920F9398
:102FF0001F93CF93DF93CDB7DEB7C051D2400FB64A
:10300000F894DEBF0FBECDBF6B018E010F5F1F4F67
:10301000C8010E9474070E94DD024B015C01A801F7
:1030200061E273E0CE010A960E945317FC01892BDE
:1030300041F0948190789860948380829182A282FA
:10304000B382B601CE01855F9D4F0E946A0DCE010D
:103050008D5F9D4FFC01019311937F01BE01655F60
:103060007D4FCF010E946A0DCE01855F9D4F0E946A
:103070002B0ACD5FDD4FA880B980C350D240CB5F13
:10308000DD4F48815981C550D240C75FDD4F68810F
:103090007981C950D2409501C50109960E944A0A1A
:1030A000AC01B501C60106960E940108C7010E9445
:1030B0002B0A67E074E0C8010E94710C87E094E07D
:1030C0000E94EB026AE070E080E090E00E94AB02B8
:1030D00081E0C05FDD4F0FB6F894DEBF0FBECDBFFD
:1030E000DF91CF911F910F91FF90EF90DF90CF90E4
:1030F000BF90AF909F908F9008958F929F92AF92C4
:10310000BF92EF92FF920F931F93CF93DF93CDB7B0
:10311000DEB7C250D2400FB6F894DEBF0FBECDBFAF
:103120007C018B01CE0101960E9474070E94DD0292
:103130004B015C01AE014F5F5F4F61E273E0CE0176
:103140000A960E945317FC01892B41F094819078D4
:103150009860948380829182A282B382AE014F5F95
:103160005F4F66E273E0CE010A960E945317FC019E
:10317000892B61F0948190789A609483012E000CE1
:10318000220B330B008311832283338367E074E0C7
:10319000CE0101960E94710CC70106960E94EB02B7
:1031A00081E0CE5FDD4F0FB6F894DEBF0FBECDBF1E
:1031B000DF91CF911F910F91FF90EF90BF90AF9053
:1031C0009F908F9008958F929F92AF92BF92CF92CF
:1031D000DF92EF92FF920F931F93CF93DF93CDB7C0
:1031E000DEB7C051D2400FB6F894DEBF0FBECDBFE0
:1031F0008C016B01CE0101967C010E9474070E9434
:10320000DD024B015C01A70161E273E0CE010A9689
:103210000E945317FC01892B41F0948190789860AB
:10322000948380829182A282B382B601CE01855FAF
:103230009D4F0E946A0DFE01ED5FFD4FE192F192FC
:103240005F01BE01655F7D4FCF010E946A0DCE0117
:10325000855F9D4F0E942B0ACD5FDD4F888099804E
:10326000C350D240CB5FDD4F48815981C550D24019
:10327000C75FDD4F68817981C950D2409401C40194
:1032800009960E944A0AAC01B401C60106960E9442
:103290000108C5010E942B0A0A5F1F4FB801C70130
:1032A0000E94710CC8010E94EB026AE070E080E0AD
:1032B00090E00E94AB0281E0C05FDD4F0FB6F89452
:1032C000DEBF0FBECDBFDF91CF911F910F91FF9059
:1032D000EF90DF90CF90BF90AF909F908F90089528
:1032E0001F920F920FB60F9211242F933F938F933B
:1032F0009F93AF93BF938091FB039091FC03A091A8
:10330000FD03B091FE033091FA0323E0230F2D3724
:1033100058F50196A11DB11D2093FA038093FB037C
:103320009093FC03A093FD03B093FE038091FF03F1
:1033300090910004A0910104B09102040196A11D96
:10334000B11D8093FF0390930004A0930104B093F8
:103350000204BF91AF919F918F913F912F910F9058
:103360000FBE0F901F90189526E8230F0296A11DFF
:10337000B11DD2CF1F920F920FB60F9211240BB630
:103380000F922F933F934F935F936F937F938F93FE
:103390009F93AF93BF93EF93FF9387E094E00E94D6
:1033A0006A03FF91EF91BF91AF919F918F917F91B0
:1033B0006F915F914F913F912F910F900BBE0F90A6
:1033C0000FBE0F901F9018951F920F920FB60F927D
:1033D00011240BB60F922F938F939F93EF93FF932C
:1033E000E0911704F09118048081E0911D04F091A0
:1033F0001E0482FD1DC09081809120048F5F8F7319
:1034000020912104821741F0E0912004F0E0E95F6F
:10341000FB4F958F80932004FF91EF919F918F91A7
:103420002F910F900BBE0F900FBE0F901F9018950D
:103430008081F2CF1F920F920FB60F9211240BB61C
:103440000F922F933F934F935F936F937F938F933D
:103450009F93AF93BF93EF93FF93E0910504F09197
:103460000604309749F0A685B7858585968D91FF2E
:1034700016C09C918923B1F4FF91EF91BF91AF9158
:103480009F918F917F916F915F914F913F912F917C
:103490000F900BBE0F900FBE0F901F9018959C9130
:1034A000892351F7A389B4899C91858980958923C3
:1034B0008C93868997890197F1F7608D718DA68528
:1034C000B785558538E020E0CB010197F1F7822FD1
:1034D00090E095958795282F4C91452309F0206819
:1034E000315091F7868D81FD20958091040490E004
:1034F00001968F73992730910304381799F0A091A2
:103500000404B0E0A654BC4F2C9380930404828D35
:10351000938D0197F1F7A389B4898C919589892BB3
:103520008C93AACF868D8160868FF1CF1F93CF9326
:10353000DF93282F30E0F901E855FE4F8491F9011F
:10354000EE54FD4FD491F901E459FD4FC491CC23C1
:10355000A9F0162F81110E94D901EC2FF0E0EE0F97
:10356000FF1FEE5AFD4FA591B4918FB7F894EC91DF
:10357000111108C0D095DE23DC938FBFDF91CF916E
:103580001F910895DE2BF8CFCF92DF92EF92FF923A
:103590000F931F93CF93DF9310920A0410920904A4
:1035A00088EE93E0A0E0B0E080930B0490930C04CD
:1035B000A0930D04B0930E048EE392E09093080460
:1035C0008093070485EC90E0909314048093130497
:1035D00084EC90E0909316048093150480EC90E0C6
:1035E000909318048093170481EC90E090931A0450
:1035F0008093190482EC90E090931C0480931B0448
:1036000086EC90E090931E0480931D041092200499
:1036100010922104109222041092230480E1E6E02B
:10362000F2E0A1EDB4E001900D928A95E1F78AE015
:10363000E6E1F2E0A1EEB4E001900D928A95E1F7A7
:103640000E94DD026093EB047093EC048093ED0420
:103650009093EE041092EF041092F0041092F10493
:103660001092F2041092F3041092F4041092F504F4
:103670001092F60481E08093F7048093F804C4E884
:10368000D2E001ED14E0E4E9CE2EE2E0DE2E780196
:10369000888122960E944002F701819391937F01D5
:1036A000CC16DD06A9F7CAE7D2E0888122960E94EF
:1036B0006902F801819391938F01F2E0C438DF072A
:1036C000A1F780E792E09093D0048093CF040E940A
:1036D000B10182E692E09093AB048093AA048BE060
:1036E00090E09093AD048093AC048AE090E09093D6
:1036F000AF048093AE041092B3041092B20488EE2B
:1037000093E0A0E0B0E08093B4049093B504A0935C
:10371000B604B093B70480E592E09093B10480932F
:10372000B0041092C7041092C6041092C9041092FB
:10373000C8041092CB041092CA041092CD041092C7
:10374000CC046091CE046E7F6D7F6093CE0466954D
:10375000617081E068278BE00E94961A4DEB52E081
:10376000FA01649187E792E0FC012491222399F009
:1037700030E0220F331FF901E85CFD4FA591B491B1
:10378000F901EE5AFD4F259134912FB7F8943C91F1
:10379000632B6C932FBFFA0144914093C004FC014A
:1037A0008491E82FF0E0EE0FFF1FEE5AFD4F859158
:1037B00094919093C2048093C1040CEB12E0F80141
:1037C0002491C6E7D2E0FE0184918823C9F090E0FD
:1037D000880F991FFC01E85CFD4FA591B491FC0195
:1037E000EE5AFD4F459154913FB7F8949C91822F2A
:1037F000809598239C93FA019081892380833FBF11
:103800008091CE0481FD04C061E08AE00E94961A96
:103810008AE08093BC04F80104910093BD04FE018A
:10382000C491EC2FF0E0EE0FFF1FE25EFD4F85919B
:1038300094919093BF048093BE048DE991E090939E
:10384000CD048093CC042DEB30E03093C70420935B
:10385000C6042BE931E03093C9042093C8042CE25C
:1038600031E03093CB042093CA042091680021609A
:10387000209368002BE630E03093C4042093C30407
:1038800020E12093C5040197F1F7E0910504F09140
:10389000060484E0E03BF80709F1309739F0A3898A
:1038A000B4899C918589809589238C938091CE04DD
:1038B0008E7F8093CE04109204041092030480EB58
:1038C00094E09093060480930504E091C304F09182
:1038D000C40480819091C504892B80831092A70431
:1038E0001092A60405E010E01093A9040093A80428
:1038F0008AE290E00E946121EC01099319937E0114
:103900008C01065D1F4F67EA72E0C7010E94840DBB
:10391000E8E0EE0EF11CE016F106A9F7D093A5043D
:10392000C093A404DF91CF911F910F91FF90EF906E
:10393000DF90CF900895CF93DF93CDB7DEB76F9729
:103940000FB6F894DEBF0FBECDBF789484B5826009
:1039500084BD84B5816084BD85B5826085BD85B533
:10396000816085BD80916E00816080936E001092B1
:10397000810080918100826080938100809181002C
:1039800081608093810080918000816080938000BD
:103990008091B10084608093B1008091B00081601B
:1039A0008093B0008091910082608093910080911B
:1039B000910081608093910080919000816080935C
:1039C00090008091A10082608093A1008091A1006D
:1039D00081608093A1008091A00081608093A0000D
:1039E0008091210182608093210180912101816079
:1039F000809321018091200181608093200180913A
:103A00007A00846080937A0080917A00826080934B
:103A10007A0080917A00816080937A0080917A00A8
:103A2000806880937A001092C1000E94B10160ED1D
:103A300077E080E090E00E94AB0280E190E00E949D
:103A400061215C0134E8E32E32E0F32E1C018C018D
:103A5000005F1F4F3C01F7018081F2E0EF0EF11C87
:103A60000E944002F301819391933F01E017F10717
:103A700091F78AE090E00E9461216C012AE7E22E32
:103A800022E0F22E9D8F8C8F4C01FAE08F0E911C5C
:103A90008C01F7018081F2E0EF0EF11C0E946902B7
:103AA000F801819391938F01E815F90591F70E9430
:103AB000DD02AB01BC018091EB049091EC04A0917C
:103AC000ED04B091EE048C599F4FAF4FBF4F841758
:103AD0009507A607B70708F068C10E94DD0260934A
:103AE000EB047093EC048093ED049093EE0491ED5D
:103AF000492E94E0592E0AE212E0F201819191914F
:103B00002F01F101819091901F0188159905B1F164
:103B1000F801E080F1806DE273E0009729F00197F1
:103B200009F052C164E373E0CE0143960E94840D14
:103B3000B701CE010D960E94840DAE014D5E5F4F20
:103B4000BE01635F7F4FCE0101960E94730DBE01DF
:103B50006F5F7F4F8FEC94E00E94EF17CE010196CC
:103B60000E94330ACE010D960E942B0ACE01439685
:103B70000E942B0AF2013297918280820E5F1F4FC2
:103B80006214730409F0B9CF80E292E09F8F8E8FA8
:103B900081EE282E84E0382E1B8E1A8E10E000E075
:103BA000EE8DFF8D81909190FF8FEE8FEC8DFD8DCE
:103BB000E190F190FD8FEC8FC401C1968E159F05A9
:103BC0002CF482569109E816F90644F002301105EA
:103BD0002CF4F801EF52FB4F21E026A3F101808184
:103BE000918197012A563F4F2817390734F02C52FC
:103BF0003140821793070CF06CC0C4018A569F4F66
:103C00008E159F0534F08C529140E816F9060CF0A1
:103C100060C0FA8DF1115DC08091F704882309F42A
:103C200058C02091F804298F222309F452C0023091
:103C300011050CF04EC04090F3045090F4046090D5
:103C4000F5047090F60484EF480E81E0581E611C64
:103C5000711C0E94DD026415750586059705C8F183
:103C600060E673E0CE0143960E94840D66E673E041
:103C7000CE010D960E94840DAE014D5E5F4FBE01D8
:103C8000635F7F4FCE0101960E94730DBE016F5F8F
:103C90007F4F8FEC94E00E94EF17CE0101960E94B7
:103CA000330ACE010D960E942B0ACE0143960E9444
:103CB0002B0A1092F7041092F8040E94DD02609320
:103CC000F3047093F4048093F5049093F604998DB3
:103CD0009A8FF101819191911F0194012E5C3F4FC8
:103CE000281739073CF0F2E38F1A910888159905D7
:103CF0000CF051C02B8D21114EC0023011050CF477
:103D00004AC04090EF045090F0046090F10470902D
:103D1000F20484EF480E81E0581E611C711C0E9461
:103D2000DD026415750586059705A8F160E673E068
:103D3000CE0143960E94840D6FE673E0CE010D968E
:103D40000E94840DAE014D5E5F4FBE01635F7F4FE9
:103D5000CE0101960E94730DBE016F5F7F4F8FEC05
:103D600094E00E94EF17CE0101960E94330ACE0123
:103D70000D960E942B0ACE0143960E942B0A0E94A8
:103D8000DD026093EF047093F0048093F10490934C
:103D9000F20491E09B8FF1013297F182E0820F5F94
:103DA0001F4F0530110509F0FBCEA114B10419F025
:103DB000C5010E94FD21C114D10419F0C6010E9461
:103DC000FD210E94F90339CE6CE373E0CE014396E6
:103DD0000E94840DB701CE010D960E94840DAE01A4
:103DE0004D5E5F4FBE01635F7F4FCE0101960E9423
:103DF000730DBE016F5F7F4F8FEC94E00E94EF1751
:103E0000CE0101960E94330ACE010D960E942B0A24
:103E1000CE0143960E942B0A63E473E0CE01019623
:103E20000E94840D62E070E0CE0101960E94990D1F
:103E3000CE0101969DCECF93DF93C091A404D09183
:103E4000A5042097D9F0FE0132978081918123E06B
:103E5000880F991F2A95E1F7C80FD91F9E018091FD
:103E6000A4049091A50428978217930721F0CE010E
:103E70000E942B0AF3CF02970E94FD218AEA94E068
:103E8000DF91CF910C943F080E94861F08F481E0D7
:103E90000895E89409C097FB3EF49095809570953D
:103EA00061957F4F8F4F9F4F9923A9F0F92F96E986
:103EB000BB279395F695879577956795B795F111FB
:103EC000F8CFFAF4BB0F11F460FF1BC06F5F7F4F98
:103ED0008F4F9F4F16C0882311F096E911C07723AA
:103EE00021F09EE8872F762F05C0662371F096E8B3
:103EF000862F70E060E02AF09A95660F771F881F82
:103F0000DAF7880F9695879597F90895990F000825
:103F1000550FAA0BE0E8FEEF16161706E807F9079B
:103F2000C0F012161306E407F50798F0621B730B36
:103F3000840B950B39F40A2661F0232B242B252BB7
:103F400021F408950A2609F4A140A6958FEF811D5A
:103F5000811D08950E94BD1F0C942E200E942020D8
:103F600038F00E94272020F0952311F00C941720A0
:103F70000C941D2011240C9462200E943F2070F3A9
:103F8000959FC1F3950F50E0551F629FF001729FFE
:103F9000BB27F00DB11D639FAA27F00DB11DAA1F0D
:103FA000649F6627B00DA11D661F829F2227B00D5A
:103FB000A11D621F739FB00DA11D621F839FA00DE5
:103FC000611D221F749F3327A00D611D231F849F35
:103FD000600D211D822F762F6A2F11249F5750408C
:103FE0009AF0F1F088234AF0EE0FFF1FBB1F661F07
:103FF000771F881F91505040A9F79E3F510580F0D0
:104000000C9417200C9462205F3FE4F3983ED4F3A5
:10401000869577956795B795F795E7959F5FC1F773
:10402000FE2B880F911D9695879597F9089597F91E
:104030009F6780E870E060E008959FEF80EC08954E
:1040400000240A9416161706180609060895002477
:104050000A9412161306140605060895092E0394F1
:10406000000C11F4882352F0BB0F40F4BF2B11F465
:1040700060FF04C06F5F7F4F8F4F9F4F089557FDC4
:104080009058440F551F59F05F3F71F04795880FC6
:1040900097FB991F61F09F3F79F08795089512165D
:1040A00013061406551FF2CF4695F1DF08C0161609
:1040B00017061806991FF1CF8695710561050894BA
:1040C0000895E894BB2766277727CB0197F90895D1
:1040D0000E947320A59F900DB49F900DA49F800D0A
:1040E000911D11240895A29FB001B39FC001A39F09
:1040F000700D811D1124911DB29F700D811D112421
:10410000911D0895AA1BBB1B51E107C0AA1FBB1F2D
:10411000A617B70710F0A61BB70B881F991F5A9553
:10412000A9F780959095BC01CD010895A1E21A2EC2
:10413000AA1BBB1BFD010DC0AA1FBB1FEE1FFF1F4B
:10414000A217B307E407F50720F0A21BB30BE40B9B
:10415000F50B661F771F881F991F1A9469F76095E2
:104160007095809590959B01AC01BD01CF0108959C
:10417000EE0FFF1F881F8BBF0790F691E02D19945B
:104180005058BB27AA270E94D8200C942E200E94AA
:10419000202038F00E94272020F039F49F3F19F4A6
:1041A00026F40C941D200EF4E095E7FB0C941720E8
:1041B000E92F0E943F2058F3BA176207730784075C
:1041C000950720F079F4A6F50C9461200EF4E095A3
:1041D0000B2EBA2FA02D0B01B90190010C01CA01C1
:1041E000A0011124FF27591B99F0593F50F4503E6C
:1041F00068F11A16F040A22F232F342F4427585F5E
:10420000F3CF469537952795A795F0405395C9F775
:104210007EF41F16BA0B620B730B840BBAF091502D
:10422000A1F0FF0FBB1F661F771F881FC2F70EC0CC
:10423000BA0F621F731F841F48F48795779567959F
:10424000B795F7959E3F08F0B0CF9395880F08F08B
:104250009927EE0F9795879508950E94472088F03B
:104260009F5798F0B92F9927B751B0F0E1F0660F3A
:10427000771F881F991F1AF0BA95C9F714C0B1307B
:1042800091F00E946120B1E008950C946120672FA5
:10429000782F8827B85F39F0B93FCCF386957795AA
:1042A0006795B395D9F73EF4909580957095619593
:1042B0007F4F8F4F9F4F08950E94861F08F48FEF06
:1042C00008950F931F93CF93DF938230910510F4DD
:1042D00082E090E0E091FB04F091FC0430E020E00B
:1042E000B0E0A0E0309799F42115310509F44AC0F7
:1042F000281B390B24303105D8F58A819B81611543
:10430000710589F1FB0193838283FE0111C0408115
:1043100051810281138148175907E0F04817590766
:1043200099F4109761F012960C93129713961C93C0
:104330003296CF01DF91CF911F910F910895009395
:10434000FB041093FC04F4CF2115310551F0421702
:10435000530738F0A901DB019A01BD01DF01F80123
:10436000C1CFEF01F9CF9093FC048093FB04CDCF34
:10437000FE01E20FF31F819391932250310939839B
:104380002883D7CF2091F9043091FA04232B41F4EC
:1043900020910202309103023093FA042093F90431
:1043A00020910002309101022115310541F42DB711
:1043B0003EB74091040250910502241B350BE09159
:1043C000F904F091FA04E217F307A0F42E1B3F0B57
:1043D0002817390778F0AC014E5F5F4F2417350777
:1043E00048F04E0F5F1F5093FA044093F9048193F5
:1043F00091939FCFF0E0E0E09CCFCF93DF930097C5
:10440000E9F0FC01329713821282A091FB04B09173
:10441000FC04ED0130E020E01097A1F4208131810F
:10442000820F931F2091F9043091FA04281739075D
:1044300009F061C0F093FA04E093F904DF91CF91A1
:104440000895EA01CE17DF07E8F54A815B819E01F6
:1044500041155105B1F7E901FB83EA83499159916F
:10446000C40FD51FEC17FD0761F48081918102967E
:10447000840F951FE90199838883828193819B83AF
:104480008A83F0E0E0E012968D919C91139700975B
:10449000B9F52D913C911197CD010296820F931F92
:1044A0002091F9043091FA042817390739F630972A
:1044B00051F51092FC041092FB04B093FA04A093FF
:1044C000F904BCCFD383C28340815181840F951FEF
:1044D000C817D90761F44E5F5F4F88819981480FF3
:1044E000591F518340838A819B8193838283211545
:1044F000310509F0B0CFF093FC04E093FB049ECFAC
:10450000FD01DC01C0CF13821282D7CF4F925F92A0
:104510006F927F928F929F92AF92BF92CF92DF92D3
:10452000EF92FF920F931F93CF93DF938C0100972D
:1045300099F4CB01DF91CF911F910F91FF90EF90F4
:10454000DF90CF90BF90AF909F908F907F906F90B3
:104550005F904F900C946121FC01E60FF71F9C01C6
:1045600022503109E217F30708F4AEC0D901CD910A
:10457000DC911197C617D70720F1C530D10578F027
:10458000CE0104978617970750F0C61BD70B2297CA
:10459000C193D1936D937C93CF010E94FD21C801FB
:1045A000DF91CF911F910F91FF90EF90DF90CF900F
:1045B000BF90AF909F908F907F906F905F904F9043
:1045C00008955B01AC1ABD0A4C018C0E9D1EA09192
:1045D000FB04B091FC04512C412CF12CE12C1097E0
:1045E00031F58091F9049091FA048815990509F044
:1045F0005CC04616570608F058C0809100029091A2
:104600000102009741F48DB79EB74091040250918A
:104610000502841B950BE817F90708F055C0F093C5
:10462000FA04E093F904F90171836083B8CF8D91A6
:104630009C91119712966C90129713967C901397F9
:10464000A815B90559F56C0142E0C40ED11CCA1475
:10465000DB0420F1AC014A195B09DA0112961597C7
:1046600080F06282738251834083D9016D937C9381
:10467000E114F10471F0D7011396FC93EE931297B5
:104680008ECF22968C0F9D1FF90191838083F301B9
:10469000EFCFF093FC04E093FB0481CF481659065A
:1046A00008F42C017D01D3019ACFCB010E94612136
:1046B0007C01009749F0AE01B8010E946C23C8014B
:1046C0000E94FD2187016BCF10E000E068CF81E000
:1046D00090E0F8940C948523FB01DC0102C001906A
:1046E0000D9241505040D8F70895FB01DC018D91A7
:1046F000019080190110D9F3990B0895FB01DC0199
:1047000001900D920020E1F7089511E0CDE7D1E08E
:1047100000E006C0802FFE010E94B8202196011DF6
:0E472000CE37D10780E00807A9F7F894FFCF45
:10472E000000FD04800003000300030003000300EB
:10473E000300030003000300030003000300030053
:10474E00F401F40154014F019C017D0385038C0398
:10475E0093039B03A203AA03B203000000008C0381
:10476E00F6022303D903540332034603000000006C
:10477E004304F602D60442049F04B5042A04000042
:10478E0000003F083E0AE3187D184B16000000009B
:10479E00D904170AEF178E17481500000100030001
:1047AE000400050016001800170009000800070095
:1047BE00060005000D0A002F2F22225C5C6208669F
:1047CE000C6E0A720D7409005C7530303030006E5C
:1047DE00756C6C00747275650066616C736500456E
:1047EE0072726575722046696C61697265206D73AF
:1047FE0067204552524F52004572726575722046BF
:10480E00696C61697265206E6F6E2D646973706F6D
:10481E00004572726575722042746F6F7468206DF8
:10482E007367204552524F52004572726575722061
:10483E0042746F6F7468206E6F6E2D646973706F43
:10484E000074696D6500616E616C6F670041707018
:10485E007579650052656C616368650045727265B5
:10486E0075720045727265757220457461742042CE
:10487E006F75746F6E7320696E76616C6964650016
:10488E00426F756765004A6F79737469636B004197
:10489E006363656C65726F6D657472650042745208
:1048AE006F756765004274426C657500427456659B
:1048BE0072740042744A61756E6500424D61757680
:1048CE006500426F75746F6E3600426F75746F6E51
:0A48DE003700426F75746F6E3800EA
:00000001FF
