:100000000C947E010C94AF010C94AF010C94AF01E1
:100010000C94AF010C94AF010C94AF010C94AF01A0
:100020000C94AF010C9472140C9472140C9472140E
:100030000C94AF010C94AF010C94AF010C94AF0180
:100040000C94AF010C94AF010C94AF010C94AF0170
:100050000C94AF010C94AF010C94AF010C94C81335
:100060000C94AF010C943C140C9412140C94AF013A
:100070000C94AF010C94AF010C94AF010C94AF0140
:100080000C94AF010C94AF010C94AF010C94AF0130
:100090000C94AF010C94AF010C94AF010C94AF0120
:1000A0000C94AF010C94AF010C94AF010C94AF0110
:1000B0000C94AF010C94AF010C94AF010C94AF0100
:1000C0000C94AF010C94AF010C94AF010C94AF01F0
:1000D0000C94AF010C94AF010C94AF010C94AF01E0
:1000E0000C94AF010C947C110C94DA040C9425133D
:1000F0000C940F020C94E1010C9413130C9455030F
:100100000C9402020C9406020C94DB040C94CF01B4
:100110000C94F2100C9424030C94B4060C94E21189
:100120000C94F4010C94EA010C94DD010C948D0301
:100130000C94EE010C94B6040C9433030C94440418
:100140000C940A020C942B040C9410020C94591871
:100150000C941C150C94A0040C94F8010C9443040A
:100160000C9414020C94BB080C94D7040C94D50185
:100170000C94E4010C9447030C94D9010C94FC01F9
:100180000C94F7020C94DA030C9491100C94C508AB
:100190000000803FCDCCCC3D6F12833A95BFD63363
:1001A0007D1D9026B3CE010C00000A0B02090C0D38
:1001B0000E0807030401000000000000000000001A
:1001C000000000000000000000000000000000002F
:1001D00000000000121110000000000000000000EC
:1001E000000000000000000000000000000000000F
:1001F00020410000C84200401C4620BCBE4CCA1B27
:100200000E5AAEC59D74CDCCCC3D0AD7233C17B752
:10021000D13877CC2B329595E6241FB14F0A0000D8
:1002200020002300260029002C002F0032000001AE
:10023000000003010601090100002100240027003D
:100240002A002D00300033000101000004010701E5
:100250000A0100002200250028002B002E0031009A
:10026000340002010000050108010B010505050528
:10027000070508080808020202020A0A080804041E
:10028000040401010101010101010303030303034C
:100290000303040707070C0C0C0C0C0C0C0C0202DB
:1002A000020206060606060606060B0B0B0B0B0BD8
:1002B0000B0B010210202008081020401020408065
:1002C000020102010804020101020408102040801A
:1002D00080402010080402018004020180402010A8
:1002E00008040201080402010102040810204080F1
:1002F00001020408102040801C15591811241FBE4B
:10030000CFEFD1E2DEBFCDBF00E00CBF24E0A4E818
:10031000B3E001C01D92AD3AB207E1F713E0A0E0EF
:10032000B2E0E0E6F9E300E00BBF02C007900D92F7
:10033000A438B107D9F711E0CDE7D1E000E006C05D
:1003400021970109802FFE010E94D119CC37D107D6
:1003500080E00807A9F70E94CA160C949E1C0C9412
:1003600000008150823108F05AC0E82FF0E0882761
:10037000E354FE4F8F4F0C94D119DD01E101CF0101
:10038000D501D9010F02E401EA01EE01F401F801FF
:10039000FC01020206020F020A02100214028091FE
:1003A00080008F77809380000895809180008F7DFA
:1003B000F9CF80918000877FF5CF84B58F7784BD9A
:1003C000089584B58F7DFBCF8091B0008F778093A7
:1003D000B00008958091B0008F7DF9CF809190009A
:1003E0008F77809390000895809190008F7DF9CF52
:1003F00080919000877FF5CF8091A0008F778093C8
:10040000A00008958091A0008F7DF9CF8091A00079
:10041000877FF5CF809120018F7780932001089509
:10042000809120018F7DF9CF80912001877FF5CFCA
:10043000CF93DF93282F30E0F901E855FE4F8491E8
:10044000F901EE54FD4FD491F901E459FD4FC491E7
:10045000CC23A1F081110E94B101EC2FF0E0EE0F4E
:10046000FF1FE25EFD4FA591B491EC91ED2381E079
:1004700090E009F480E0DF91CF91089580E090E072
:10048000FACF0F931F93CF93DF93C0E4D2E005E937
:1004900014E0888122960E941802F80181939193BA
:1004A0008F01F2E0C035DF07A1F7DF91CF911F91F7
:1004B0000F910895863308F0865320917B00982F82
:1004C0009870277F922B90937B0087708064809335
:1004D0007C0080917A00806480937A0080917A0019
:1004E00086FDFCCF809178009091790008950F935C
:1004F0001F93CF93DF93C6E3D2E005E914E0888130
:1005000022960E945A02F801819391938F01F2E0A2
:10051000C034DF07A1F7DF91CF911F910F910895AC
:100520003FB7F8948091C9039091CA03A091CB037F
:10053000B091CC0326B5A89B05C02F3F19F00196BA
:10054000A11DB11D3FBFBA2FA92F982F8827BC012D
:10055000CD01620F711D811D911D42E0660F771F55
:10056000881F991F4A95D1F708958F929F92AF9255
:10057000BF92CF92DF92EF92FF920E9490024B01C6
:100580005C0188EEC82E83E0D82EE12CF12C0E946D
:100590009002681979098A099B09683E73408105B0
:1005A0009105A8F321E0C21AD108E108F10888EE0C
:1005B000880E83E0981EA11CB11CC114D104E10473
:1005C000F10429F7FF90EF90DF90CF90BF90AF90AC
:1005D0009F908F9008952FB7F8946091C503709104
:1005E000C6038091C7039091C8032FBF0895AF92AF
:1005F000BF92CF92DF92EF92FF920F931F93CF9310
:10060000DF936C017B018B01040F151FEB015E0171
:10061000AE18BF08C017D10759F06991D601ED9106
:10062000FC910190F081E02DC6011995892B79F795
:10063000C501DF91CF911F910F91FF90EF90DF9057
:10064000CF90BF90AF900895FC01538D448D252F1E
:1006500030E0842F90E0821B930B541710F0CF965C
:10066000089501970895FC01918D828D981761F08E
:10067000A28DAE0FBF2FB11D5D968C91928D9F5FA5
:100680009F73928F90E008958FEF9FEF0895FC0184
:10069000918D828D981731F0828DE80FF11D858D37
:1006A00090E008958FEF9FEF0895FC01918D228DCA
:1006B000892F90E0805C9F4F821B91098F7399274F
:1006C000089581ED93E00E94550321E0892B09F400
:1006D00020E0822F0895FC01A48DA80FB92FB11D31
:1006E000A35ABF4F2C91848D90E001968F73992768
:1006F000848FA689B7892C93A089B1898C91837046
:1007000080648C93938D848D981306C00288F3893E
:10071000E02D80818F7D80830895EF92FF920F936B
:100720001F93CF93DF93EC0181E0888F9B8D8C8D9D
:1007300098131AC0E889F989808185FF15C09FB791
:10074000F894EE89FF896083E889F9898081837054
:10075000806480839FBF81E090E0DF91CF911F9103
:100760000F91FF90EF900895F62E0B8D10E00F5F24
:100770001F4F0F731127E02E8C8D8E110CC00FB6FA
:1007800007FCFACFE889F989808185FFF5CFCE0192
:100790000E946B03F1CFEB8DEC0FFD2FF11DE35A9F
:1007A000FF4FF0829FB7F8940B8FEA89FB89808115
:1007B0008062CFCFCF93DF93EC01888D8823B9F08F
:1007C000AA89BB89E889F9898C9185FD03C080815C
:1007D00086FD0DC00FB607FCF7CF8C9185FFF2CFD9
:1007E000808185FFEDCFCE010E946B03E9CFDF91C1
:1007F000CF91089580E090E0892B29F00E94610359
:1008000081110E94000080E090E0892B49F080E097
:1008100090E0892B29F00E94000081110E940000C5
:1008200080E090E0892B49F080E090E0892B29F06E
:100830000E94000081110E94000080E090E0892B5E
:1008400049F080E090E0892B29F00E94000081119E
:100850000C94000008952091CF033091D003281705
:10086000390771F49091CD038091CE03981741F030
:10087000E091CD03F0E0EC57FC4F808190E00895CB
:100880008FEF9FEF08950895EF92FF920F931F93BC
:10089000CF93DF93DC015C96ED90FC905D97E114C3
:1008A000F10479F481E090E013969C938E93129773
:1008B00090E080E0DF91CF911F910F91FF90EF903A
:1008C00008955196ED91FC91529750968C915097C6
:1008D000982F90950FB75E962C915E97122F1270FD
:1008E00021FD6095F8942081112319F1282B208394
:1008F000E7012197F1F728E0462F50E0308160FFB3
:100900001AC0382B3083E7012197F1F7BA017595AA
:100910006795215089F7112381F080818923808395
:100920000FBF5C968D919C910197F1F781E090E06B
:10093000C1CF2923DCCF3923E5CF9081892BEFCF9D
:100940002091CF033091D0032817390761F48091AB
:10095000CE032091CD0390E0805C9F4F821B9109D4
:100960008F739927089590E080E008952091CF0338
:100970003091D00328173907B9F49091CD038091B5
:10098000CE03981789F0E091CD03F0E0EC57FC4FCF
:1009900080812091CD0330E02F5F3F4F2F733327AD
:1009A0002093CD0390E008958FEF9FEF089590E09E
:1009B00080E0089508950895CF93DF93EC01888136
:1009C0009981DC01ED91FC910190F081E02D199568
:1009D0002A813B81820F931F9B838A83DF91CF9172
:1009E0000895CF93DF93EC0188819981DC01ED912B
:1009F000FC910280F381E02D19952A813B81820FC1
:100A0000931F9B838A83DF91CF9108958F929F924A
:100A1000AF92BF92CF92DF92EF92FF920F931F930C
:100A2000CF93DF93CDB7DEB766970FB6F894DEBFEE
:100A30000FBECDBF6C018E01095E1F4F78018AE0A9
:100A4000882E912CA12CB12CCB01BA01A5019401C7
:100A50000E94AF19942F852F605DF80162938F017A
:100A6000A901692F782F411551056105710561F7BD
:100A7000A7014E1B5F0BBF01C6010E94F1046696E1
:100A80000FB6F894DEBF0FBECDBFDF91CF911F919F
:100A90000F91FF90EF90DF90CF90BF90AF909F901D
:100AA0008F90089580339CF08A3324F08F3524F0A2
:100AB0008B3724F481E0089581344CF08B35D4F3E6
:100AC00093ED980F81E09230B0F380E008958B327F
:100AD000B9F7F0CFCF92DF92EF92FF920F931F936F
:100AE000CF93DF93EC018C85811130C009851A8585
:100AF0000E94EB02D80118966D937D938D939C9381
:100B00001B97D801ED91FC910284F385E02DC8017B
:100B1000199597FF25C00E94EB02F801C084D1848B
:100B2000E284F3846C197D098E099F09C480D58005
:100B3000E680F7806C157D058E059F0510F38FEF1D
:100B40009FEF97FD80E08B8781E08C878B85DF911D
:100B5000CF911F910F91FF90EF90DF90CF9008956C
:100B60009927EFCF1F93CF93DF93EC01162F0E94AD
:100B70006A05811306C01C8681E0DF91CF911F9129
:100B8000089580E0FACFCF93DF93EC01CE010E946D
:100B90006A058B303CF489304CF4882349F081E0BD
:100BA000888710C08D3011F08032C9F71C86EECFD7
:100BB000888581110AC081E090E0C15BDF4F998395
:100BC000888380E0DF91CF91089582E090E0F5CFB7
:100BD0000895FC010E9691838083938382838C50C9
:100BE0009E4F958384839783868310861586089508
:100BF0000F931F93CF93DF93DB0112962D913C91BE
:100C0000EC01E881F9818A819B81DF01A20FB31F8A
:100C1000A817B907A8F44C9141110EC0EB01A881A7
:100C2000B981EF018D01020F131FA017B10751F019
:100C30005D9149915417C9F341914111FDCFE5CF21
:100C4000F0E0E0E0CF01DF91CF911F910F91089587
:100C5000EF92FF920F931F93CF93DF9300D01F92D9
:100C6000CDB7DEB749835A836B837C83042F152F5E
:100C70000115110569F490E080E00F900F900F903E
:100C80000F90DF91CF911F910F91FF90EF900895FA
:100C90007C01BE016F5F7F4F0E94F805009769F7E6
:100CA0002B813C81F70182819381A9014F5F5F4FC6
:100CB000480F591F648175816417750718F481E026
:100CC0008087D9CF538342830097A9F2F801DC01D2
:100CD000BF01620F731F6E177F0719F041914D938B
:100CE000FACF280F391FF9011082C7CFCF92DF92B8
:100CF000EF92FF920F931F93CF93DF93EA01209718
:100D000051F1FC01208131812115310569F48C817B
:100D100080788C8381E0DF91CF911F910F91FF90BC
:100D2000EF90DF90CF9008957B0104811581A90198
:100D3000B801C7010E9428069C0150E040E0892BC1
:100D400011F04BED54E09C819078452B31F49C835D
:100D500081E0232B01F780E0DECF95609C8339830F
:100D600028831B830A83F4CFFC0188E792E09183F8
:100D7000808386E692E097838683CF010696209152
:100D8000CF033091D0032817390759F4A18DB28DC4
:100D90009C91838D809589238C931092D00310921F
:100DA000CF030895FC0124813581A9014F5F5F4F76
:100DB000868197814817590748F48281938155832A
:100DC0004483FC01E20FF31F608308950190F081DA
:100DD000E02D81E0808708959F92AF92BF92CF92DD
:100DE000DF92EF92FF920F931F93CF93DF9300D088
:100DF0001F921F92CDB7DEB78C010E946A05D82ED4
:100E0000D8011C961C92F12CE12C60EFC62EC80173
:100E10000E946A05F8011486D81609F4BDC0811134
:100E200019C0F801E15BFF4F82E090E0918380837D
:100E300080E00F900F900F900F900F90DF91CF9167
:100E40001F910F91FF90EF90DF90CF90BF90AF90E8
:100E50009F9008958C3509F09DC0C8010E946A05D5
:100E60008823F9F2E0E9F2E0853709F087C0D8017C
:100E70001C961C9254E0952EB12CA12CC8010E9406
:100E80006A05882371F281344CF48053803148F034
:100E9000F801E15BFF4F83E090E0C8CF8F7D87537F
:100EA000F5CF44E0AA0CBB1C4A95E1F7A82AF8014B
:100EB00014869A949110E2CFC501985D81159440F3
:100EC00020F4750123E0F222A2CFC5019C5D8115BB
:100ED0009440A8F4B3E0BB22B701762F6627770FC2
:100EE000770F6A297B2990E080E0019660387105D0
:100EF0008105910540F4C8010E94D20688CFB50152
:100F000090E080E0F3CF1982262F2F7320682A8388
:100F100026E096958795779567952A95D1F7603263
:100F2000710580F4606C6B835E01E4E0AE0EB11C71
:100F3000D5016E915D01662309F469CFC8010E9455
:100F4000D206F6CF262F2F7320682B8386E0769566
:100F500067958A95E1F76031710538F4606E6C83AE
:100F60005E01F5E0AF0EB11CE3CF60686C83CD820B
:100F70005E0126E0A20EB11CDBCF32969081992350
:100F800009F486CF8913F9CF8181882309F480CFB2
:100F9000F8011486682FAFCF0190F081E02D808595
:100FA000882331F0F801E15BFF4F84E090E03ECF11
:100FB00081E03FCFCF93FC01892B49F194819F774A
:100FC0009830E1F040F4992311F19630A9F0C1E096
:100FD0008C2FCF9108959A3089F09C30C1F7C1E0F1
:100FE00020E030E0A90160817181828193810E94BB
:100FF0005D188111EDCF0BC0C081EACFC1E08081C7
:101000009181A281B381892B8A2B8B2B09F7C0E0B8
:10101000DFCFCF93DF93DC01EB01EC81FD818A818F
:101020009B810896E817F90740F481E08887F0E093
:10103000E0E0CF01DF91CF9108953897FD83EC83F5
:101040003097B9F31296CD91DC911397209791F0D8
:10105000CF018C1B9D0B23E0959587952A95E1F791
:101060008D831396FC93EE93129715821482178248
:101070001682DFCF1196FC93EE93F3CFCF92DF92DF
:10108000EF92FF920F931F93CF93DF9300D01F92A5
:10109000CDB7DEB76C018B01DC011296ED90FC90B0
:1010A000FA82E9827C836B83BE016F5F7F4F0E946F
:1010B000F805009761F4F701E00FF11FCF010196E9
:1010C000D60113969C938E9312971082C7010F90AE
:1010D0000F900F900F90DF91CF911F910F91FF9084
:1010E000EF90DF90CF900895FC012581222339F005
:1010F000F8E02F0290011124820F931F089590E0D1
:1011000080E00895EF92FF920F931F93CF93DF93A8
:101110006115710519F17B018C01FC01C081D18140
:10112000209731F0CE010E947408E816F906E9F420
:10113000C7010E9474082097D1F020E0009741F089
:101140009C012C1B3D0B43E0359527954A95E1F713
:101150002D83892B19F4F801D383C283DF91CF91BA
:101160001F910F91FF90EF900895EC01D9CFF801F6
:1011700091838083EECF0C94161BFC0180819181BA
:10118000009711F00C94161B0895CF93DF93EC0198
:101190000E94B406CE01DF91CF910C94161B0E94E1
:1011A000801C0F931F93CF93DF93EC01888199816B
:1011B000009759F02A813B812617370730F081E0EC
:1011C000DF91CF911F910F9108958B016F5F7F4F3A
:1011D0000E949F1B009759F0998388831B830A8381
:1011E0002C813D81232B59F7FC011082E8CF80E050
:1011F000E7CFEF92FF920F931F93CF93DF93EC0112
:10120000198218821B821A821D821C8286179707F8
:10121000D9F0FB010081118101151105A9F0E480CD
:10122000F580B7010E94D10828813981811113C04E
:101230002115310519F0C9010E94161B1982188267
:101240001D821C821B821A82DF91CF911F910F9108
:10125000FF90EF900895FD82EC82B801C901DF9103
:10126000CF911F910F91FF90EF900C94971CEF92EC
:10127000FF920F931F93CF93DF93EC011982188293
:101280001B821A821D821C8261157105E1F08B019F
:10129000FB0101900020E9F731977F01E61AF70A78
:1012A000B7010E94D10828813981811113C021150D
:1012B000310519F0C9010E94161B198218821D827E
:1012C0001C821B821A82DF91CF911F910F91FF9098
:1012D000EF900895FD82EC82B801C901DF91CF91B2
:1012E0001F910F91FF90EF900C94971CFB010190C0
:1012F0000020E9F73197AF01461B570BDC01ED9158
:10130000FC910280F381E02D199461EA72E00C9463
:1013100076090F931F93CF93DF938C01D0E0C0E049
:101320006115710519F00E947609EC01C8010E944F
:1013300085098C0F9D1FDF91CF911F910F9108950B
:101340006F927F928F929F92AF92BF92CF92DF92D5
:10135000EF92FF920F931F93CF93DF93EC018C8159
:10136000982F9F7739F4807880628C831982188255
:101370001B821A828C8185FD11C080E090E0DF9194
:10138000CF911F910F91FF90EF90DF90CF90BF9082
:10139000AF909F908F907F906F9008957A01411544
:1013A000510559F389014A015B01888199816B01DB
:1013B0003501640E751E0097E9F0DC011696ED917B
:1013C000FC91B0E0A0E0309739F0DF010D900020F3
:1013D000E9F71197AE1BBF0BCA16DB0641F4D70124
:1013E0006A167B0661F23D9121913217C9F30E9482
:1013F0007408E1CFB801CE010E9409087C01892B55
:1014000029F4B701CE010E948208B7CFB501A4012B
:10141000C8010E9428069C01892B99F3F701948149
:101420009068948337832683C701A9CFFB0101907D
:101430000020E9F73197AF01461B570B0C94F104DC
:101440001F93CF93DF93E0E9F2E01281112379F04B
:10145000329621816213F9CFEC016CE50E94DC0425
:10146000612FCE01DF91CF911F910C94DC046111AB
:10147000F9CF64EA72E0DF91CF911F910C94160AC4
:101480002F923F924F925F926F927F928F929F9294
:10149000AF92BF92CF92DF92EF92FF920F931F9382
:1014A000CF93DF93CDB7DEB76C970FB6F894DEBF5E
:1014B0000FBECDBF8C011B01DC0114968C911497DB
:1014C0008F77863009F492C268F58230A0F11296C7
:1014D000ED90FC901397CC901196DC90843008F03E
:1014E00056C2A701B601C1010E94F104F101828137
:1014F00093816C960FB6F894DEBF0FBECDBFDF911F
:10150000CF911F910F91FF90EF90DF90CF90BF9000
:10151000AF909F908F907F906F905F904F903F9093
:101520002F9008958C3069F160F4883009F459C225
:101530008A3009F43FC26BEA72E0C1010E94160AC8
:10154000E5C1803209F4ECC18034A9F76BE5C10133
:101550000E94DC04F801008111810115110509F4D4
:10156000DAC1B101C8010E94400AC8010E94740892
:101570008C01892B09F4CFC16CE2C1010E94DC040B
:10158000ECCFF801C080D180E280F380A701960102
:10159000C701B6010E945D188111CDCF20E030E077
:1015A000A901C701B6010E945D18882379F0A7013F
:1015B0009601C701B6010E94DA199B01AC01C7016F
:1015C000B6010E945D18882309F4B5CF20E030E011
:1015D000A901C701B6010E945D1887FF08C06DE22E
:1015E000C1010E94DC04F7FAF094F7F8F09420E8C7
:1015F00036E948E15BE4C701B6010E94751A87FD30
:1016000081C074E1A72EB12C00E210E0188E1F8A71
:10161000F501E251FE4F2591359145915491C70155
:10162000B6010E94751A87FD13C0F501EA5FFD4FF0
:101630002591359145915491C701B6010E94C31877
:101640006B017C012F89388D200F311F388F2F8B34
:101650001595079534E0A31AB1088CEFA8168FEF03
:10166000B806B1F655245A9420E030E0A901C7012C
:10167000B6010E94751A18160CF04BC02CEA35EC16
:1016800047E257E3C701B6010E945D1818160CF433
:1016900040C0A52DB4E0AB02C0011124B12CA12C97
:1016A000FC01E057FE4F3F019C0122513E4F490192
:1016B0003FEF531671F1F301EA0DFB1D25913591B2
:1016C00045915491C701B6010E945D1887FF13C070
:1016D000F401EA0DFB1D2591359145915491C70107
:1016E000B6010E94C3186B017C018F89988D801B05
:1016F000910B988F8F8B159507955A9494E0A91AA2
:10170000B108D6CF00E210E055E0552E188E1F8AA2
:10171000ABCFC701B6010E94461A4B015C012B01F9
:101720003C0106E080E492E4AFE0B0E0898F9A8F5C
:10173000AB8FBC8F102F01509AE049165104610401
:101740007104C8F0698D7A8D8B8D9C8D2AE030E014
:1017500040E050E00E94AF19298F3A8F4B8F5C8F89
:10176000C301B2012AE030E040E050E00E94AF192E
:1017700029013A01DFCFC501B4010E9462189B0123
:10178000AC01C701B6010E94D9196B017C01698DBA
:101790007A8D8B8D9C8D0E9462189B01AC01C701D4
:1017A000B6010E94C3182B013C010E94461A6B012E
:1017B0007C010E9462189B01AC01C301B2010E942E
:1017C000D9199B01AC010E94DA190E94461AC60E73
:1017D000D71EE81EF91E898D9A8DAB8DBC8DC8165B
:1017E000D906EA06FB06D8F09FEF891A990AA90ADA
:1017F000B90AAF89B88DAB2B39F1BAE08B169104D9
:10180000A104B10408F1EF89F88D3196F88FEF8BC0
:10181000C12CD12C7601812C912C540183942AE087
:10182000422E512C612C712CC701B601A3019201EB
:101830000E94AF19672B682B692B51F4111644F4E1
:1018400069017A011150F0CFC12CD12C7601E7CF7C
:10185000B501A401C1010E940605112371F14E01D9
:10186000F1E18F0E911C012F54019AE0492E512C69
:10187000612C712C015068F0C701B601A3019201DF
:101880000E94AF19605DD4016E934D0169017A0128
:10189000F1CF812F90E0BC0160957095F501E81BB8
:1018A000F90B31978EE2808344275527461B570B4F
:1018B0006A0D7B1DC1010E94F104EF89F88DEF2BA9
:1018C00029F165E6C1010E94DC040F89188D17FF1C
:1018D00007C06DE2C1010E94DC0411950195110958
:1018E000FE0177969F018AE0E82EF12CC801B7012E
:1018F0000E949B19805D82938B01672BB9F7A90128
:101900004E1B5F0BBF01C1010E94F104D101129671
:101910008D919C91EECD6DE5C1010E94DC04F6CF66
:101920006BE7C1010E94DC04F801008111810115FF
:10193000110559F1D8011696CC9016971796DC90A0
:1019400062E2C1010E94DC047601F70161917F012E
:10195000662321F0C1010E94200AF7CF62E2C10193
:101960000E94DC046AE3C1010E94DC04B101C801E9
:101970000E94400AC8010E9474088C01892B29F03A
:101980006CE2C1010E94DC04D2CF6DE7C5CF62E2F8
:10199000C1010E94DC048601E00EF11EE016F10692
:1019A00039F0F80161918F01C1010E94200AF6CF40
:1019B00062E2B2CFCD90DD90ED90FC90B701A60130
:1019C000F7FE0BC06DE2C1010E94DC0444275527DD
:1019D000BA014C195D096E097F09C1010E94060513
:1019E00085CD4D915D916D917C91F7CF8C9160EBA0
:1019F00072E0811102C065EB72E0C1010E94160A1B
:101A000075CDCF93DF9300D01F92CDB7DEB77A8329
:101A100069831C821B82BE016F5F7F4F09960E9403
:101A2000400A0F900F900F900F90DF91CF91089583
:101A30000F931F93CF93DF93D0E0C0E06115710542
:101A400091F08B01FC01C081D181209761F06E8102
:101A50007F81C8010E948E1C892B29F0CE010E9433
:101A60007408EC01F2CFCE01DF91CF911F910F915D
:101A700008954F925F926F927F92BF92CF92DF92C2
:101A8000EF92FF920F931F93CF93DF93EC018B01A3
:101A9000E42E0E94C305F82E811110C0F12C8F2D69
:101AA000DF91CF911F910F91FF90EF90DF90CF903A
:101AB000BF907F906F905F904F900895CE010E94ED
:101AC0006A05873209F42BC10CF5823209F427C16B
:101AD000CE010E946A05B82E6E01FFE0CF0ED11C28
:101AE000E12C36018B2D0E945205882309F443C155
:101AF0002FE3E21609F43FC11C86E394F601B1928C
:101B00006F01CE010E946A05B82EECCF8B3509F427
:101B10004AC08B37E9F6F80184818078806284833B
:101B20001182108213821282EE2009F447C01C86B3
:101B3000CE010E94C305882309F4B0CF6DE7CE0122
:101B40000E94B205D82E8111AACFCC24C394EA9466
:101B5000E881F981828193819B838A838481958145
:101B600022813381821B930B9F838E831D821C8273
:101B7000892B09F4C086CE010E946A05873209F4D8
:101B80005DC0823209F45AC0CE010E946A05F82E67
:101B90000E945205811159C0C15BDF4F83E090E084
:101BA0009983888350C0F80184818078806484831D
:101BB0001182108213821282E11007C0C15BDF4FD5
:101BC00085E090E09983888369CF1C86CE010E94CE
:101BD000C305882309F462CF6DE5CE010E94B205EA
:101BE00081115DCFEA946D857E85C8010E94090848
:101BF000009729F4C15BDF4F84E090E0E3CF4E2DE6
:101C0000BC01CE010E94390D882309F447CFCE01D3
:101C10000E94C305882309F441CF6DE5CE010E94DF
:101C2000B20581113CCF6CE2CE010E94B205811158
:101C3000DACFC15BDF4F83E090E0C4CFCE010E94DA
:101C4000EC06811119C0FD2C2ACF1C866F2DCE0108
:101C50000E94D206CE010E946A05F82E0E9452050B
:101C60008111F3CFE881F9818085882329F0C15B58
:101C7000DF4F84E090E094CFCE010E94C30588231B
:101C800011F36AE3CE010E94B205882309F484CFE0
:101C9000EA81FB818C819D81E80FF91F10826C80A5
:101CA0007D806A817B81C8010E94180DBC01892B4F
:101CB000A1F4B301888199810E943E083C016D85A1
:101CC0007E85C8010E940908FC01892B81F284816C
:101CD0008068848377826682BF014E2DCE010E9488
:101CE000390D882309F4AFCFCE010E94C3058823A4
:101CF00009F4A9CF6DE7CE010E94B20581110DC094
:101D00006CE2CE010E94B205882309F445CFCE01D2
:101D10000E94C30581111CCF96CFD82E94CFE881A5
:101D2000F981828193819B838A8384819581228139
:101D30003381821B930B9F838E831D821C82892B90
:101D400011F481E08087CE010E94EC06F82E8823F2
:101D500009F4A4CECC80DD80B601888199810E94EF
:101D60003E08F801248120782560248391838083B4
:101D7000D382C28294CEFE01EE0DF11D17868F85AF
:101D8000843781F4F801848180788660848381E0DF
:101D90008083F4E0EF1609F482CEC15BDF4F82E06E
:101DA00090E010CF863641F4F80184818078866017
:101DB00084831082F5E0EECF8E3621F424E0E21227
:101DC000ECCF6DCE8B32D9F1F3018D32D1F5FE011E
:101DD0007096BF2C808190ED980F9A3018F08E325B
:101DE00009F027CF6F0160E070E0CB01F60121918F
:101DF000A0ED4A2E420E39E0341528F16A3949E93E
:101E00007407840749E1940740F5AAE0B0E09B011C
:101E1000AC010E948119512C712C612CA3019201FB
:101E20002095309540955095261737074807590754
:101E3000A0F0640D751D861D971D6F01D7CFFE01A3
:101E40007096B12CC7CF211108C0BB2071F1613051
:101E50007105810550E89507A0F0E12CEAE04E2ECF
:101E6000512C612C712C61157105F0E88F079105DB
:101E700030F1A30192010E94AF19CA01B901E394A4
:101E8000F2CFF801248120782A6024839B01AC01E1
:101E900088279927DC01821B930BA40BB50B808349
:101EA0009183A283B383FB2CFACDF801248120789F
:101EB000286024836083718382839383F0CDD6016D
:101EC000F60121916F0130ED320F3A3010F4E394B6
:101ED000F6CF2E32F1F4FD013196DF0131962C91CF
:101EE00050EDD52ED20E29E02D1598F06C3C3CEC2F
:101EF00073073CE08307910580F7AAE0B0E09B01FF
:101F0000AC010E9481196D0D711D811D911DEA9416
:101F1000E4CF2C912F7D253409F08CC011962C91A3
:101F200011972D32D9F512967F2CFD0130E020E07B
:101F3000CE2C0E2C000CDD084AE0542EDF016190FF
:101F400040ED460D4A3008F043C0529EA001539E1A
:101F5000500D1124262D660C330B20533109240F0C
:101F6000351FA601420F531F473251053CF3F801BC
:101F700084817720D1F040E050E060E070E8B1105B
:101F800003C040E050E0BA0180788C60F80184839F
:101F90004083518362837383F72C81CD2B3219F0F8
:101FA0001196712CC2CF1296FCCF40E050E060E851
:101FB0007FEFB11004C040E050E060E87FE7807838
:101FC0008C60F8018483408351836283738367CD7F
:101FD000772019F03195219531094C91411129CE85
:101FE000E901CE0DD11DE7FCDA950E9462181C169E
:101FF0001D061CF5E12CC0FF0CC024E0E29EF001A0
:102000001124E251FE4F25913591459154910E9442
:10201000C318D595C795E394209769F7B1109058E8
:10202000F801248120782C6024836083718382836B
:10203000938335CD30E020E0D0CFD195C195D10943
:10204000E12C209759F3C0FF0CC044E0E49EF0015E
:102050001124EA5FFD4F25913591459154910E94DD
:10206000C318D595C795E394ECCF0F931F93CF93E7
:10207000DF93EC018B010E94390DFE01E15BFF4F04
:1020800080819181892B79F48B85882361F0D80137
:1020900014968C9183FF07C083E090E0DF91CF918D
:1020A0001F910F91089580819181F8CFEF92FF9257
:1020B0000F931F93CF93DF93EC018C81982F9F7721
:1020C00039F4807880628C83198218821B821A828C
:1020D0008C8185FF16C06115710599F07A018B011D
:1020E000CE010E94180D0097A9F4B701CE010E94FD
:1020F0000908FC01892B41F470E060E0CE010E94E8
:10210000820880E090E006C084818F778483178303
:102110000683CF01DF91CF911F910F91FF90EF9038
:102120000895CF92DF92EF92FF920F931F93CF9378
:10213000DF93CDB7DEB7C250D2400FB6F894DEBF02
:102140000FBECDBF8B01CE0101960E94E9050E9412
:10215000EB026B017C01AE014F5F5F4F6BEB72E0F6
:10216000CE010A960E945610FC01892B41F0948101
:10217000907898609483C082D182E282F382AE012B
:102180004F5F5F4F60EC72E0CE010A960E945610DE
:10219000FC01892B61F0948190789A609483012EE0
:1021A000000C220B330B008311832283338361EDF8
:1021B00073E0CE0101960E94010D81ED93E00E9433
:1021C000850981E0CE5FDD4F0FB6F894DEBF0FBE0C
:1021D000CDBFDF91CF911F910F91FF90EF90DF90D6
:1021E000CF9008958F929F92AF92BF92CF92DF923D
:1021F000EF92FF920F931F93CF93DF93CDB7DEB78C
:10220000C051D2400FB6F894DEBF0FBECDBF7B01E8
:102210006A018E010F5F1F4FC8010E94E9050E94ED
:10222000EB024B015C01A8016BEB72E0CE010A9658
:102230000E945610FC01892B41F09481907898609F
:10224000948380829182A282B382B701CE01855F9E
:102250009D4F0E94F908CE018D5F9D4FFC010193B7
:1022600011937F01BE01655F7D4FCF010E94F90888
:10227000CE01855F9D4F0E94BD08CD5FDD4FA880D8
:10228000B980C350D240CB5FDD4F48815981C550E2
:10229000D240C75FDD4F68817981C950D240950136
:1022A000C50109960E94A009AC01B501C6010E94B2
:1022B0007606C7010E94BD0861ED73E0C8010E9467
:1022C000010D81ED93E00E9485090E94B50281E035
:1022D000C05FDD4F0FB6F894DEBF0FBECDBFDF91FC
:1022E000CF911F910F91FF90EF90DF90CF90BF9013
:1022F000AF909F908F9008958F929F92AF92BF92D0
:10230000EF92FF920F931F93CF93DF93CDB7DEB77A
:10231000C250D2400FB6F894DEBF0FBECDBF7C01D5
:102320008B01CE0101960E94E9050E94EB024B0150
:102330005C01AE014F5F5F4F6BEB72E0CE010A961E
:102340000E945610FC01892B41F09481907898608E
:10235000948380829182A282B382AE014F5F5F4FED
:1023600060EC72E0CE010A960E945610FC01892BA7
:1023700061F0948190789A609483012E000C220B76
:10238000330B008311832283338361ED73E0CE012D
:1023900001960E94010DC70106960E94850981E001
:1023A000CE5FDD4F0FB6F894DEBF0FBECDBFDF911D
:1023B000CF911F910F91FF90EF90BF90AF909F90A2
:1023C0008F9008954F925F926F927F92AF92BF92DB
:1023D000CF92DF92EF92FF920F931F93CF93DF93F1
:1023E000CDB7DEB7C051D2400FB6F894DEBF0FBEF6
:1023F000CDBF8C015B016A01CE0101967C010E9478
:10240000E9050E94EB022B013C01A7016BEB72E096
:10241000CE010A960E945610FC01892B41F094814E
:102420009078986094834082518262827382B50171
:10243000CE01855F9D4F0E94F908FE01ED5FFD4FC3
:10244000E192F1925F01BE01655F7D4FCF010E9475
:10245000F908CE01855F9D4F0E94BD08CD5FDD4F1D
:1024600068807980C350D240CB5FDD4F488159816D
:10247000C550D240C75FDD4F68817981C950D240D5
:102480009301C30109960E94A009AC01B301C601E2
:102490000E947606C5010E94BD080A5F1F4FB80161
:1024A000C7010E94010DC8010E9485090E94B50262
:1024B00081E0C05FDD4F0FB6F894DEBF0FBECDBF29
:1024C000DF91CF911F910F91FF90EF90DF90CF9010
:1024D000BF90AF907F906F905F904F900895FC01F8
:1024E000248125FD0C94180D90E080E00895EF9272
:1024F000FF920F931F93CF93DF93CDB7DEB7C356F1
:10250000D2400FB6F894DEBF0FBECDBF7C018E0166
:102510000F5F1F4FC8010E94E90589819A819C8342
:102520008B838F8198859E838D8319861E86C45ADE
:10253000DD4F19830883CC55D24088E0FE01E45A70
:10254000FD4FDE01AC5ABD4F01900D928A95E1F727
:1025500088E0FE01EC5AFD4FDE01AD5FBD4F0190FA
:102560000D928A95E1F7C55FDD4F1882CB50D240BE
:1025700081ED93E0C45FDD4F99838883CC50D240D6
:10258000C15FDD4F1882CF50D240C05FDD4F19834D
:102590000883C051D240CE5ADD4F19821882C255ED
:1025A000D2404AE0BE01665F7F4FCE018D5F9D4FF6
:1025B0000E9435108C01892B19F567EC72E0CE0171
:1025C0000A960E946F12892B61F167EC72E0CE01CE
:1025D0000A960E946F120E94DA0790E0F701918339
:1025E000808381E0CD59DD4F0FB6F894DEBF0FBE7A
:1025F000CDBFDF91CF911F910F91FF90EF90089584
:102600006BEC72E081ED93E00E947609000F111FE0
:10261000F801E65EFD4F6081718181ED93E00E94DB
:10262000890980E0DFCFCF93DF93EB0181ED93E069
:102630000E945503892B29F0CE01DF91CF910C9494
:10264000771280E0DF91CF910895CF92DF92EF92E1
:10265000FF920F931F93CF93DF93CDB7DEB7C3568F
:10266000D2400FB6F894DEBF0FBECDBF6B01069609
:102670007C010E94A004892B09F488C08E010F5FA1
:102680001F4FC8010E94E90589819A819C838B8331
:102690008F8198859E838D8319861E86C45ADD4F4F
:1026A00019830883CC55D24088E0FE01E45AFD4FDF
:1026B000DE01AC5ABD4F01900D928A95E1F788E09A
:1026C000FE01EC5AFD4FDE01AD5FBD4F01900D9252
:1026D0008A95E1F7C55FDD4F1882CB50D240C45FC9
:1026E000DD4FF982E882CC50D240C15FDD4F1882C5
:1026F000CF50D240C05FDD4F19830883C051D24014
:10270000CE5ADD4F19821882C255D2404AE0BE012E
:10271000665F7F4FCE018D5F9D4F0E9435108C010B
:10272000892B29F567EC72E0CE010A960E946F12A0
:10273000892B61F167EC72E0CE010A960E946F125C
:102740000E94DA0790E0F6019183808381E0CD5901
:10275000DD4F0FB6F894DEBF0FBECDBFDF91CF9136
:102760001F910F91FF90EF90DF90CF9008956BEC49
:1027700072E0C7010E947609000F111FF801E65EA2
:10278000FD4F60817181C7010E94890980E0DFCF20
:102790001F920F920FB60F9211242F933F938F9396
:1027A0009F93AF93BF938091C5039091C603A0916F
:1027B000C703B091C8033091C40323E0230F2D3722
:1027C00058F50196A11DB11D2093C4038093C50344
:1027D0009093C603A093C703B093C8038091C90325
:1027E0009091CA03A091CB03B091CC030196A11D97
:1027F000B11D8093C9039093CA03A093CB03B093F8
:10280000CC03BF91AF919F918F913F912F910F90EA
:102810000FBE0F901F90189526E8230F0296A11D5A
:10282000B11DD2CF1F920F920FB60F9211240BB68B
:102830000F922F933F934F935F936F937F938F9359
:102840009F93AF93BF93EF93FF9381ED93E00E942B
:102850006B03FF91EF91BF91AF919F918F917F910A
:102860006F915F914F913F912F910F900BBE0F9001
:102870000FBE0F901F9018951F920F920FB60F92D8
:1028800011240BB60F922F938F939F93EF93FF9387
:10289000E091E103F091E2038081E091E703F091A0
:1028A000E80382FD1DC090818091EA038F5F8F73E2
:1028B0002091EB03821741F0E091EA03F0E0EF5240
:1028C000FC4F958F8093EA03FF91EF919F918F9139
:1028D0002F910F900BBE0F900FBE0F901F90189569
:1028E0008081F2CF1F920F920FB60F9211240BB678
:1028F0000F922F933F934F935F936F937F938F9399
:102900009F93AF93BF93EF93FF93E091CF03F09129
:10291000D003309749F0A685B7858585968D91FFC0
:1029200016C09C918923B1F4FF91EF91BF91AF91B3
:102930009F918F917F916F915F914F913F912F91D7
:102940000F900BBE0F900FBE0F901F9018959C918B
:10295000892351F7A389B4899C918589809589231E
:102960008C93868997890197F1F7608D718DA68583
:10297000B785558538E020E0CB010197F1F7822F2C
:1029800090E095958795282F4C91452309F0206874
:10299000315091F7868D81FD20958091CE0390E096
:1029A00001968F7399273091CD03381799F0A09134
:1029B000CE03B0E0AC57BC4F2C938093CE03828DF6
:1029C000938D0197F1F7A389B4898C919589892B0F
:1029D0008C93AACF868D8160868FF1CF1F93CF9382
:1029E000DF93282F30E0F901E855FE4F8491F9017B
:1029F000EE54FD4FD491F901E459FD4FC491CC231D
:102A0000A9F0162F81110E94B101EC2FF0E0EE0F1A
:102A1000FF1FEE5AFD4FA591B4918FB7F894EC913A
:102A2000111108C0D095DE23DC938FBFDF91CF91C9
:102A30001F910895DE2BF8CFCF92DF92EF92FF9295
:102A40000F931F93CF93DF931092D4031092D3036D
:102A5000E8EECE2EE3E0DE2EE12CF12CC092D50381
:102A6000D092D603E092D703F092D80384E592E0A7
:102A70009093D2038093D10385EC90E09093DE0392
:102A80008093DD0384EC90E09093E0038093DF0378
:102A900080EC90E09093E2038093E10381EC90E07E
:102AA0009093E4038093E30382EC90E09093E60339
:102AB0008093E50386EC90E09093E8038093E7032E
:102AC0001092EA031092EB031092EC031092ED03C4
:102AD00080E1E6E0F2E0A5E9B4E001900D928A958C
:102AE000E1F78091160290911702A0911802B0911F
:102AF00019028093A5049093A604A093A704B09311
:102B0000A8040E9441020E94770286E892E0909316
:102B1000940480939304E091E103F091E20382E056
:102B20008083E091DD03F091DE031082E091DF030A
:102B3000F091E0038FEC80831092E903E091E503CC
:102B4000F091E60386E08083E091E303F091E403F3
:102B5000808180618083E091E303F091E4038081D0
:102B600088608083E091E303F091E40380818068D2
:102B70008083E091E303F091E40380818F7D808383
:102B800088E792E090936F0480936E048BE090E06E
:102B900090937104809370048AE090E090937304A2
:102BA000809372041092770410927604C092780495
:102BB000D0927904E0927A04F0927B0486E692E067
:102BC000909375048093740410928B0410928A047D
:102BD00010928D0410928C0410928F0410928E0427
:102BE0001092910410929004609192046E7F6D7F18
:102BF000609392046695617081E068278BE00E9483
:102C0000EE144DEB52E0FA01649187E792E0FC018B
:102C10002491222399F030E0220F331FF901E85C60
:102C2000FD4FA591B491F901EE5AFD4F25913491D4
:102C30002FB7F8943C91632B6C932FBFFA0144910A
:102C400040938404FC018491E82FF0E0EE0FFF1F15
:102C5000EE5AFD4F8591949190938604809385045C
:102C60000CEB12E0F8012491C6E7D2E0FE0184915A
:102C70008823C9F090E0880F991FFC01E85CFD4FA4
:102C8000A591B491FC01EE5AFD4F459154913FB787
:102C9000F8949C91822F809598239C93FA019081BF
:102CA000892380833FBF8091920481FD04C061E04D
:102CB0008AE00E94EE148AE080938004F801049177
:102CC00000938104FE01C491EC2FF0E0EE0FFF1F92
:102CD000E25EFD4F859194919093830480938204EA
:102CE0008DE991E090939104809390042DEB30E076
:102CF00030938B0420938A042BE931E030938D04C8
:102D000020938C042CE231E030938F0420938E04C6
:102D1000209168002160209368002BE630E030931A
:102D200088042093870420E1209389040197F1F718
:102D3000E091CF03F091D00384E0E437F80709F184
:102D4000309739F0A389B4899C918589809589232E
:102D50008C93809192048E7F809392041092CE0384
:102D60001092CD0384E794E09093D0038093CF0337
:102D7000E0918704F0918804808190918904892BE7
:102D80008083DF91CF911F910F91FF90EF90DF90A3
:102D9000CF900895CF93DF93CDB7DEB72C970FB6C2
:102DA000F894DEBF0FBECDBF789484B5826084BD39
:102DB00084B5816084BD85B5826085BD85B581603F
:102DC00085BD80916E00816080936E0010928100BD
:102DD0008091810082608093810080918100816078
:102DE0008093810080918000816080938000809139
:102DF000B10084608093B1008091B00081608093C5
:102E0000B000809191008260809391008091910048
:102E10008160809391008091900081608093900008
:102E20008091A10082608093A1008091A1008160C7
:102E30008093A1008091A00081608093A000809188
:102E40002101826080932101809121018160809322
:102E500021018091200181608093200180917A007E
:102E6000846080937A0080917A00826080937A00F7
:102E700080917A00816080937A0080917A008068E6
:102E800080937A001092C10080E190E00E947A1A4B
:102E90007C0100E412E01C016C0120E1C20ED11C97
:102EA0003C01F80180810E5F1F4F0E941802F30160
:102EB000819391933F01EC15FD0599F78AE090E02D
:102EC0000E947A1A8C0126E3C22E22E0D22E2C0117
:102ED0005C01FAE0AF0EB11CF6018081F2E0CF0E8A
:102EE000D11C0E945A02F201819391932F01EA159D
:102EF000FB0591F785E9882E84E0982E96E2C92E8D
:102F000092E0D92EF401819191914F01F10121912B
:102F100031911F018217930739F1F601A080B1802A
:102F200069ED72E0009729F0019709F0B6C062EEF2
:102F300072E0CE0107960E943709B501CE010196D5
:102F40000E943709AE01495F5F4FBE016F5F7F4F3F
:102F50008EE694E00E94E211CE0101960E94BD0827
:102F6000CE0107960E94BD08F2E0CF0ED11C62147C
:102F7000730441F62091A5043091A604F8018081E4
:102F80009181AC014C505E4F4217530714F5853FB9
:102F900091402CF169EE72E0CE0107960E9437094C
:102FA00060EF72E0CE0101960E943709AE01495FE1
:102FB0005F4FBE016F5F7F4F8EE694E00E94E2118B
:102FC000CE0101960E94BD08CE0107960E94BD0861
:102FD00017C0AC01445F514024173507C4F220915B
:102FE000A7043091A804F80182819381AC014C5070
:102FF0005E4F421753070CF048C0853F914054F68E
:10300000A9EAB4E0F80134962D913D918191919116
:10301000AC014C505E4F4217530734F0845F91402F
:10302000281739070CF040C069EE72E0CE01079610
:103030000E9437096EEF72E0CE0101960E943709B7
:10304000AE01495F5F4FBE016F5F7F4F8EE694E038
:103050000E94E211CE0101960E94BD08CE010796A2
:103060000E94BD08E114F10419F0C7010E94161B6B
:103070000115110519F0C8010E94161B0E94770264
:103080000E9441020E94FA03FFCEAC01445F51400E
:10309000241735070CF4B1CFB3CF18861F821A86D8
:1030A00019861C861B8649CF4E165F0609F0ACCFE9
:1030B000D9CF8EE694E00C94B4060E949F1808F4D1
:1030C00081E00895E89409C097FB3EF490958095BF
:1030D000709561957F4F8F4F9F4F9923A9F0F92FDE
:1030E00096E9BB279395F695879577956795B7955C
:1030F000F111F8CFFAF4BB0F11F460FF1BC06F5F42
:103100007F4F8F4F9F4F16C0882311F096E911C053
:10311000772321F09EE8872F762F05C0662371F074
:1031200096E8862F70E060E02AF09A95660F771F88
:10313000881FDAF7880F9695879597F90895990F64
:103140000008550FAA0BE0E8FEEF16161706E80771
:10315000F907C0F012161306E407F50798F0621B92
:10316000730B840B950B39F40A2661F0232B242B67
:10317000252B21F408950A2609F4A140A6958FEF86
:10318000811D811D08950E94D6180C9447190E9434
:10319000391938F00E94401920F0952311F00C9451
:1031A00030190C94361911240C947B190E9458196B
:1031B00070F3959FC1F3950F50E0551F629FF0018A
:1031C000729FBB27F00DB11D639FAA27F00DB11DA3
:1031D000AA1F649F6627B00DA11D661F829F22272C
:1031E000B00DA11D621F739FB00DA11D621F839FB3
:1031F000A00D611D221F749F3327A00D611D231F89
:10320000849F600D211D822F762F6A2F11249F57D6
:1032100050409AF0F1F088234AF0EE0FFF1FBB1FD9
:10322000661F771F881F91505040A9F79E3F510598
:1032300080F00C9430190C947B195F3FE4F3983EB6
:10324000D4F3869577956795B795F795E7959F5F42
:10325000C1F7FE2B880F911D9695879597F90895D4
:1032600097F99F6780E870E060E008959FEF80EC39
:10327000089500240A9416161706180609060895DC
:1032800000240A9412161306140605060895092E42
:103290000394000C11F4882352F0BB0F40F4BF2BB1
:1032A00011F460FF04C06F5F7F4F8F4F9F4F0895F1
:1032B00057FD9058440F551F59F05F3F71F04795E7
:1032C000880F97FB991F61F09F3F79F087950895CC
:1032D000121613061406551FF2CF4695F1DF08C0EB
:1032E000161617061806991FF1CF86957105610508
:1032F00008940895E894BB2766277727CB0197F9B0
:1033000008950E948C19A59F900DB49F900DA49FC5
:10331000800D911D11240895A29FB001B39FC0019B
:10332000A39F700D811D1124911DB29F700D811DF1
:103330001124911D0895AA1BBB1B51E107C0AA1FB0
:10334000BB1FA617B70710F0A61BB70B881F991F46
:103350005A95A9F780959095BC01CD010895A1E2F9
:103360001A2EAA1BBB1BFD010DC0AA1FBB1FEE1FFF
:10337000FF1FA217B307E407F50720F0A21BB30B4A
:10338000E40BF50B661F771F881F991F1A9469F7C6
:1033900060957095809590959B01AC01BD01CF0122
:1033A0000895EE0FFF1F881F8BBF0790F691E02D49
:1033B00019945058BB27AA270E94F1190C94471959
:1033C0000E94391938F00E94401920F039F49F3FCB
:1033D00019F426F40C9436190EF4E095E7FB0C94DE
:1033E0003019E92F0E94581958F3BA17620773076A
:1033F0008407950720F079F4A6F50C947A190EF459
:10340000E0950B2EBA2FA02D0B01B90190010C01F4
:10341000CA01A0011124FF27591B99F0593F50F40C
:10342000503E68F11A16F040A22F232F342F442764
:10343000585FF3CF469537952795A795F04053955C
:10344000C9F77EF41F16BA0B620B730B840BBAF02C
:103450009150A1F0FF0FBB1F661F771F881FC2F797
:103460000EC0BA0F621F731F841F48F487957795AB
:103470006795B795F7959E3F08F0B0CF9395880F65
:1034800008F09927EE0F9795879508950E94601987
:1034900088F09F5798F0B92F9927B751B0F0E1F015
:1034A000660F771F881F991F1AF0BA95C9F714C0C5
:1034B000B13091F00E947A19B1E008950C947A1914
:1034C000672F782F8827B85F39F0B93FCCF38695FE
:1034D00077956795B395D9F73EF49095809570955B
:1034E00061957F4F8F4F9F4F08950E949F1808F45A
:1034F0008FEF08950F931F93CF93DF938230910541
:1035000010F482E090E0E091AB04F091AC0430E084
:1035100020E0B0E0A0E0309799F42115310509F4DE
:103520004AC0281B390B24303105D8F58A819B818C
:103530006115710589F1FB0193838283FE0111C03E
:10354000408151810281138148175907E0F04817E3
:10355000590799F4109761F012960C9312971396ED
:103560001C933296CF01DF91CF911F910F91089557
:103570000093AB041093AC04F4CF2115310551F046
:103580004217530738F0A901DB019A01BD01DF01A1
:10359000F801C1CFEF01F9CF9093AC048093AB0455
:1035A000CDCFFE01E20FF31F819391932250310999
:1035B00039832883D7CF2091A9043091AA04232BE3
:1035C00041F420910202309103023093AA04209327
:1035D000A90420910002309101022115310541F426
:1035E0002DB73EB74091040250910502241B350BC4
:1035F000E091A904F091AA04E217F307A0F42E1BAE
:103600003F0B2817390778F0AC014E5F5F4F241746
:10361000350748F04E0F5F1F5093AA044093A9044A
:10362000819391939FCFF0E0E0E09CCFCF93DF9325
:103630000097E9F0FC01329713821282A091AB044B
:10364000B091AC04ED0130E020E01097A1F42081AE
:103650003181820F931F2091A9043091AA04281769
:10366000390709F061C0F093AA04E093A904DF913F
:10367000CF910895EA01CE17DF07E8F54A815B8113
:103680009E0141155105B1F7E901FB83EA83499198
:103690005991C40FD51FEC17FD0761F4808191810A
:1036A0000296840F951FE901998388838281938113
:1036B0009B838A83F0E0E0E012968D919C911397B2
:1036C0000097B9F52D913C911197CD010296820F8B
:1036D000931F2091A9043091AA042817390739F6BD
:1036E000309751F51092AC041092AB04B093AA0439
:1036F000A093A904BCCFD383C28340815181840F9E
:10370000951FC817D90761F44E5F5F4F8881998173
:10371000480F591F518340838A819B819383828301
:103720002115310509F0B0CFF093AC04E093AB0460
:103730009ECFFD01DC01C0CF13821282D7CF4F9202
:103740005F926F927F928F929F92AF92BF92CF9231
:10375000DF92EF92FF920F931F93CF93DF938C0131
:10376000009799F4CB01DF91CF911F910F91FF90BA
:10377000EF90DF90CF90BF90AF909F908F907F9011
:103780006F905F904F900C947A1AFC01E60FF71F30
:103790009C0122503109E217F30708F4AEC0D901A9
:1037A000CD91DC911197C617D70720F1C530D1050F
:1037B00078F0CE0104978617970750F0C61BD70BF9
:1037C0002297C193D1936D937C93CF010E94161BD6
:1037D000C801DF91CF911F910F91FF90EF90DF9083
:1037E000CF90BF90AF909F908F907F906F905F90A1
:1037F0004F9008955B01AC1ABD0A4C018C0E9D1EC2
:10380000A091AB04B091AC04512C412CF12CE12CD3
:10381000109731F58091A9049091AA048815990513
:1038200009F05CC04616570608F058C080910002A7
:1038300090910102009741F48DB79EB74091040228
:1038400050910502841B950BE817F90708F055C045
:10385000F093AA04E093A904F90171836083B8CFBF
:103860008D919C91119712966C90129713967C9063
:103870001397A815B90559F56C0142E0C40ED11C87
:10388000CA14DB0420F1AC014A195B09DA01129673
:10389000159780F06282738251834083D9016D93C2
:1038A0007C93E114F10471F0D7011396FC93EE932D
:1038B00012978ECF22968C0F9D1FF90191838083E2
:1038C000F301EFCFF093AC04E093AB0481CF481643
:1038D000590608F42C017D01D3019ACFCB010E9437
:1038E0007A1A7C01009749F0AE01B8010E94851C4C
:1038F000C8010E94161B87016BCF10E000E068CF63
:1039000081E090E0F8940C949E1CFB01DC0102C065
:1039100001900D9241505040D8F70895FB01DC0111
:103920008D91019080190110D9F3990B0895FB0135
:10393000DC0101900D920020E1F7089511E0CDE740
:10394000D1E000E006C0802FFE010E94D11921962F
:10395000011DCE37D10780E00807A9F7F894FFCF03
:103960000000AD0480000300030003000300030017
:103970000300030003000300030007030A03150309
:10398000250332033B0343034B0353035B036303EE
:103990006B0373037B0300000100030004000500B8
:1039A0000C000B000A0009000800070006000500D3
:1039B000000000008D03F7022403DA0355033303EC
:1039C0004703000000004404F702D7044304A004A6
:1039D000B6042B0400000000B406C508E2117C11F7
:1039E000251300000000DA04BB08F2109110131335
:1039F0002F2F22225C5C6208660C6E0A720D74091D
:103A0000000D0A005C7530303030006E756C6C0053
:103A1000747275650066616C73650074696D65002C
:103A2000616E616C6F67006C6564004572726575EC
:103A300072204A534F4E3A200052656C61636865AC
:103A4000720041707075796500457272657572001B
:103A5000416363656C65726F6D65747265004A6F72
:103A600079737469636B004F6B00456D70747949AD
:103A70006E70757400496E636F6D706C6574654926
:103A80006E70757400496E76616C6964496E70750C
:103A900074004E6F4D656D6F727900546F6F4465A1
:103AA000657000426F75746F6E3100426F75746F90
:103AB0006E3200426F75746F6E3300426F75746FB3
:103AC0006E3400426F75746F6E3500426F75746F9F
:103AD0006E3600426F75746F6E3700426F75746F8B
:043AE0006E3800003C
:00000001FF
