:100000000C94A9000C94DA000C94DA000C94DA0039
:100010000C94DA000C94DA000C94DA000C94DA00F8
:100020000C94DA000C94DA000C94DA000C94DA00E8
:100030000C94DA000C94DA000C94DA000C94DA00D8
:100040000C94DA000C94DA000C94DA000C94DA00C8
:100050000C94DA000C94DA000C94DA000C94F90891
:100060000C94DA000C946D090C9443090C94DA009A
:100070000C94DA000C94DA000C94DA000C94DA0098
:100080000C94DA000C94DA000C94DA000C94DA0088
:100090000C94DA000C94DA000C94DA000C94DA0078
:1000A0000C94DA000C94DA000C94DA000C94DA0068
:1000B0000C94DA000C94DA000C94DA000C94DA0058
:1000C0000C94DA000C94DA000C94DA000C94DA0048
:1000D0000C94DA000C94DA000C94DA000C94DA0038
:1000E0000C94DA000C94BA010C9498010C948901D8
:1000F0000C94A3090C943F020C94AC010C940401E1
:100100000C945C010C94F201CDCCCC3D0AD7233C7D
:1001100017B7D13877CC2B329595E6241FB14F0A0B
:100120000000803FCDCCCC3D6F12833A95BFD633D3
:100130007D1D9026B3CE010C000020410000C84276
:1001400000401C4620BCBE4CCA1B0E5AAEC59D7456
:10015000A30911241FBECFEFD1E2DEBFCDBF00E067
:100160000CBF23E0ACE7B2E001C01D92A632B2079B
:10017000E1F712E0A0E0B2E0E0E9FDE100E00BBF52
:1001800002C007900D92AC37B107D9F710E0C9EA69
:10019000D0E000E006C021970109802FFE010E94F7
:1001A000FE0BC83AD10780E00807A9F70E94D109E1
:1001B0000C94C60E0C940000E5E8F2E0A089B18929
:1001C00082E08C93A485B5851C92A685B78580E1D5
:1001D0008C93108EA489B58986E08C93A289B3890B
:1001E0008C9180618C93A289B3898C9188608C9367
:1001F000A289B3898C9180688C930288F389E02D61
:1002000080818F7D8083089508953FB7F894809111
:100210007D0290917E02A0917F02B091800226B56E
:10022000A89B05C02F3F19F00196A11DB11D3FBF2E
:10023000BA2FA92F982F8827BC01CD01620F711DFD
:10024000811D911D42E0660F771F881F991F4A95F7
:10025000D1F708958F929F92AF92BF92CF92DF9283
:10026000EF92FF924B015C010E9405016B017C0142
:100270000E9405016C197D098E099F09683E734033
:1002800081059105A8F321E0821A9108A108B1081F
:1002900088EEC80E83E0D81EE11CF11C8114910485
:1002A000A104B10429F7FF90EF90DF90CF90BF90A9
:1002B000AF909F908F900895AF92BF92CF92DF92B0
:1002C000EF92FF920F931F93CF93DF936C017B010B
:1002D0008B01040F151FEB015E01AE18BF08C0179C
:1002E000D10759F06991D601ED91FC910190F0810F
:1002F000E02DC6011995892B79F7C501DF91CF91C2
:100300001F910F91FF90EF90DF90CF90BF90AF9033
:100310000895FC01538D448D252F30E0842F90E00B
:10032000821B930B541710F0CF96089501970895F0
:10033000FC01918D828D981761F0A28DAE0FBF2FB9
:10034000B11D5D968C91928D9F5F9F73928F90E00F
:1003500008958FEF9FEF0895FC01918D828D98177E
:1003600031F0828DE80FF11D858D90E008958FEFBB
:100370009FEF0895FC01918D228D892F90E0805C84
:100380009F4F821B91098F739927089585E892E00A
:100390000E94BA0121E0892B09F420E0822F089500
:1003A000FC01A48DA80FB92FB11DA35ABF4F2C91EA
:1003B000848D90E001968F739927848FA689B789E1
:1003C0002C93A089B1898C91837080648C93938DD8
:1003D000848D981306C00288F389E02D80818F7D7B
:1003E00080830895EF92FF920F931F93CF93DF9333
:1003F000EC0181E0888F9B8D8C8D98131AC0E88961
:10040000F989808185FF15C09FB7F894EE89FF892F
:100410006083E889F98980818370806480839FBFCD
:1004200081E090E0DF91CF911F910F91FF90EF90CD
:100430000895F62E0B8D10E00F5F1F4F0F731127DD
:10044000E02E8C8D8E110CC00FB607FCFACFE88918
:10045000F989808185FFF5CFCE010E94D001F1CFCF
:10046000EB8DEC0FFD2FF11DE35AFF4FF0829FB78C
:10047000F8940B8FEA89FB8980818062CFCFCF937C
:10048000DF93EC01888D8823B9F0AA89BB89E889BC
:10049000F9898C9185FD03C0808186FD0DC00FB662
:1004A00007FCF7CF8C9185FFF2CF808185FFEDCFE0
:1004B000CE010E94D001E9CFDF91CF91089580E075
:1004C00090E0892B29F00E94C60181110E94000052
:1004D00080E090E0892B49F080E090E0892B29F0C2
:1004E0000E94000081110E94000080E090E0892BB2
:1004F00049F080E090E0892B29F00E9400008111F2
:100500000E94000080E090E0892B49F080E090E0BC
:10051000892B29F00E94000081110C94000008959D
:10052000CF93DF93EC0188819981DC01ED91FC91FF
:100530000190F081E02D19952A813B81820F931F54
:100540009B838A83DF91CF910895CF93DF93EC0152
:1005500088819981DC01ED91FC910280F381E02D8D
:1005600019952A813B81820F931F9B838A83DF9198
:10057000CF9108958F929F92AF92BF92CF92DF92C8
:10058000EF92FF920F931F93CF93DF93CDB7DEB718
:1005900066970FB6F894DEBF0FBECDBF6C018E011B
:1005A000095E1F4F78018AE0882E912CA12CB12C76
:1005B000CB01BA01A50194010E94DC0B942F852F79
:1005C000605DF80162938F01A901692F782F4115B1
:1005D00051056105710561F7A7014E1B5F0BBF0156
:1005E000C6010E94A50266960FB6F894DEBF0FBE44
:1005F000CDBFDF91CF911F910F91FF90EF90DF90D2
:10060000CF90BF90AF909F908F9008958F929F92C0
:10061000AF92BF92CF92DF92EF92FF920F931F9310
:10062000CF93DF93DC01CA014B01009781F4F0E026
:10063000E0E0CF01DF91CF911F910F91FF90EF90FC
:10064000DF90CF90BF90AF909F908F900895ED91E5
:10065000FC91119712962D913C9113977B01E40E1A
:10066000F51EEF01C80DD91DC217D307B0F4C8811C
:10067000C1110DC06C018F01EC14FD0461F0E601A5
:10068000A9906E01E801B9908E01AB14A9F3C19154
:10069000C111FDCFE6CF309761F6CB010196820FF5
:1006A000931F1496ED91FC911597E817F90720F424
:1006B00081E018968C93BBCF13969C938E931297E0
:1006C0002115310509F4B3CFFA01D901EB01C40FAB
:1006D000D51FEC17FD0719F081918D93FACFF90121
:1006E000E60FF71F1082F901A4CFCF93DF93DC014F
:1006F000EB01EC81FD818A819B810896E817F9075F
:1007000040F481E08887F0E0E0E0CF01DF91CF9115
:1007100008953897FD83EC833097B9F31296CD9105
:10072000DC911397209791F0CF018C1B9D0B23E058
:10073000959587952A95E1F78D831396FC93EE9313
:1007400012971582148217821682DFCF1196FC93BE
:10075000EE93F3CFFC012581222339F0F8E02F023C
:1007600090011124820F931F089590E080E0089576
:10077000EF92FF920F931F93CF93DF936115710553
:1007800019F17B018C01FC01C081D181209731F0EE
:10079000CE010E94AA03E816F906E9F4C7010E94F7
:1007A000AA032097D1F020E0009741F09C012C1B78
:1007B0003D0B43E0359527954A95E1F72D83892B2D
:1007C00019F4F801D383C283DF91CF911F910F9168
:1007D000FF90EF900895EC01D9CFF80191838083C9
:1007E000EECFFB0101900020E9F73197AF01461BE6
:1007F000570B0C94A5021F93CF93DF93E8E1F2E02F
:100800001281112379F0329621816213F9CFEC0124
:100810006CE50E949002612FCE01DF91CF911F9174
:100820000C9490026111F9CF69E272E0DF91CF91EF
:100830001F910C94F1032F923F924F925F926F920F
:100840007F928F929F92AF92BF92CF92DF92EF9260
:10085000FF920F931F93CF93DF93CDB7DEB76C97C3
:100860000FB6F894DEBF0FBECDBF8C011B01DC01BB
:1008700014968C9114978F77863009F492C268F59C
:100880008230A0F11296ED90FC901397CC901196C7
:10089000DC90843008F056C2A701B601C1010E9465
:1008A000A502F101828193816C960FB6F894DEBFA8
:1008B0000FBECDBFDF91CF911F910F91FF90EF90B1
:1008C000DF90CF90BF90AF909F908F907F906F9070
:1008D0005F904F903F902F9008958C3069F160F4B5
:1008E000883009F459C28A3009F43FC260E372E0EB
:1008F000C1010E94F103E5C1803209F4ECC18034EA
:10090000A9F76BE5C1010E949002F80100811181F5
:100910000115110509F4DAC1B101C8010E941B04D7
:10092000C8010E94AA038C01892B09F4CFC16CE293
:10093000C1010E949002ECCFF801C080D180E2801A
:10094000F380A7019601C701B6010E94A40A811194
:10095000CDCF20E030E0A901C701B6010E94A40A72
:10096000882379F0A7019601C701B6010E94070C00
:100970009B01AC01C701B6010E94A40A882309F4B7
:10098000B5CF20E030E0A901C701B6010E94A40A5A
:1009900087FF08C06DE2C1010E949002F7FAF0944F
:1009A000F7F8F09420E836E948E15BE4C701B601C6
:1009B0000E94A20C87FD81C074E1A72EB12C00E239
:1009C00010E0188E1F8AF501E85CFE4F25913591E5
:1009D00045915491C701B6010E94A20C87FD13C036
:1009E000F501E85FFE4F2591359145915491C7017E
:1009F000B6010E940A0B6B017C012F89388D200FF4
:100A0000311F388F2F8B1595079534E0A31AB10845
:100A10008CEFA8168FEFB806B1F655245A9420E053
:100A200030E0A901C701B6010E94A20C18160CF013
:100A30004BC02CEA35EC47E257E3C701B6010E94F0
:100A4000A40A18160CF440C0A52DB4E0AB02C001F6
:100A50001124B12CA12CFC01E05EFE4F3F019C0152
:100A6000285C3E4F49013FEF531671F1F301EA0D47
:100A7000FB1D2591359145915491C701B6010E9406
:100A8000A40A87FF13C0F401EA0DFB1D25913591DF
:100A900045915491C701B6010E940A0B6B017C017C
:100AA0008F89988D801B910B988F8F8B159507954B
:100AB0005A9494E0A91AB108D6CF00E210E055E0AC
:100AC000552E188E1F8AABCFC701B6010E94730C3A
:100AD0004B015C012B013C0106E080E492E4AFE0B5
:100AE000B0E0898F9A8FAB8FBC8F102F01509AE0A6
:100AF0004916510461047104C8F0698D7A8D8B8D9B
:100B00009C8D2AE030E040E050E00E94DC0B298F11
:100B10003A8F4B8F5C8FC301B2012AE030E040E096
:100B200050E00E94DC0B29013A01DFCFC501B4017E
:100B30000E94A90A9B01AC01C701B6010E94060CE4
:100B40006B017C01698D7A8D8B8D9C8D0E94A90A29
:100B50009B01AC01C701B6010E940A0B2B013C01AD
:100B60000E94730C6B017C010E94A90A9B01AC01DD
:100B7000C301B2010E94060C9B01AC010E94070C4C
:100B80000E94730CC60ED71EE81EF91E898D9A8D21
:100B9000AB8DBC8DC816D906EA06FB06D8F09FEFD0
:100BA000891A990AA90AB90AAF89B88DAB2B39F10C
:100BB000BAE08B169104A104B10408F1EF89F88D15
:100BC0003196F88FEF8BC12CD12C7601812C912C92
:100BD000540183942AE0422E512C612C712CC701C0
:100BE000B601A30192010E94DC0B672B682B692BD5
:100BF00051F4111644F469017A011150F0CFC12C5F
:100C0000D12C7601E7CFB501A401C1010E94BA023F
:100C1000112371F14E01F1E18F0E911C012F54014E
:100C20009AE0492E512C612C712C015068F0C701BB
:100C3000B601A30192010E94DC0B605DD4016E93AA
:100C40004D0169017A01F1CF812F90E0BC016095DF
:100C50007095F501E81BF90B31978EE280834427EC
:100C60005527461B570B6A0D7B1DC1010E94A5022B
:100C7000EF89F88DEF2B29F165E6C1010E94900202
:100C80000F89188D17FF07C06DE2C1010E94900205
:100C9000119501951109FE0177969F018AE0E82ED2
:100CA000F12CC801B7010E94C80B805D82938B01B3
:100CB000672BB9F7A9014E1B5F0BBF01C1010E9451
:100CC000A502D10112968D919C91EECD6DE5C101E9
:100CD0000E949002F6CF6BE7C1010E949002F801DA
:100CE000008111810115110559F1D8011696CC909A
:100CF00016971796DC9062E2C1010E94900276017D
:100D0000F70161917F01662321F0C1010E94FB037D
:100D1000F7CF62E2C1010E9490026AE3C1010E9422
:100D20009002B101C8010E941B04C8010E94AA03DD
:100D30008C01892B29F06CE2C1010E949002D2CF74
:100D40006DE7C5CF62E2C1010E9490028601E00E0C
:100D5000F11EE016F10639F0F80161918F01C10131
:100D60000E94FB03F6CF62E2B2CFCD90DD90ED9012
:100D7000FC90B701A601F7FE0BC06DE2C1010E9415
:100D8000900244275527BA014C195D096E097F0965
:100D9000C1010E94BA0285CD4D915D916D917C910A
:100DA000F7CF8C9165E372E0811102C06AE372E0D3
:100DB000C1010E94F10375CDFC01808191810097F2
:100DC00011F00C94430D08950F931F93CF93DF936D
:100DD000EC0188819981009759F02A813B8126177F
:100DE000370730F081E0DF91CF911F910F91089587
:100DF0008B016F5F7F4F0E94CC0D009759F0998354
:100E000088831B830A832C813D81232B59F7FC01A6
:100E10001082E8CF80E0E7CFEF92FF920F931F930D
:100E2000CF93DF93EC017B01FB0101900020E9F7F8
:100E300031978F01061B170BB8010E94E406288129
:100E40003981811113C02115310519F0C9010E94A2
:100E5000430D198218821D821C821B821A82DF9127
:100E6000CF911F910F91FF90EF9008951D830C83F8
:100E7000B701C901DF91CF911F910F91FF90EF90C2
:100E80000C94BF0EEF92FF920F931F93CF93DF93BB
:100E9000EC01198218821B821A821D821C8286171D
:100EA0009707D9F0FB010081118101151105A9F007
:100EB000E480F580B7010E94E40628813981811120
:100EC00013C02115310519F0C9010E94430D198283
:100ED00018821D821C821B821A82DF91CF911F9182
:100EE0000F91FF90EF900895FD82EC82B801C90147
:100EF000DF91CF911F910F91FF90EF900C94BF0E57
:100F00006F927F928F929F92AF92BF92CF92DF9219
:100F1000EF92FF920F931F93CF93DF93CDB7DEB77E
:100F2000C051D2400FB6F894DEBF0FBECDBF7C01DA
:100F30003B01CE010F969A8389839C838B8383E048
:100F400092E08C0F9D1F9E838D8398878F831986D7
:100F50001E868FB7F8948090810290908202A090B4
:100F60008302B09084028FBF8E85982F9F7739F4CB
:100F7000807880628E871B861A861D861C868E85E9
:100F800085FFC9C00A851B850115110509F4B2C08A
:100F9000D80116966D917C9180E492E00E94B60E85
:100FA000892B09F4A5C0C8010E94AA038C01ECCFCB
:100FB00084818F77848380E492E097838683848121
:100FC00080788860848380829182A282B382A3C069
:100FD0008C01D3018D919C91009709F068C0D801D4
:100FE00014968C911497807814968C9310C04701B6
:100FF000B9E08B0E911CB701C4010E9475038C01EE
:10100000892B09F044C0B801C4010E94B80383E0F1
:1010100092E08C0F9D1F02960E94DC0685E892E00C
:10102000CD5FDD4F99838883C350D240CB5FDD4FC6
:1010300019821882C550D240BE016D5F7D4FCE012E
:101040000A960E941B0442E050E065E472E085E8E5
:1010500092E00E945C0168EE73E080E090E00E9404
:101060002A01C05FDD4F0FB6F894DEBF0FBECDBFC3
:10107000DF91CF911F910F91FF90EF90DF90CF9074
:10108000BF90AF909F908F907F906F900895A60132
:10109000B501C7010E9406039C01892B09F4B3CF57
:1010A000F8019481906894833783268392CFF3016B
:1010B000C480D580AC01B601C7010E9406039C0123
:1010C00050E040E0892B11F044E051E0D801149643
:1010D0009C9114979078452B19F414969C9397CF74
:1010E0009560F801948331832083D382C2828FCFAD
:1010F000F80165CFBE016F5F7F4FCE010A960E9457
:101100007503FC01892B09F053CF70E060E0CE013C
:101110000A960E94B803B701CE01855F9D4F0E94D9
:101120004207CE018D5F9D4F9E012F5F3F4FFC0117
:1011300021933193CF01BE01655F7D4F0E9442072D
:10114000CE01855F9D4F0E94DC06CD5FDD4FE880BC
:10115000F980C350D240C75FDD4FA880B980C95025
:10116000D240CB5FDD4FC880D980C550D240D70177
:101170001D968C911D97982F9F7769F480788062D7
:101180001D968C931D971A961C921E9219971C9669
:101190001C921E921B97F701858585FF38CFC114DD
:1011A000D10409F434CF8185928545018C0C9D1CB6
:1011B000009709F41CCFDC011696ED91FC91B0E08C
:1011C000A0E0309739F0DF010D900020E9F711978A
:1011D000AE1BBF0BAA16BB0649F4D601A815B9056C
:1011E00009F4F6CE3D9121913217C1F30E94AA0372
:1011F000DFCF1F920F920FB60F9211242F933F93C0
:101200008F939F93AF93BF938091810290918202BD
:10121000A0918302B091840230917C0223E0230FDD
:101220002D3758F50196A11DB11D20937C028093A6
:10123000810290938202A0938302B09384028091F2
:101240007D0290917E02A0917F02B0918002019672
:10125000A11DB11D80937D0290937E02A0937F0219
:10126000B0938002BF91AF919F918F913F912F9149
:101270000F900FBE0F901F90189526E8230F02962F
:10128000A11DB11DD2CF1F920F920FB60F92112444
:101290000BB60F922F933F934F935F936F937F9370
:1012A0008F939F93AF93BF93EF93FF9385E892E063
:1012B0000E94D001FF91EF91BF91AF919F918F91CB
:1012C0007F916F915F914F913F912F910F900BBE46
:1012D0000F900FBE0F901F9018951F920F920FB690
:1012E0000F9211240BB60F922F938F939F93EF932E
:1012F000FF93E0919502F09196028081E0919B022C
:10130000F0919C0282FD1DC0908180919E028F5FB2
:101310008F7320919F02821741F0E0919E02F0E0CE
:10132000EB57FD4F958F80939E02FF91EF919F9118
:101330008F912F910F900BBE0F900FBE0F901F90AB
:1013400018958081F2CFE5E8F2E01382128288EEF0
:1013500093E0A0E0B0E084839583A683B7838AE01E
:1013600092E09183808385EC90E09587848784EC7C
:1013700090E09787868780EC90E0918B808B81EC62
:1013800090E0938B828B82EC90E0958B848B86EC43
:1013900090E0978B868B118E128E138E148E0C9488
:1013A000DC00CF93DF93CDB7DEB72C970FB6F89460
:1013B000DEBF0FBECDBF789484B5826084BD84B596
:1013C000816084BD85B5826085BD85B5816085BD40
:1013D00080916E00816080936E00109281008091F8
:1013E0008100826080938100809181008160809380
:1013F0008100809180008160809380008091B100A5
:1014000084608093B1008091B00081608093B000CF
:101410008091910082608093910080919100816021
:1014200080939100809190008160809390008091E2
:10143000A10082608093A1008091A10081608093CF
:10144000A1008091A00081608093A0008091210183
:10145000826080932101809121018160809321012C
:101460008091200181608093200180917A008460C6
:1014700080937A0080917A00826080937A008091D4
:101480007A00816080937A0080917A0080688093EE
:101490007A001092C1000E94DC0060ED77E080E0ED
:1014A00090E00E942A011A8219821C821B821E82ED
:1014B0001D8268E472E0CE0101960E940C07188636
:1014C0001F821A8619861C861B8662E672E0CE0190
:1014D00007960E940C07BE016F5F7F4FCE010796F3
:1014E0000E948007CE0107960E94DC06CE0101967D
:1014F0000E94DC061A8219821C821B821E821D82B7
:101500006AE672E0CE0101960E940C0718861F82DF
:101510001A8619861C861B8663E772E0CE01079641
:101520000E940C07BE016F5F7F4FCE0107960E949D
:101530008007CE0107960E94DC06CE0101960E942C
:10154000DC060E945F02AFCF0E94E60A08F481E049
:101550000895E89409C097FB3EF4909580957095A6
:1015600061957F4F8F4F9F4F9923A9F0F92F96E9EF
:10157000BB279395F695879577956795B795F11164
:10158000F8CFFAF4BB0F11F460FF1BC06F5F7F4F01
:101590008F4F9F4F16C0882311F096E911C0772313
:1015A00021F09EE8872F762F05C0662371F096E81C
:1015B000862F70E060E02AF09A95660F771F881FEB
:1015C000DAF7880F9695879597F90895990F00088F
:1015D000550FAA0BE0E8FEEF16161706E807F90705
:1015E000C0F012161306E407F50798F0621B730BA0
:1015F000840B950B39F40A2661F0232B242B252B21
:1016000021F408950A2609F4A140A6958FEF811DC3
:10161000811D08950E941D0B0C948E0B0E94800B5F
:1016200038F00E94870B20F0952311F00C94770B73
:101630000C947D0B11240C94C20B0E949F0B70F331
:10164000959FC1F3950F50E0551F629FF001729F67
:10165000BB27F00DB11D639FAA27F00DB11DAA1F76
:10166000649F6627B00DA11D661F829F2227B00DC3
:10167000A11D621F739FB00DA11D621F839FA00D4E
:10168000611D221F749F3327A00D611D231F849F9E
:10169000600D211D822F762F6A2F11249F575040F5
:1016A0009AF0F1F088234AF0EE0FFF1FBB1F661F70
:1016B000771F881F91505040A9F79E3F510580F039
:1016C0000C94770B0C94C20B5F3FE4F3983ED4F379
:1016D000869577956795B795F795E7959F5FC1F7DD
:1016E000FE2B880F911D9695879597F9089597F988
:1016F0009F6780E870E060E008959FEF80EC0895B8
:1017000000240A94161617061806090608950024E0
:101710000A9412161306140605060895092E03945A
:10172000000C11F4882352F0BB0F40F4BF2B11F4CE
:1017300060FF04C06F5F7F4F8F4F9F4F089557FD2D
:101740009058440F551F59F05F3F71F04795880F2F
:1017500097FB991F61F09F3F79F0879508951216C6
:1017600013061406551FF2CF4695F1DF08C0161672
:1017700017061806991FF1CF869571056105089423
:101780000895E894BB2766277727CB0197F908953A
:10179000AA1BBB1B51E107C0AA1FBB1FA617B70797
:1017A00010F0A61BB70B881F991F5A95A9F78095B3
:1017B0009095BC01CD010895A1E21A2EAA1BBB1B76
:1017C000FD010DC0AA1FBB1FEE1FFF1FA217B3070D
:1017D000E407F50720F0A21BB30BE40BF50B661F23
:1017E000771F881F991F1A9469F7609570958095E7
:1017F00090959B01AC01BD01CF010895EE0FFF1F35
:10180000881F8BBF0790F691E02D19945058BB2785
:10181000AA270E941E0C0C948E0B0E94800B38F09D
:101820000E94870B20F039F49F3F19F426F40C94A2
:101830007D0B0EF4E095E7FB0C94770BE92F0E94EB
:101840009F0B58F3BA17620773078407950720F0B8
:1018500079F4A6F50C94C10B0EF4E0950B2EBA2F7B
:10186000A02D0B01B90190010C01CA01A0011124A6
:10187000FF27591B99F0593F50F4503E68F11A1652
:10188000F040A22F232F342F4427585FF3CF4695E3
:1018900037952795A795F0405395C9F77EF41F1605
:1018A000BA0B620B730B840BBAF09150A1F0FF0FCF
:1018B000BB1F661F771F881FC2F70EC0BA0F621FBB
:1018C000731F841F48F4879577956795B795F795AB
:1018D0009E3F08F0B0CF9395880F08F09927EE0F40
:1018E0009795879508950E94A70B88F09F5798F0C9
:1018F000B92F9927B751B0F0E1F0660F771F881F15
:10190000991F1AF0BA95C9F714C0B13091F00E942E
:10191000C10BB1E008950C94C10B672F782F882775
:10192000B85F39F0B93FCCF3869577956795B39555
:10193000D9F73EF490958095709561957F4F8F4FC4
:101940009F4F08950E94E60A08F48FEF08950F93C1
:101950001F93CF93DF938230910510F482E090E0E3
:10196000E0912403F091250330E020E0B0E0A0E016
:10197000309799F42115310509F44AC0281B390B19
:1019800024303105D8F58A819B816115710589F173
:10199000FB0193838283FE0111C04081518102814A
:1019A000138148175907E0F04817590799F4109721
:1019B00061F012960C93129713961C933296CF01F6
:1019C000DF91CF911F910F910895009324031093FD
:1019D0002503F4CF2115310551F04217530738F094
:1019E000A901DB019A01BD01DF01F801C1CFEF01BF
:1019F000F9CF9093250380932403CDCFFE01E20F0E
:101A0000F31F819391932250310939832883D7CFD3
:101A10002091220330912303232B41F420910202D1
:101A2000309103023093230320932203209100027C
:101A3000309101022115310541F42DB73EB7409197
:101A4000040250910502241B350BE0912203F09112
:101A50002303E217F307A0F42E1B3F0B28173907C7
:101A600078F0AC014E5F5F4F2417350748F04E0FFA
:101A70005F1F5093230340932203819391939FCF41
:101A8000F0E0E0E09CCFCF93DF930097E9F0FC011A
:101A9000329713821282A0912403B0912503ED01A5
:101AA00030E020E01097A1F420813181820F931F54
:101AB00020912203309123032817390709F061C0D0
:101AC000F0932303E0932203DF91CF910895EA017D
:101AD000CE17DF07E8F54A815B819E01411551056C
:101AE000B1F7E901FB83EA8349915991C40FD51FEE
:101AF000EC17FD0761F4808191810296840F951F98
:101B0000E90199838883828193819B838A83F0E0B2
:101B1000E0E012968D919C9113970097B9F52D9165
:101B20003C911197CD010296820F931F20912203C1
:101B3000309123032817390739F6309751F5109261
:101B4000250310922403B0932303A0932203BCCF58
:101B5000D383C28340815181840F951FC817D90751
:101B600061F44E5F5F4F88819981480F591F5183FF
:101B700040838A819B81938382832115310509F0FB
:101B8000B0CFF0932503E09324039ECFFD01DC0149
:101B9000C0CF13821282D7CF4F925F926F927F9203
:101BA0008F929F92AF92BF92CF92DF92EF92FF926D
:101BB0000F931F93CF93DF938C01009799F4CB0180
:101BC000DF91CF911F910F91FF90EF90DF90CF9019
:101BD000BF90AF909F908F907F906F905F904F904D
:101BE0000C94A70CFC01E60FF71F9C012250310951
:101BF000E217F30708F4AEC0D901CD91DC9111973B
:101C0000C617D70720F1C530D10578F0CE0104976B
:101C10008617970750F0C61BD70B2297C193D19315
:101C20006D937C93CF010E94430DC801DF91CF914A
:101C30001F910F91FF90EF90DF90CF90BF90AF90EA
:101C40009F908F907F906F905F904F9008955B0171
:101C5000AC1ABD0A4C018C0E9D1EA0912403B091BC
:101C60002503512C412CF12CE12C109731F580915A
:101C70002203909123038815990509F05CC046164C
:101C8000570608F058C08091000290910102009719
:101C900041F48DB79EB74091040250910502841B18
:101CA000950BE817F90708F055C0F0932303E0936C
:101CB0002203F90171836083B8CF8D919C911197B4
:101CC00012966C90129713967C901397A815B905ED
:101CD00059F56C0142E0C40ED11CCA14DB0420F19A
:101CE000AC014A195B09DA011296159780F06282FD
:101CF000738251834083D9016D937C93E114F10485
:101D000071F0D7011396FC93EE9312978ECF229623
:101D10008C0F9D1FF90191838083F301EFCFF09326
:101D20002503E093240381CF4816590608F42C01BB
:101D30007D01D3019ACFCB010E94A70C7C010097B3
:101D400049F0AE01B8010E94AD0EC8010E94430DDA
:101D500087016BCF10E000E068CFFB01DC0102C01F
:101D600001900D9241505040D8F70895FB01DC01DD
:101D70008D91019080190110D9F3990B0895FB0101
:101D8000DC0101900D920020E1F70895F894FFCF57
:101D900000002603800000000000F2015C018901C0
:101DA0003F02BA019801AC012F2F22225C5C62082D
:101DB000660C6E0A720D7409005C753030303000AC
:101DC0006E756C6C00747275650066616C7365008D
:101DD00074696D65000D0A00636F75636F75206D22
:101DE0006573736167652064752061726475696EDF
:101DF0006F006D6573736167650072656C65617313
:0C1E0000656400626F75746F6E31000045
:00000001FF
